:020000040800F2
:1000000000000220890100081D02000825020008E6
:100010002D020008350200083D0200080000000023
:100020000000000000000000000000004502000881
:100030004D02000800000000550200085D020008A3
:100040001502000815020008150200081502000834
:100050001502000815020008150200081502000824
:100060001502000815020008150200081502000814
:100070001502000815020008150200081502000804
:1000800015020008150200081502000815020008F4
:1000900015020008150200081502000815020008E4
:1000A00015020008150200081502000815020008D4
:1000B00015020008150200081502000815020008C4
:1000C00015020008150200081502000815020008B4
:1000D00015020008150200081502000815020008A4
:1000E0001502000815020008150200081502000894
:1000F0001502000815020008150200081502000884
:100100001502000815020008150200081502000873
:100110001502000815020008150200081502000863
:100120001502000815020008150200081502000853
:100130001502000815020008150200081502000843
:100140001502000815020008150200081502000833
:100150001502000815020008150200081502000823
:100160001502000815020008150200081502000813
:100170001502000815020008150200081502000803
:10018000150200081502000880B584B000AF0D4BC1
:10019000BB600D4B7B60BB683B6004E03B681A1D95
:1001A0003A6000221A607A683B689A42F6D800F0FA
:1001B000B5F800F059F8F86000F0E6F8F86800F0DB
:1001C00001F900BF000000200400002080B584B0C9
:1001D00000AF0D4BFB600D4BBB600D4B7B60BB68F4
:1001E0003B6007E03B681A1D3A60FA68111DF96030
:1001F00012681A607A683B689A42F3D800F0E8F80F
:100200001037BD4680BD00BFE80700080000002091
:100210000000002080B400AFFEE700BF80B400AF54
:10022000FEE700BF80B400AFFEE700BF80B400AFC0
:10023000FEE700BF80B400AFFEE700BF80B400AFB0
:10024000FEE700BF80B400AFFEE700BF80B400AFA0
:10025000FEE700BF80B400AFFEE700BF80B400AF90
:04026000FEE700BFF6
:04026400CD010008C0
:1002680080B584B000AF00F035F80820012100F017
:10027800F1F94FF470437B6001233B720023BB729A
:1002880003237B720023FB723B1D0F48194600F0C5
:1002980041F94FF080435B6AFB604FF080435A6A34
:1002A8000A4B1A60094B1A68FB68D21A084B9A4223
:1002B80008D905484FF4704100F0BAF9034B1B68A0
:1002C800FB60EAE7E9E700BF000C024000000020FD
:1002D80040420F0080B584B000AF0120012100F03A
:1002E800D7F95323BB800023BB816FF00103BB60A8
:1002F8000023BB730023FB803B1D4FF08040194651
:1003080000F0E4F94FF08040012100F049FA10377D
:10031800BD4680BD80B582B000AF154A154BD31AD3
:100328009B103B6000237B6007E0124B7A6853F810
:10033800223098477B6801337B607A683B689A4231
:10034800F3D30D4A0D4BD31A9B103B6000237B60FF
:1003580007E00A4B7A6853F8223098477B680133E4
:100368007B607A683B689A42F3D30837BD4680BD04
:1003780068020008640200086802000868020008B1
:1003880080B582B000AF0B4A0B4BD31A9B103B6071
:100398003B687B6008E07B685A1E074B53F82230A5
:1003A80098477B68013B7B607B68002BF3D108375B
:1003B800BD4680BD680200086802000880B483B0AA
:1003C80000AF7860FEE700BF80B500AF114B114A5F
:1003D800126842F001021A600E4B00229A600D4A20
:1003E8000C4B1B6823F0847323F480331360094B90
:1003F800094A5A60074B074A126822F480221A6099
:10040800044B0022DA6000F00BF8044B4FF0006256
:100418009A6080BD003802401030002400ED00E0F2
:1004280080B483B000AF00237B6000233B60354B72
:10043800344A126842F480321A60324B1B6803F463
:1004480000333B607B6801337B603B68002B03D142
:100458007B68B3F5A04FF0D12A4B1B6803F4003337
:10046800002B02D001233B6001E000233B603B6886
:10047800012B42D1234B234A126C42F080521A645A
:10048800214B214A126842F440421A601D4B1D4A12
:1004980092689A601B4B1B4A926842F400429A6029
:1004A800184B184A926842F4A0529A60154B174AA2
:1004B8005A60144B134A126842F080721A6000BFE7
:1004C800104B1B6803F00073002BF9D0104B40F25F
:1004D80005721A600B4B0B4A926822F003029A606D
:1004E800084B084A926842F002029A6000BF054B26
:1004F8009B6803F00C03082BF9D10C37BD465DF857
:10050800047B7047003802400070004008544007E0
:10051800003C024080B487B000AF786039600023A7
:100528007B6100233B610023FB6000237B6176E055
:100538007B69012202FA03F33B613B681A683B6955
:100548001340FB60FA683B699A4265D17B681A6878
:100558007B695B00032101FA03F3DB431A407B68E4
:100568001A607B681A683B681B7919467B695B00CF
:1005780001FA03F31A437B681A603B681B79012B65
:1005880003D03B681B79022B2ED17B689A687B6964
:100598005B00032101FA03F3DB431A407B689A608E
:1005A8007B689A683B685B7919467B695B0001FA4E
:1005B80003F31A437B689A607B685A687B699BB22D
:1005C800012101FA03F3DB431A407B685A607B6818
:1005D8005A683B689B7919467B699BB201FA03F319
:1005E8009BB21A437B685A607B68DA687B699BB266
:1005F8005B00032101FA03F3DB431A407B68DA60EE
:100608007B68DA683B68DB7919467B695B0001FA2D
:1006180003F31A437B68DA607B6901337B617B698A
:100628000F2B85D91C37BD465DF8047B704700BF8A
:1006380080B483B000AF78600B467B807B685A69D2
:100648007B885A407B685A610C37BD465DF8047B4D
:10065800704700BF80B483B000AF78600B46FB7072
:10066800FB78002B06D0094B084A116B7A680A43BD
:100678001A6306E0054B054A116B7A68D2430A40B3
:100688001A630C37BD465DF8047B7047003802409A
:1006980080B483B000AF78600B46FB70FB78002B0A
:1006A80006D0094B084A116C7A680A431A6406E0B6
:1006B800054B054A116C7A68D2430A401A640C3714
:1006C800BD465DF8047B70470038024080B485B0B1
:1006D80000AF786039600023FB817B681B88FB8151
:1006E8007A68284B9A4213D07A68274B9A420FD0DF
:1006F8007B68B3F1804F0BD07A68244B9A4207D0BD
:100708007A68234B9A4203D07A68224B9A4208D1DE
:10071800FB8923F07003FB813B685A88FB891343EC
:10072800FB817A681C4B9A420CD07A681B4B9A4220
:1007380008D0FB8923F44073FB813B681A89FB8945
:100748001343FB817B68FA891A803B685A687B6887
:10075800DA623B681A887B681A857A68094B9A427C
:1007680003D07A68084B9A4204D13B689B7A1A46B0
:100778007B681A867B6801229A821437BD465DF829
:10078800047B704700000140000401400004004061
:1007980000080040000C0040001000400014004019
:1007A80080B483B000AF78600B46FB70FB78002BF9
:1007B80008D07B681B889BB243F001039AB27B6820
:1007C8001A8007E07B681B889BB223F001039AB26A
:1007D8007B681A800C37BD465DF8047B704700BF04
:040000050800018965
:00000001FF
