:020000040800F2
:1000000000000220890100083902000841020008AE
:1000100049020008510200085902000800000000CF
:10002000000000000000000000000000752400082F
:1000300069020008000000000D260008652600087F
:1000400031020008310200083102000831020008C4
:1000500031020008310200083102000831020008B4
:1000600031020008310200083102000831020008A4
:100070003102000831020008310200083102000894
:100080003102000831020008310200083102000884
:100090003102000831020008310200083102000874
:1000A0003102000831020008310200083102000864
:1000B0003102000831020008310200083102000854
:1000C0003102000831020008310200083102000844
:1000D0003102000831020008310200083102000834
:1000E0003102000831020008310200083102000824
:1000F0003102000831020008310200083102000814
:100100003102000831020008310200083102000803
:1001100031020008310200083102000831020008F3
:1001200031020008310200083102000831020008E3
:1001300031020008310200083102000831020008D3
:1001400031020008310200083102000831020008C3
:1001500031020008310200083102000831020008B3
:1001600031020008310200083102000831020008A3
:100170003102000831020008310200083102000893
:10018000310200083102000880B584B000AF0D4B89
:10019000BB600D4B7B60BB683B6004E03B681A1D95
:1001A0003A6000221A607A683B689A42F6D800F0FA
:1001B000C9F800F089F8F86000F0FAF8F86800F083
:1001C00015F900BF0C0000209C45002080B584B0CC
:1001D00000AF0D4BFB600D4BBB600D4B7B60BB68F4
:1001E0003B6007E03B681A1D3A60FA68111DF96030
:1001F00012681A607A683B689A42F3D800F0FCF8FB
:100200001037BD4680BD00BF8029000800000020D7
:100210000C00002080B400AFDFF81000016841F44A
:1002200070010160BD465DF8047B704788ED00E019
:1002300080B400AFFEE700BF80B400AFFEE700BFB0
:1002400080B400AFFEE700BF80B400AFFEE700BFA0
:1002500080B400AFFEE700BF80B400AFFEE700BF90
:1002600080B400AFFEE700BF80B400AFFEE700BF80
:1002700080B400AFFEE700BF80B400AFFEE700BF70
:08028000CD0100081502000881
:1002880080B582B000AF7860396002F0ADF9FEE762
:1002980080B500AF02F0A8F9FEE700BF80B582B0D4
:1002A80000AF78604FF47A7000F078FF034B034A90
:1002B800526982F480525A61F4E700BF000C024090
:1002C80080B584B004AF00F015F801230093002333
:1002D80001930023029300230393044804498022D6
:1002E800002300F0A7FE00F08BFFFEE7A502000840
:1002F8004C29000880B582B000AF0820012100F029
:10030800CBF94FF470433B6001233B710023BB7171
:1003180003237B710023FB713B460648194600F016
:1003280015F905484FF47041002200F09DF908378F
:10033800BD4680BD000C02400004024080B582B07A
:1003480000AF154A154BD31A9B103B6000237B6006
:1003580007E0124B7A6853F8223098477B680133DC
:100368007B607A683B689A42F3D30D4A0D4BD31AE7
:100378009B103B6000237B6007E00A4B7A6853F8C8
:10038800223098477B6801337B607A683B689A42E1
:10039800F3D30837BD4680BD8802000880020008F4
:1003A800880200088802000880B582B000AF0B4AB6
:1003B8000B4BD31A9B103B603B687B6008E07B6863
:1003C8005A1E074B53F8223098477B68013B7B60E5
:1003D8007B68002BF3D10837BD4680BD8802000832
:1003E8008802000880B483B000AF7860FEE700BFE1
:1003F80080B500AF154B154AD2F8882042F4700238
:10040800C3F88820124B124A126842F001021A609F
:100418000F4B00229A600E4A0D4B1B6823F0847321
:1004280023F4803313600A4B0A4A5A60084B084A7F
:10043800126822F480221A60054B0022DA6000F06C
:100448000BF8024B4FF000629A6080BD00ED00E0AF
:10045800003802401030002480B483B000AF00237D
:100468007B6000233B60354B344A126842F480328B
:100478001A60324B1B6803F400333B607B6801331E
:100488007B603B68002B03D17B68B3F5A04FF0D1AC
:100498002A4B1B6803F40033002B02D001233B6076
:1004A80001E000233B603B68012B42D1234B234AE8
:1004B800126C42F080521A64214B214A126842F4AD
:1004C80040421A601D4B1D4A92689A601B4B1B4A9A
:1004D800926842F400429A60184B184A926842F4B3
:1004E800A0529A60154B174A5A60144B134A126867
:1004F80042F080721A6000BF104B1B6803F0007353
:10050800002BF9D0104B40F205721A600B4B0B4AC6
:10051800926822F003029A60084B084A926842F0F7
:1005280002029A6000BF054B9B6803F00C03082B7E
:10053800F9D10C37BD465DF8047B7047003802409E
:100548000070004008544007003C024080B487B067
:1005580000AF7860396000237B6100233B61002392
:10056800FB6000237B6176E07B69012202FA03F3DA
:100578003B613B681A683B691340FB60FA683B695A
:100588009A4265D17B681A687B695B00032101FA8E
:1005980003F3DB431A407B681A607B681A683B6880
:1005A8001B7919467B695B0001FA03F31A437B68E0
:1005B8001A603B681B79012B03D03B681B79022B1F
:1005C8002ED17B689A687B695B00032101FA03F3EB
:1005D800DB431A407B689A607B689A683B685B7962
:1005E80019467B695B0001FA03F31A437B689A603A
:1005F8007B685A687B699BB2012101FA03F3DB43EC
:100608001A407B685A607B685A683B689B79194630
:100618007B699BB201FA03F39BB21A437B685A6069
:100628007B68DA687B699BB25B00032101FA03F3FC
:10063800DB431A407B68DA607B68DA683B68DB7901
:1006480019467B695B0001FA03F31A437B68DA6099
:100658007B6901337B617B690F2B85D91C37BD46CC
:100668005DF8047B704700BF80B483B000AF78604A
:1006780013460A467A807B707B78002B03D07B6810
:100688007A881A8302E07B687A885A830C37BD46D9
:100698005DF8047B704700BF80B483B000AF78601A
:1006A8000B46FB70FB78002B06D0094B084A116BF0
:1006B8007A680A431A6306E0054B054A116B7A68A3
:1006C800D2430A401A630C37BD465DF8047B704775
:1006D8000038024080B483B000AF78607B6803F1D3
:1006E80008027B685A607B684FF0FF329A607B682B
:1006F80003F108027B68DA607B6803F108027B6813
:100708001A617B6800221A600C37BD465DF8047BCD
:10071800704700BF80B483B000AF78607B68002268
:100728001A610C37BD465DF8047B704780B485B00C
:1007380000AF786039607B685B68FB603B68FA688B
:100748005A60FB689A683B689A60FB689B683A68DD
:100758005A60FB683A689A603B687A681A617B68F5
:100768001B685A1C7B681A601437BD465DF8047B09
:10077800704700BF80B485B000AF786039603B68CF
:100788001B68BB60BB68B3F1FF3F03D17B681B6983
:10079800FB600CE07B680833FB6002E0FB685B6889
:1007A800FB60FB685B681A68BB689A42F6D9FB680D
:1007B8005A683B685A603B685B683A689A603B686D
:1007C800FA689A60FB683A685A603B687A681A6106
:1007D8007B681B685A1C7B681A601437BD465DF835
:1007E800047B704780B485B000AF78607B681B6974
:1007F800FB607B685B687A6892689A607B689B6834
:100808007A6852685A60FB685A687B689A4203D1D2
:100818007B689A68FB685A607B6800221A61FB68EB
:100828001B685A1EFB681A60FB681B681846143759
:10083800BD465DF8047B704780B584B000AF786032
:1008480039607B68FB60FB68002B02D101F0CCFEAD
:10085800FEE701F0A1FEFB681A68FB68DB6BF9682C
:10086800096C01FB03F31A44FB685A60FB68002219
:100878009A63FB681A68FB689A60FB681A68FB68E9
:10088800DB6B013BF968096C01FB03F31A44FB6855
:10089800DA60FB684FF0FF325A64FB684FF0FF32B2
:1008A8009A643B68002B0ED1FB681B69002B14D09F
:1008B800FB681033184600F011FF0346012B0CD1DA
:1008C80001F05AFE09E0FB6810331846FFF702FFF3
:1008D800FB6824331846FFF7FDFE01F06DFE012387
:1008E80018461037BD4680BD80B588B000AFF860A7
:1008F800B9601346FB710023FB61FB68002B2AD00B
:10090800542001F07FFCB861BB69002B23D0FB6841
:10091800BA6802FB03F301337B61786901F072FC6A
:100928000246BB691A60BB691B68002B10D0BB6903
:10093800FA68DA63BB69BA681A64B8690121FFF713
:100948007BFFBB69FA7983F85020BB69FB6102E041
:10095800B86901F0E9FCFB69002B02D101F044FE03
:10096800FEE7FB6918462037BD4680BD80B588B0D4
:1009780000AFF860B9607A603B600023FB61FB68F8
:10098800BB61BB69002B02D101F02EFEFEE7BB68FC
:10099800002B03D1BB691B6C002B01D1012300E0A4
:1009A8000023002B02D101F01FFEFEE73B68022B5B
:1009B80003D1BB69DB6B012B01D1012300E00023CC
:1009C800002B02D101F010FEFEE701F0D5F8034636
:1009D800002B02D17B68002B01D1012300E000230A
:1009E800002B02D101F000FEFEE701F0D5FDBB6946
:1009F8009A6BBB69DB6B9A4202D33B68022B16D118
:100A0800B869B9683A6800F0B9F9BB695B6A002B44
:100A180009D0BB692433184600F060FE0346012B59
:100A280001D101F0A9FD01F0C7FD012359E07B6860
:100A3800002B03D101F0C0FD002352E0FB69002B1D
:100A480006D107F11003184600F0A4FE0123FB614C
:100A580001F0B2FD00F00CFC01F09EFDBB695B6C7F
:100A6800B3F1FF3F02D1BB6900225A64BB699B6C9A
:100A7800B3F1FF3F02D1BB6900229A6401F09CFDEB
:100A880007F110023B1D1046194600F09DFE034673
:100A9800002B1ED1B86900F061FA0346002B12D072
:100AA800BB6903F110027B681046194600F0B8FDD7
:100AB800B86900F0F1F900F0E9FB0346002B0FD10B
:100AC80001F05AFD0CE0B86900F0E6F900F0DEFB31
:100AD8008BE7B86900F0E0F900F0D8FB002300E0EC
:100AE80083E718462037BD4680BD00BF80B588B073
:100AF80000AFF860B9607A603B60FB68BB61BB69B6
:100B0800002B02D101F070FDFEE7BB68002B03D17A
:100B1800BB691B6C002B01D1012300E00023002BD3
:100B280002D101F061FDFEE73B68022B03D1BB69EE
:100B3800DB6B012B01D1012300E00023002B02D144
:100B480001F052FDFEE701F0B9FD01F04DFD7861BD
:100B5800BB699A6BBB69DB6B9A4202D33B68022B79
:100B680024D1B869B9683A6800F008F9BB699B6C88
:100B7800B3F1FF3F12D1BB695B6A002B13D0BB698D
:100B88002433184600F0AAFD0346002B0BD07B68DF
:100B9800002B08D07B6801221A6004E0BB699B6CBB
:100BA8005A1CBB699A640123FB6101E00023FB61C5
:100BB800786901F023FDFB6918462037BD4680BDE2
:100BC80080B58AB000AFF860B9607A603B600023F6
:100BD8007B62FB683B623B6A002B02D101F004FD9B
:100BE800FEE7BB68002B03D13B6A1B6C002B01D1CD
:100BF800012300E00023002B02D101F0F5FCFEE701
:100C080000F0BAFF0346002B02D17B68002B01D10C
:100C1800012300E00023002B02D101F0E5FCFEE7F0
:100C280001F0BAFC3B6A9B6B002B3BD03B6ADB684C
:100C3800FB61386AB96800F009F93B68002B1CD1E0
:100C48003B6A9B6B5A1E3B6A9A633B6A1B68002B84
:100C580004D100F081FF02463B6A5A603B6A1B6977
:100C6800002B1BD03B6A1033184600F037FD0346B3
:100C7800012B13D101F080FC10E03B6AFA69DA60BD
:100C88003B6A5B6A002B09D03B6A2433184600F0A4
:100C980025FD0346002B01D001F06EFC01F08CFC11
:100CA800012366E07B68002B03D101F085FC00235B
:100CB8005FE07B6A002B06D107F11403184600F0A9
:100CC80069FD01237B6201F077FC00F0D1FA01F0A5
:100CD80063FC3B6A5B6CB3F1FF3F02D13B6A0022C5
:100CE8005A643B6A9B6CB3F1FF3F02D13B6A002216
:100CF8009A6401F061FC07F114023B1D1046194685
:100D080000F062FD0346002B2BD1386A00F010F981
:100D18000346002B1FD03B6A1B68002B08D101F04B
:100D28003BFC3B6A5B68184600F044FF01F044FC5A
:100D38003B6A03F124027B681046194600F070FCF8
:100D4800386A00F0A9F800F0A1FA0346002B0FD189
:100D580001F012FC0CE0386A00F09EF800F096FAF8
:100D68005EE7386A00F098F800F090FA002300E097
:100D780056E718462837BD4680BD00BF80B584B009
:100D880000AFF860B9607A60FB681B6C002B0CD16F
:100D9800FB681B68002B51D1FB685B68184600F0A4
:100DA80067FFFB6800225A6048E07B68002B1AD175
:100DB800FB689A68FB681B6C1046B9681A4601F014
:100DC800DDFCFB689A68FB681B6C1A44FB689A6038
:100DD800FB689A68FB685B689A422FD3FB681A68BD
:100DE800FB689A602AE0FB68DA68FB681B6C1046AF
:100DF800B9681A4601F0C2FCFB68DA68FB681B6C2C
:100E08005B421A44FB68DA60FB68DA68FB681B68B7
:100E18009A4207D2FB685A68FB681B6C5B421A440B
:100E2800FB68DA607B68022B08D1FB689B6B002BA0
:100E380004D0FB689B6B5A1EFB689A63FB689B6B2C
:100E48005A1CFB689A631037BD4680BD80B582B0D6
:100E580000AF786039607B681B68002B19D07B680D
:100E6800DA687B681B6C1A447B68DA607B68DA682E
:100E78007B685B689A4203D37B681A687B68DA6090
:100E88007B68DA687B681B6C386811461A4601F083
:100E980075FC0837BD4680BD80B582B000AF78606C
:100EA80001F07AFB14E07B685B6A002B0AD07B6850
:100EB8002433184600F012FC0346002B03D000F040
:100EC800D3FC00E008E07B689B6C5A1E7B689A6440
:100ED8007B689B6C002BE6DC7B684FF0FF329A64E2
:100EE80001F06AFB01F058FB14E07B681B69002BDA
:100EF8000FD07B681033184600F0F0FB0346002B38
:100F080001D000F0B1FC7B685B6C5A1E7B685A64A8
:100F180000E003E07B685B6C002BE6DC7B684FF04D
:100F2800FF325A6401F048FB0837BD4680BD00BF58
:100F380080B584B000AF786001F02EFB7B689B6BB6
:100F4800002B02D10123FB6001E00023FB6001F0CC
:100F580033FBFB6818461037BD4680BD80B584B0AA
:100F680000AF786001F018FB7B689A6B7B68DB6BDD
:100F78009A4202D10123FB6001E00023FB6001F0EB
:100F88001BFBFB6818461037BD4680BD80B485B092
:100F980000AF786039600023FB6014E00E4BFA68FC
:100FA80053F83230002B0BD10B4BFA68396843F8F1
:100FB8003210094AFB68DB0013447A685A6005E07E
:100FC800FB680133FB60FB68072BE7D91437BD4684
:100FD8005DF8047B704700BF5C45002080B584B095
:100FE80000AF786039607B68FB6001F0D5FAFB6878
:100FF8005B6CB3F1FF3F02D1FB6800225A64FB68C7
:101008009B6CB3F1FF3F02D1FB6800229A6401F0A8
:10101800D3FAFB689B6B002B05D1FB682433184679
:10102800396800F033FBF868FFF736FF1037BD4624
:1010380080BD00BF80B58AB002AFF860B9603B6080
:101048001346FB80FB68002B02D101F0CDFAFEE7C6
:10105800BB6A042B02D901F0C7FAFEE7FB881846E1
:10106800396B00F013FDB861BB69002B72D0BB6906
:101078001A6BFB8803F18043013B9B0013447B619F
:101088007B6923F007037B617B6903F00703002B6F
:1010980002D001F0A9FAFEE7FB880093B869B968A5
:1010A800BA6A7B6B00F0FCFB7869F9683A6801F072
:1010B8009BF90246BB691A60FB6A002B02D0FB6AE7
:1010C800BA691A6001F068FA2E4B1B685A1C2D4B3E
:1010D8001A602D4B1B68002B09D12B4BBA691A607B
:1010E800284B1B68012B0FD100F022FC0CE0274B8A
:1010F8001B68002B08D1244B1B68DA6ABB6A9A422A
:1011080002D8214BBA691A60214B1B685A1C204B24
:101118001A601F4B1A68BB691A64BB69DA6A1D4BEF
:101128001B689A4203D9BB69DA6A1A4B1A60BB6911
:10113800DA6A13469B0013449B00174A1A44BB699A
:10114800043310461946FFF7F1FA0123FB6101F059
:1011580033FA02E04FF0FF33FB61FB69012B0BD13F
:101168000A4B1B68002B07D0074B1B68DA6ABB6A5F
:101178009A4201D201F000FAFB6918462037BD46B1
:1011880080BD00BFE40000200C000020F00000201B
:1011980004010020EC0000201000002080B584B07D
:1011A80000AF78600023FB607B68002B19D0114BDF
:1011B8001B68002B02D001F017FAFEE700F058F880
:1011C8000D4B1A687B681344BB600C4B1B680433D7
:1011D8001846FFF707FBB86800F022FC00F056F845
:1011E800F860FB68002B01D101F0C6F91037BD4645
:1011F80080BD00BFF4000020E80000200C000020A3
:1012080080B586B004AF0023009300230193002328
:101218000293002303931248124980220023FFF708
:1012280009FF78607B68012B02D100F063FD7860CC
:101238007B68012B0AD101F0D7F90B4B01221A6008
:101248000A4B00221A6001F02FF905E07B68002B99
:1012580002D101F0C9F9FEE70837BD4680BD00BFDD
:101268008918000854290008F0000020E800002030
:1012780080B400AF044B1B685A1C034B1A60BD4670
:101288005DF8047B704700BFF400002080B582B091
:1012980000AF00237B60384B1B68002B02D101F0A4
:1012A800A3F9FEE701F078F9334B1B685A1E324B5D
:1012B8001A60314B1B68002B56D1304B1B68002B32
:1012C80052D02FE02E4BDB68DB683B603B6818335D
:1012D8001846FFF787FA3B6804331846FFF782FA87
:1012E8003B68DA6A274B1B689A4203D93B68DA6A7B
:1012F800244B1A603B68DA6A13469B0013449B0030
:10130800214A1A443B68043310461946FFF70EFA7F
:101318003B68DA6A1D4B1B68DB6A9A4202D31C4B96
:1013280001221A60164B1B68002BCBD1194B1B6886
:10133800002B11D00CE000F041F80346002B02D03E
:10134800134B01221A60134B1B685A1E114B1A606B
:10135800104B1B68002BEED10D4B1B68012B03D1E2
:1013680001237B6001F008F901F026F97B68184633
:101378000837BD4680BD00BFF4000020E40000200F
:10138800A4000020EC000020100000200C00002029
:10139800FC000020F800002080B582B000AF01F00A
:1013A800FBF8054B1B687B6001F006F97B68184663
:1013B8000837BD4680BD00BFE800002080B586B074
:1013C80000AF00237B614E4B1B68002B40F08780E9
:1013D8004C4B1B685A1C4B4B1A604A4B1B683B61B1
:1013E8003B69002B18D1484B1B681B68002B02D0A7
:1013F80001F0FAF8FEE7444B1B68FB60434B1A68A0
:10140800414B1A60414BFA681A60414B1B685A1CE1
:101418003F4B1A6000F07CFB3E4B1B683A699A42CE
:101428004ED3394B1B681B68002B01D1012300E008
:101438000023002B04D0374B4FF0FF321A603FE0F7
:10144800314B1B68DB68DB68BB60BB685B687B6033
:101458003A697B689A4203D22E4B7A681A602FE069
:10146800BB6804331846FFF7BDF9BB689B6A002BBD
:1014780004D0BB6818331846FFF7B4F9BB68DA6ABA
:10148800254B1B689A4203D9BB68DA6A224B1A605B
:10149800BB68DA6A13469B0013449B001F4A1A4430
:1014A800BB68043310461946FFF740F9BB68DA6A8F
:1014B8001B4B1B68DB6A9A4201D301237B61B0E7AF
:1014C800174B1B68DA6A154913469B0013449B00A7
:1014D8000B441B68012B07D901237B6104E0114BE6
:1014E8001B685A1C0F4B1A600F4B1B68002B01D04E
:1014F80001237B617B6918461837BD4680BD00BF54
:10150800F4000020E80000209C000020A00000203B
:101518000001002000000020EC0000201000002046
:101528000C000020F8000020FC00002080B582B0EC
:1015380000AF354B1B68002B03D0344B01221A60D7
:101548005EE0324B00221A60314B1B681A68304B40
:101558001B681B6B9A4208D82D4B1A682C4B1B68CA
:10156800343310461946FEF78BFE294B1B681B6B5C
:1015780018462849142201F0CDF80346002B09D05B
:10158800234B1A68224B1B68343310461946FEF762
:1015980077FE0CE00BE0204B1B68002B02D101F01A
:1015A80023F8FEE71C4B1B685A1E1B4B1A601A4B8C
:1015B8001A681A4913469B0013449B000B441B6886
:1015C800002BE8D0144B1A6813469B0013449B0069
:1015D800124A13447B607B685B685A687B685A6070
:1015E8007B685A687B6808339A4204D17B685B68D9
:1015F8005A687B685A607B685B68DA68044B1A60D3
:101608000837BD4680BD00BFF4000020FC00002064
:101618000C0000205C290008EC00002010000020CD
:1016280080B584B000AF786039607B68002B02D148
:1016380000F0DAFFFEE7124B1B681833786819468A
:10164800FFF798F80E4B1B6804331846FFF7CAF8E3
:101658003B68B3F1FF3F07D1094B1B6804330948C6
:101668001946FFF763F807E0074B1A683B6813440D
:10167800FB60F86800F0D4F91037BD4680BD00BFA4
:101688000C000020D0000020E800002080B584B0C5
:1016980000AF786039607B68002B02D100F0A4FFAE
:1016A800FEE70C4B1B68183378681946FFF73EF8BD
:1016B800084B1B6804331846FFF794F8064B1A6862
:1016C8003B681344FB60F86800F0AAF91037BD4680
:1016D80080BD00BF0C000020E800002080B584B069
:1016E80000AF78607B68DB68DB68BB60BB68002B99
:1016F80002D100F079FFFEE7BB6818331846FFF700
:1017080071F81E4B1B68002B1DD1BB6804331846AB
:10171800FFF768F8BB68DA6A194B1B689A4203D965
:10172800BB68DA6A164B1A60BB68DA6A13469B0014
:1017380013449B00134A1A44BB68043310461946E5
:10174800FEF7F4FF05E0BB6818330F481946FEF7AB
:10175800EDFFBB68DA6A0D4B1B68DB6A9A4205D954
:101768000123FB600A4B01221A6001E00023FB60A1
:10177800FB6818461037BD4680BD00BFF400002046
:10178800EC00002010000020A40000200C00002025
:10179800FC00002080B582B000AF78607B68002B29
:1017A80002D100F021FFFEE7054B1A687B681A603A
:1017B800044B1A687B685A600837BD4680BD00BF75
:1017C80000010020E800002080B584B000AF7860F8
:1017D80039607B68002B02D100F006FFFEE73B680A
:1017E800002B02D100F000FFFEE700F0D5FE1C4BF5
:1017F8001B68BB603B681B68B3F1FF3F02D1002345
:10180800FB6026E07B681A68164B1B689A4207D073
:101818007B685A68BB689A4202D80123FB6018E0CB
:101828007B685B68BA68D21A3B681B689A420ED21A
:101838003B681A687B685968BB68CB1A1A443B68CE
:101848001A607868FFF7A6FF0023FB6001E0012318
:10185800FB6000F0B1FEFB6818461037BD4680BD3E
:10186800E80000200001002080B400AF034B0122F3
:101878001A60BD465DF8047B704700BFFC0000207D
:1018880080B582B000AF786000F090F8034B1B6819
:10189800012B01D900F070FEF6E700BF1000002010
:1018A80080B586B000AFF860B9607A603B6000230D
:1018B8007B6112E0BA687B6913441A78F9687B691E
:1018C8000B4430331A71BA687B6913441B78002BB8
:1018D80000D105E07B6901337B617B69092BE9D97C
:1018E800FB68002283F83D207B68042B01D9042380
:1018F8007B60FB687A68DA62FB687A689A64FB68DE
:1019080004331846FEF706FFFB6818331846FEF73F
:1019180001FFFB68FA681A617B68C3F10502FB687E
:101928009A61FB68FA685A621837BD4680BD00BFE5
:1019380080B582B000AF00237B600CE07A68134664
:101948009B0013449B00114A13441846FEF7C2FE3D
:101958007B6801337B607B68042BEFD90C48FEF76A
:10196800B9FE0C48FEF7B6FE0B48FEF7B3FE0B486F
:10197800FEF7B0FE0A48FEF7ADFE0A4B044A1A60AD
:10198800094B044A1A600837BD4680BD1000002084
:101998007400002088000020A4000020B800002067
:1019A800D00000209C000020A000002080B582B05C
:1019B80000AF28E0FFF75CFC164B1B68002B14BF38
:1019C80000230123DBB27B60FFF760FC7B68002B00
:1019D80019D100F0E1FD0F4BDB68DB683B603B6829
:1019E80004331846FEF7FEFE0B4B1B685A1E0A4BC3
:1019F8001A600A4B1B685A1E084B1A6000F0DCFD7F
:101A0800386800F075F8054B1B68002BD2D10837F1
:101A1800BD4680BDB8000020E4000020CC000020B6
:101A280080B582B000AF7860134B1B687A685A6043
:101A3800124B1B687A689A4209D2114B1A680E4BEE
:101A48001B68043310461946FEF794FE10E00D4B50
:101A58001A68094B1B68043310461946FEF78AFEBC
:101A6800094B1B687A689A4202D2074B7A681A6057
:101A78000837BD4680BD00BF0C000020E8000020EC
:101A8800A00000209C0000200000002080B584B049
:101A980000AF03463960FB804C2000F0B3FBF860D0
:101AA800FB68002B1FD03B68002B06D1FB889B00EE
:101AB800184600F0A7FB034600E03B68FA6813638A
:101AC800FB681B6B002B05D1F86800F02DFC002388
:101AD800FB6008E0FB681A6BFB889B001046A52199
:101AE8001A4600F0E5FEFB6818461037BD4680BD73
:101AF80080B582B000AF78607B681B6B184600F039
:101B080013FC786800F010FC0837BD4680BD00BFA4
:101B180080B483B000AF0E4B1B681B68002B01D14B
:101B2800012300E00023002B04D00A4B4FF0FF32C2
:101B38001A6008E0064B1B68DB68DB687B607B6823
:101B48005A68044B1A600C37BD465DF8047B704731
:101B58009C0000200000002080B483B000AF054B3B
:101B68001B687B607B6818460C37BD465DF8047BB4
:101B7800704700BF0C00002080B483B000AF0B4B4F
:101B88001B68002B02D101237B6008E0084B1B680F
:101B9800002B02D102237B6001E000237B607B687D
:101BA80018460C37BD465DF8047B7047F0000020EE
:101BB800F400002080B584B000AF78607B68FB60DB
:101BC8007B68002B4AD0FB68DA6A264B1B68DB6A05
:101BD8009A4243D2FB689B69002B06DB214B1B68AA
:101BE800DB6AC3F10502FB689A61FB685969FB6807
:101BF800DA6A13469B0013449B001B4A134499421C
:101C080001D1012300E00023002B22D0FB6804331C
:101C18001846FEF7E7FD134B1B68DA6AFB68DA62C1
:101C2800FB68DA6A114B1B689A4203D9FB68DA6AC7
:101C38000E4B1A60FB68DA6A13469B0013449B003C
:101C4800094A1A44FB68043310461946FEF76EFD2C
:101C580004E0044B1B68DA6AFB68DA621037BD4699
:101C680080BD00BF0C00002010000020EC00002008
:101C780080B584B000AF78607B68FB607B68002B20
:101C880030D0FB68DA6AFB689B6C9A422AD0FB6802
:101C980004331846FEF7A6FDFB689A6CFB68DA6207
:101CA800FB689B69002B05DBFB68DB6AC3F1050257
:101CB800FB689A61FB68DA6A0C4B1B689A4203D985
:101CC800FB68DA6A094B1A60FB68DA6A13469B00FC
:101CD80013449B00064A1A44FB680433104619460D
:101CE800FEF724FD1037BD4680BD00BFEC00002084
:101CF8001000002080B586B004AF00237B6000F0A0
:101D080045FA0F4B1B68002B0FD0022300930023CA
:101D1800019300230293002303930A480A494FF4CE
:101D280080720023FFF786F978607B68002B02D168
:101D380000F05AFCFEE77B6818460837BD4680BDB0
:101D480038010020511E00087029000880B588B0AD
:101D580000AFF860B9607A603B600023FB611D4BFF
:101D68001B68002B30D0BB683B617B687B61FB68DC
:101D7800BB613B68002B1CD1FFF7FEFE0346022B1C
:101D88000BD1144B1A6807F1100310461946BA6AAA
:101D98000023FEF7EBFDF86116E00E4B1A6807F119
:101DA80010031046194600220023FEF7DFFDF861F4
:101DB8000AE0084B1A6807F11003104619463A68FA
:101DC8000023FEF793FEF861FB6918462037BD46ED
:101DD80080BD00BF3801002080B586B002AF7860B2
:101DE8003960184B1B68DB68DB68FB60FB680433F1
:101DF8001846FEF7F7FCFB68DB69012B1BD1FB6873
:101E08009A697B681344F86819463A687B6800F059
:101E1800A7F80346012B0ED100230093F868002190
:101E28007A680023FFF792FFB860BB68002B02D1E5
:101E380000F0DAFBFEE7FB685B6AF8689847103742
:101E4800BD4680BD3001002080B584B000AF786009
:101E580007F10803184600F03FF8F860BB68F86817
:101E6800194600F003F800F0BDF8F1E780B584B03A
:101E780000AF78603960FFF7FBF907F108031846EF
:101E880000F04EF8F860BB68002B1ED13B68002BB1
:101E98000AD17A68FB689A4206D8FFF7F7F978689A
:101EA800F968FFF799FF12E00A4B1A687968FB682E
:101EB800CB1A10461946FFF791F8FFF7E7F90346E2
:101EC800002B04D100F058FB01E0FFF7DFF91037D1
:101ED800BD4680BD3801002080B485B000AF786071
:101EE8000E4B1B681B68002B14BF00230123DBB2B9
:101EF8001A467B681A607B681B68002B05D1074B64
:101F08001B68DB681B68FB6001E00023FB60FB6863
:101F180018461437BD465DF8047B70473001002031
:101F280080B584B000AF7860FFF736FAF8600B4BE5
:101F38001B68FA689A4205D200F0D0F87B68012243
:101F48001A6002E07B6800221A60044BFA681A6083
:101F5800FB6818461037BD4680BD00BF3C01002015
:101F680080B586B000AFF860B9607A603B60002346
:101F78007B61FB68BA685A60FB68FA681A61BA68DC
:101F88007B689A4212D87A683B68D21AFB689B69C8
:101F98009A4202D301237B611BE0104B1A68FB684D
:101FA800043310461946FEF7E5FB12E07A683B68F1
:101FB8009A4206D2BA683B689A4202D301237B61EF
:101FC80007E0074B1A68FB68043310461946FEF70A
:101FD800D1FB7B6918461837BD4680BD3401002007
:101FE8003001002080B58AB002AF64E0BB68B3F16D
:101FF800FF3F60D03B69FB61FB695B69002B04D044
:10200800FB6904331846FEF7EDFB3B1D1846FFF746
:1020180087FFB861BB68032B4CD801A252F823F0A4
:1020280039200008BD2000088B200008B5200008D2
:10203800FA68FB699B691A44FB68F8691146BA6932
:10204800FFF78EFF0346012B1AD1FB695B6AF8691B
:102058009847FB69DB69012B12D1FA68FB699B6918
:10206800134400220092F86900211A460023FFF762
:102078006DFE78617B69002B02D100F0B5FAFEE7AE
:1020880019E0FA68FB699A61FB699B69002B02D128
:1020980000F0AAFAFEE7FB699A69BB691344F8697C
:1020A8001946BA69BB69FFF75BFF04E0F86900F0FD
:1020B8003BF900E000BF084B1A6807F10803104617
:1020C800194600220023FEF77BFD0346002B8DD125
:1020D8002037BD4680BD00BF3801002080B588B0DC
:1020E80002AF3DE0274B1B68DB681B687B61254B13
:1020F8001B68DB68DB683B613B6904331846FEF705
:1021080071FB3B695B6A386998473B69DB69012B5E
:1021180026D13B699A697B691344FB60FA687B693D
:102128009A420ED93B69FA685A603B693A691A6162
:10213800144B1A683B69043310461946FEF71AFB1C
:102148000EE000230093386900217A690023FFF725
:10215800FDFDB860BB68002B02D100F045FAFEE730
:10216800084B1B681B68002BBCD1064B1B687B60A7
:10217800054B1A68034B1A60034B7A681A601837C4
:10218800BD4680BD300100203401002080B500AF7D
:1021980000F002FA154B1B68002B24D11448FEF7F7
:1021A80099FA1448FEF796FA134B114A1A60134B22
:1021B800104A1A600A200C210022FEF795FB0246FD
:1021C8000A4B1A60094B1B68002B02D100F00CFA6D
:1021D800FEE7064B1B68002B05D0044B1B6818460E
:1021E8000749FEF7D3FE00F0E7F980BD380100206B
:1021F800080100201C0100203001002034010020CB
:102208007829000880B588B000AF786000237B612A
:10221800FFF72EF8404B1B68002B04D100F0BCF8E8
:102228003D4B01221A607B68002B0DD008237A6889
:1022380013447B607B6803F00703002B04D07B68A2
:1022480023F0070308337B607B68002B57D07A683C
:1022580044F2F7339A4252D8304BBB612F4B1B687C
:10226800FB6104E0FB69BB61FB691B68FB61FB69FF
:102278005A687B689A4203D2FB691B68002BF1D12C
:10228800FA69274B9A423AD0BB691A680823134463
:102298007B61FB691A68BB691A60FB695A687B68CD
:1022A800D21A08235B009A4222D9FA697B68134440
:1022B800FB60FB695A687B68D21AFB685A60FB6945
:1022C8007A685A60FB685B68BB60144B3B6102E04C
:1022D8003B691B683B613B691B685A68BB689A424B
:1022E800F6D33B691A68FB681A603B69FA681A609A
:1022F8000C4B1A68FB695B68D21A0A4B1A60FEF726
:10230800C5FF7B69002B01D1FDF7C2FF7B69184629
:102318002037BD4680BD00BF504500204045002005
:10232800484500200400002080B586B000AF7860E2
:102338007B683B617B68002B27D008235B423A69A6
:1023480013443B613B69FB60FEF792FFFB685B68E7
:10235800BB600F4B7B6102E07B691B687B617B691B
:102368001B685A68BB689A42F6D37B691A68FB688F
:102378001A607B69FA681A60FB685A68054B1B6823
:102388001A44044B1A60FEF781FF1837BD4680BD1A
:10239800404500200400002080B483B000AF0F4BFC
:1023A80023F007037B600E4B7A681A600C4B0022FF
:1023B8005A600C4B44F2F8325A600A4B00221A60F9
:1023C8007B683B603B6844F2F8325A603B68054AD8
:1023D8001A600C37BD465DF8047B70474801002041
:1023E800404500204845002080B485B000AFF86023
:1023F800B9607A60FB68043BFB60FB684FF0807251
:102408001A60FB68043BFB60BA68FB681A60FB68EB
:10241800043BFB600C4AFB681A60FB68143BFB60DA
:102428007A68FB681A60FB68043BFB60FB686FF026
:1024380002021A60FB68203BFB60FB6818461437F1
:10244800BD465DF8047B70475524000880B500AF91
:10245800054B1B68B3F1FF3F02D000F0C5F8FEE75B
:1024680000F0C2F8FEE700BF08000020064B19681C
:102478000868B0E8F04F80F30988BFF36F8F4FF01A
:10248800000080F3118870470C00002005480068A0
:10249800006880F3088862B6BFF34F8FBFF36F8F71
:1024A80000DF00BF08ED00E080B584B000AF2C4B22
:1024B800FB60FB681B78DBB2BB60FB68FF221A700D
:1024C800FB681B78DBB2FB71FB79DBB203F05003CE
:1024D800DAB2244B1A70244B07221A6009E0224B07
:1024E8001B685A1E204B1A60FB79DBB25B00DBB21B
:1024F800FB71FB79DBB2DBB25BB2002BEFDB1A4B73
:102508001B681A02184B1A60174B1B6803F4E06229
:10251800154B1A60BB68DAB2FB681A70134B134A82
:10252800126842F470021A60104B104A126842F0A6
:1025380070421A6000F0A6F80D4B00221A6000F0F5
:10254800B3F80C4B0B4A126842F040421A60FFF78E
:102558009DFFFFF77BFF002318461037BD4680BD5F
:1025680000E400E0544500205845002020ED00E03C
:102578000800002034EF00E080B400AF054B4FF0B6
:1025880080521A60BFF34F8FBFF36F8FBD465DF85F
:10259800047B704704ED00E080B500AF00F024F83C
:1025A800044B1B685A1C034B1A60BFF34F8FBFF3D1
:1025B8006F8F80BD0800002080B500AF094B1B68F5
:1025C800002B02D100F010F8FEE7064B1B685A1EDC
:1025D800044B1A60034B1B68002B02D1002000F04B
:1025E8000DF880BD08000020EFF311804FF0500176
:1025F80081F3118870470023184600BF80F31188C3
:10260800704700BFEFF30980BFF36F8F124B1A6852
:102618001EF0100F08BF20ED108A20E9F04F10605F
:102628004DF8043D4FF0500080F31188FEF77EFF0F
:102638004FF0000080F3118808BC19680868B0E8FA
:10264800F04F1EF0100F08BFB0EC108A80F3098815
:10265800BFF36F8F704700BF0C00002080B500AF3C
:10266800FFF7C2FFFEF7AAFE0346002B03D0044B78
:102678004FF080521A600020FFF7C0FF80BD00BFF6
:1026880004ED00E080B400AF044B054A1A60054B26
:1026980007221A60BD465DF8047B704714E000E02D
:1026A8003F90020010E000E0DFF80C00016841F400
:1026B800700101607047000088ED00E080B582B0CD
:1026C80000AFEFF305837B607B680F2B0CD90D4AB5
:1026D8007B6813441B78FB700B4B1B78FA789A4283
:1026E80002D2FFF781FFFEE7084B1B6803F4E062A4
:1026F800074B1B689A4202D9FFF776FFFEE70837B7
:10270800BD4680BDF0E300E0544500200CED00E03C
:1027180058450020032A70B428D940EA01039B07D2
:1027280013D005780C78A54224D1013A002305E09E
:1027380010F8015F11F8014FA5421BD1934203F134
:102748000103F5D1002070BC70470C46034625688C
:102758001E68AE422146184604F1040403F104033E
:1027680004D1043A032A18462146F0D8002AD8D1C1
:102778001046E8E7281B70BC704700BF844641EA52
:10278800000313F003036DD1403A41D351F8043BE1
:1027980040F8043B51F8043B40F8043B51F8043B33
:1027A80040F8043B51F8043B40F8043B51F8043B23
:1027B80040F8043B51F8043B40F8043B51F8043B13
:1027C80040F8043B51F8043B40F8043B51F8043B03
:1027D80040F8043B51F8043B40F8043B51F8043BF3
:1027E80040F8043B51F8043B40F8043B51F8043BE3
:1027F80040F8043B51F8043B40F8043B51F8043BD3
:1028080040F8043B51F8043B40F8043B403ABDD241
:10281800303211D351F8043B40F8043B51F8043BE3
:1028280040F8043B51F8043B40F8043B51F8043BA2
:1028380040F8043B103AEDD20C3205D351F8043B72
:1028480040F8043B043AF9D2043208D0D2071CBF3E
:1028580011F8013B00F8013B01D30B880380604667
:10286800704700BF082A13D38B078DD010F00303DD
:102878008AD0C3F10403D21ADB071CBF11F8013B4D
:1028880000F8013B80D331F8023B20F8023B7BE79C
:10289800043AD9D3013A11F8013B00F8013BF9D2C7
:1028A8000B7803704B7843708B7883706046704761
:1028B800F0B4840743D0541E002A3ED0CDB203465C
:1028C80003E0621E002C38D0144603F8015B9A0717
:1028D800F7D1032C2AD9CDB245EA05250F2C45EAB4
:1028E800054515D9A4F110073F0903F1100606EBB9
:1028F80007161A46156055609560D5601032B242C9
:10290800F8D104F00F040137032C03EB07130DD99A
:102918001E462246043A032A46F8045BFAD8221FC8
:1029280022F003020432134404F003042CB1C9B2A8
:102938001C4403F8011BA342FBD1F0BC70471446AA
:102948000346C6E75461736B2031000049444C4587
:1029580000000000A5A5A5A5A5A5A5A5A5A5A5A5B3
:10296800A5A5A5A5A5A5A5A5546D722053766300B8
:08297800546D725100000000D3
:0C298000FFFFFFFFF8430000AAAAAAAA6C
:040000050800018965
:00000001FF
