:020000040800F2
:1000000000000220890100083902000841020008AE
:1000100049020008510200085902000800000000CF
:100020000000000000000000000000008938000807
:100030006902000800000000213A0008793A00082F
:1000400031020008310200083102000831020008C4
:1000500031020008310200083102000831020008B4
:1000600031020008310200083102000831020008A4
:100070003102000831020008310200083102000894
:100080003102000831020008310200083102000884
:100090003102000831020008310200083102000874
:1000A0003102000831020008310200083102000864
:1000B0003102000831020008310200083102000854
:1000C0003102000831020008310200083102000844
:1000D000310200083904000831020008310200082A
:1000E000C103000831020008310200083102000893
:1000F0003102000831020008310200083102000814
:100100003102000831020008310200083102000803
:1001100031020008310200083102000831020008F3
:1001200031020008310200083102000831020008E3
:1001300031020008310200083102000831020008D3
:1001400031020008310200083102000831020008C3
:1001500031020008310200083102000831020008B3
:1001600031020008310200083102000831020008A3
:100170003102000831020008310200083102000893
:10018000310200083102000880B584B000AF0D4B89
:10019000BB600D4B7B60BB683B6004E03B681A1D95
:1001A0003A6000221A607A683B689A42F6D800F0FA
:1001B00097FB00F0BDF8F86000F0C8FBF86800F0AD
:1001C000E3FB00BF94080020DC4E002080B584B023
:1001D00000AF0D4BFB600D4BBB600D4B7B60BB68F4
:1001E0003B6007E03B681A1D3A60FA68111DF96030
:1001F00012681A607A683B689A42F3D800F0CAFB2A
:100200001037BD4680BD00BFA48800080000002054
:100210009408002080B400AFDFF81000016841F4BA
:1002200070010160BD465DF8047B704788ED00E019
:1002300080B400AFFEE700BF80B400AFFEE700BFB0
:1002400080B400AFFEE700BF80B400AFFEE700BFA0
:1002500080B400AFFEE700BF80B400AFFEE700BF90
:1002600080B400AFFEE700BF80B400AFFEE700BF80
:1002700080B400AFFEE700BF80B400AFFEE700BF70
:08028000CD0100081502000881
:1002880080B582B000AF78604FF47A7002F0FEF863
:1002980002484FF4004100F0E5FFF5E7000C02408A
:1002A80080B582B000AF78604FF4FA7002F0EEF8D3
:1002B800164B1B88164817491A4603F053FD164873
:1002C800134900F0DDF8114B5B88114813491A46B1
:1002D80003F048FD10480E4900F0D2F80B4B9B88FC
:1002E8000B480F491A4603F03DFD0B48084900F03A
:1002F800C7F8064BDB8806480A491A4603F032FD60
:100308000548034900F0BCF8CEE700BF904E002036
:100318002C4E0020848600080010014094860008B6
:10032800A4860008B486000880B584B004AF00F045
:1003380071F900F0E7F900F0C5F900F039FA00F0BA
:10034800C3F81648164900F09BF80A20332100220A
:1003580001F042FC0246134B1A600123009300236C
:10036800019300230293002303930F480F4980222F
:10037800002301F0D7FF01230093002301930023FA
:100388000293002303930A480A494FF4807200231A
:1003980001F0C8FF02F03EF9FEE700BF001001407F
:1003A800C8860008204E002089020008E086000860
:1003B800A9020008EC86000880B500AF4FF4806001
:1003C80000F074FE0346002B11D04FF4806000F05B
:1003D80087FE134B1B78002B21D1124B1B68184644
:1003E800012102F085F80E4B01221A7017E04FF434
:1003F800004000F05BFE0346002B10D04FF4004095
:1004080000F06EFE084B1B78002B08D1074B1B68C9
:100418001846012102F06CF8034B01221A7080BDC6
:1004280094080020284E002095080020244E002023
:1004380080B582B000AF0A4840F2255101F06AFA4F
:100448000346002B09D0064B9B889BB2DBB2FB719D
:10045800FB1D0348194600F013F80837BD4680BD58
:100468000010014080B582B000AF7860396003F0B9
:10047800C5FAFEE780B500AF03F0C0FAFEE700BF9B
:1004880080B582B000AF7860396014E000BF7B6847
:100498001B889BB203F04003002BF8D03B681B7805
:1004A800DBB25BB29BB27868194601F0D9F93B68B8
:1004B8005A1C3A601B783B681B78DBB2002BE5D1ED
:1004C8000837BD4680BD00BF80B59CB000AF4FF473
:1004D8008070012101F004F84FF48000012100F040
:1004E800C3FF0120012100F0BFFF1E23BB660323C9
:1004F80087F86C30002387F86F30032387F86D3056
:1005080007F168033E48194600F0F8FD00233B65F3
:10051800012387F85430012387F855300023BB6541
:100528000023FB6500233B66042387F8643007F14A
:1005380050033448194600F035FB00233B64002380
:100548007B640023BB640023FB6407F14003184667
:1005580000F07CFB2B4801210122002300F0BAFBAC
:10056800284802210222002300F0B4FB2548032179
:100578000322002300F0AEFB2248042104220023BA
:1005880000F0A8FB00237B601F4BFB601F4BBB6088
:1005980000233B6104237B610023BB614FF480632C
:1005A800FB614FF400633B624FF400537B624FF4EE
:1005B8008073BB624FF40033FB6204233B63012367
:1005C8007B630023BB630023FB633B1D1048194674
:1005D80000F08CFC0E48012100F0DEFC09480121E6
:1005E80000F068FC0748012100F048FC054801219B
:1005F80000F054FB034800F031FC7037BD4680BD65
:100608000000024000200140904E00204C20014094
:100618007064024080B584B000AF0820012100F06A
:1006280023FF4FF47043BB6001233B730023BB736C
:1006380003237B730023FB7307F108031F48194644
:1006480000F05CFD1D484FF47041002200F0F2FDFF
:100658000120012100F008FF01233B7104233B60C6
:100668003B461748194600F049FD00233B714FF4FB
:1006780080633B603B461248194600F03FFD104836
:10068800042100F0C9FD01233B7108233B603B4670
:100698000B48194600F032FD00233B714FF400432C
:1006A8003B603B460648194600F028FD04480821EF
:1006B80000F0B2FD1037BD4680BD00BF000C0240FF
:1006C8000000024080B584B000AF0120012100F095
:1006D800E9FE5323BB800023BB816FF00103BB609D
:1006E8000023BB730023FB803B1D4FF0804019465D
:1006F80000F052FF4FF08040012100F0B7FF1037A3
:10070800BD4680BD80B588B000AF0220012100F051
:10071800ABFE1020012100F0E3FEC023BB610223E1
:100728003B770123FB770023BB7702237B7707F115
:1007380018031D48194600F0E1FC1B480621072252
:1007480000F0A2FD18480721072200F09DFD4FF494
:10075800E133BB600023BB810023FB8100233B8284
:100768000023BB820C237B8207F108030F4819463C
:1007780000F09CFF0D4840F22551012201F082F85B
:1007880025233B7100237B710023BB710123FB717F
:100798003B1D184600F0A8F90448012101F040F873
:1007A8002037BD4680BD00BF000402400010014054
:1007B80080B586B000AF0120012100F055FE4FF44E
:1007C8008040012100F08CFE4FF48063BB60002361
:1007D8003B730123FB7303237B7307F1080323484F
:1007E800194600F08BFC00200A2100F097FE4FF418
:1007F8000043BB6000233B730123FB7303237B731C
:1008080007F108031948194600F078FC00200F2169
:1008180000F084FE4FF480633B6100233B75102396
:100828007B750123BB7507F11003184600F0D0FB58
:100838004FF400433B6100233B7510237B75012374
:10084800BB7507F11003184600F0C2FB28233B7163
:100858000F237B710F23BB710123FB713B1D1846CE
:1008680000F042F91837BD4680BD00BF00000240C5
:1008780080B584B000AF7860144B1B68002B02D1A0
:10088800124B134A1A60114B1B68FB607B680333D9
:1008980023F003037B600D4B1A687B681A440D4BE9
:1008A8009A4207D903F040F903460C221A604FF028
:1008B800FF3306E0054B1A687B681A44034B1A603D
:1008C800FB6818461037BD4680BD00BF9808002059
:1008D800DC4E002000FC012080B582B000AF154A34
:1008E800154BD31A9B103B6000237B6007E0124B2B
:1008F8007A6853F8223098477B6801337B607A68BE
:100908003B689A42F3D30D4A0D4BD31A9B103B60B8
:1009180000237B6007E00A4B7A6853F82230984737
:100928007B6801337B607A683B689A42F3D3083767
:10093800BD4680BD880200088002000888020008C1
:100948008802000880B582B000AF0B4A0B4BD31A5F
:100958009B103B603B687B6008E07B685A1E074B36
:1009680053F8223098477B68013B7B607B68002BFB
:10097800F3D10837BD4680BD880200088802000808
:1009880080B483B000AF7860FEE700BF80B500AFE9
:10099800154B154AD2F8882042F47002C3F8882013
:1009A800124B124A126842F001021A600F4B0022E1
:1009B8009A600E4A0D4B1B6823F0847323F480332E
:1009C80013600A4B0A4A5A60084B084A126822F414
:1009D80080221A60054B0022DA6000F00BF8024B07
:1009E8004FF000629A6080BD00ED00E000380240E0
:1009F8001030002480B483B000AF00237B60002354
:100A08003B60354B344A126842F480321A60324BEC
:100A18001B6803F400333B607B6801337B603B68F1
:100A2800002B03D17B68B3F5A04FF0D12A4B1B688C
:100A380003F40033002B02D001233B6001E00023C4
:100A48003B603B68012B42D1234B234A126C42F096
:100A580080521A64214B214A126842F440421A60BB
:100A68001D4B1D4A92689A601B4B1B4A926842F4C0
:100A780000429A60184B184A926842F4A0529A6051
:100A8800154B174A5A60144B134A126842F0807289
:100A98001A6000BF104B1B6803F00073002BF9D0DD
:100AA800104B40F205721A600B4B0B4A926822F009
:100AB80003029A60084B084A926842F002029A6060
:100AC80000BF054B9B6803F00C03082BF9D10C37CA
:100AD800BD465DF8047B7047003802400070004056
:100AE80008544007003C024080B485B000AF7860ED
:100AF8000023FB730023BB730F237B737B68DB78B6
:100B0800002B37D0254BDB68DB4303F4E0631B0A7B
:100B1800FB73FB7BC3F10403BB737A7BFB7B42FA59
:100B280003F37B737B685B781A46BB7B02FA03F39B
:100B3800FB737B689A787B7B1340DAB2FB7B1343A9
:100B4800FB73FB7B1B01FB73154A7B681B78134403
:100B5800FA7B83F80023124B7A6812785209D2B2D2
:100B68007968097801F01F01012000FA01F143F8C2
:100B780022100EE00A4B7A6812785209D2B27968CC
:100B8800097801F01F01012000FA01F1203243F831
:100B980022101437BD465DF8047B704700ED00E075
:100BA80000E100E080B485B000AF786039600023D0
:100BB800FB600023FB727B685B68FB60FB6823F0CB
:100BC800407323F48073FB603B681B791A023B680F
:100BD8001B681343FA681343FB607B68FA685A6022
:100BE8007B689B68FB60FA68174B1340FB603B68A7
:100BF8001A693B68DB681A433B689B681A433B6881
:100C08005B795B001343FA681343FB607B68FA68FF
:100C18009A607B68DB6AFB60FB6823F47003FB6007
:100C28003B681B7D013BDAB2FB7A1343FB72FB7A0C
:100C38001B05FA681343FB607B68FA68DA621437AD
:100C4800BD465DF8047B7047FDF7FFC080B485B0F2
:100C580000AF78600023FB600E4B5B68FB60FA68AE
:100C68000D4B1340FB607B681A687B685B681A430E
:100C78007B689B681A437B68DB681343FA681343F5
:100C8800FB60044BFA685A601437BD465DF8047B74
:100C9800704700BF00230140E030FCFF80B483B000
:100CA80000AF78600B46FB70FB78002B06D07B68A2
:100CB8009B6843F001027B689A6005E07B689B684B
:100CC80023F001027B689A600C37BD465DF8047B0F
:100CD800704700BF80B485B000AF7860F970BA7013
:100CE8007B700023FB600023BB60FB78092B23D9B2
:100CF8007B68DB68FB60FB78A3F10A0213465B00A4
:100D08001344072202FA03F3BB60BB68DB43FA68AB
:100D18001340FB607978FB78A3F10A0213465B0065
:100D2800134401FA03F3BB60FA68BB681343FB6022
:100D38007B68FA68DA601EE07B681B69FB60FA78FA
:100D480013465B001344072202FA03F3BB60BB6837
:100D5800DB43FA681340FB607978FA7813465B0046
:100D6800134401FA03F3BB60FA68BB681343FB60E2
:100D78007B68FA681A61BB78062B21D87B685B6BA5
:100D8800FB60BB785A1E13469B0013441F2202FACD
:100D980003F3BB60BB68DB43FA681340FB60F97878
:100DA800BB785A1E13469B00134401FA03F3BB6039
:100DB800FA68BB681343FB607B68FA685A6347E0CC
:100DC800BB780C2B21D87B681B6BFB60BB78DA1FC8
:100DD80013469B0013441F2202FA03F3BB60BB684F
:100DE800DB43FA681340FB60F978BB78DA1F1346D7
:100DF8009B00134401FA03F3BB60FA68BB68134312
:100E0800FB607B68FA681A6322E07B68DB6AFB6038
:100E1800BB78A3F10D0213469B0013441F2202FA6C
:100E280003F3BB60BB68DB43FA681340FB60F978E7
:100E3800BB78A3F10D0213469B00134401FA03F398
:100E4800BB60FA68BB681343FB607B68FA68DA62C8
:100E58001437BD465DF8047B704700BF80B483B08B
:100E680000AF78607B689B6843F080427B689A603B
:100E78000C37BD465DF8047B704700BF80B483B073
:100E880000AF78600B46FB70FB78002B06D07B68C0
:100E98009B6843F480727B689A6005E07B689B6876
:100EA80023F480727B689A600C37BD465DF8047B3A
:100EB800704700BF80B483B000AF78600B46FB700A
:100EC800FB78002B06D07B689B6843F400727B6834
:100ED8009A6005E07B689B6823F400727B689A60DF
:100EE8000C37BD465DF8047B704700BF80B485B001
:100EF80000AF786039600023FB607B681B68FB608B
:100F0800FA68244B1340FB603B681A683B68DB684F
:100F18001A433B685B691A433B689B691A433B6801
:100F2800DB691A433B681B6A1A433B685B6A1A43CE
:100F38003B689B6A1A433B685B6B1A433B689B6B35
:100F48001343FA681343FB607B68FA681A607B688E
:100F58005B69FB60FB6823F00703FB603B68DA6AA8
:100F68003B681B6B1343FA681343FB607B68FA68A2
:100F78005A613B681A697B685A603B685A687B68A3
:100F88009A603B689A687B68DA601437BD465DF8FA
:100F9800047B70473F801CF080B483B000AF78605A
:100FA8000B46FB70FB78002B06D07B681B6843F070
:100FB80001027B681A6005E07B681B6823F0010268
:100FC8007B681A600C37BD465DF8047B704700BF2C
:100FD80080B485B000AF78600023FB60324BFB60C3
:100FE8007B689B79002B4DD02F4B2F4A11687A686C
:100FF8001268D2430A401A602B4B2B4A51687A6810
:101008001268D2430A405A607B681B79FA68134415
:10101800FB60FB68FA6811687A6812680A431A600C
:10102800214B214A91687A681268D2430A409A6033
:101038001D4B1D4AD1687A681268D2430A40DA60AB
:101048007B685B79102B0ED1174B174A91687A6829
:1010580012680A439A60144B134AD1687A68126876
:101068000A43DA601BE0104BFB607B685B79FA6827
:101078001344FB60FB68FA6811687A6812680A43CF
:101088001A600CE07B681B79FA681344FB60FB6804
:10109800FA6811687A681268D2430A401A601437ED
:1010A800BD465DF8047B7047003C014080B485B0C4
:1010B80000AF78600023FB73084B5A697B681340C4
:1010C800002B02D00123FB7301E00023FB73FB7BA1
:1010D80018461437BD465DF8047B7047003C014054
:1010E80080B483B000AF7860034B7A685A610C37DC
:1010F800BD465DF8047B7047003C014080B487B072
:1011080000AF7860396000237B6100233B610023D6
:10111800FB6000237B6176E07B69012202FA03F31E
:101128003B613B681A683B691340FB60FA683B699E
:101138009A4265D17B681A687B695B00032101FAD2
:1011480003F3DB431A407B681A607B681A683B68C4
:101158001B7919467B695B0001FA03F31A437B6824
:101168001A603B681B79012B03D03B681B79022B63
:101178002ED17B689A687B695B00032101FA03F32F
:10118800DB431A407B689A607B689A683B685B79A6
:1011980019467B695B0001FA03F31A437B689A607E
:1011A8007B685A687B699BB2012101FA03F3DB4330
:1011B8001A407B685A607B685A683B689B79194675
:1011C8007B699BB201FA03F39BB21A437B685A60AE
:1011D8007B68DA687B699BB25B00032101FA03F341
:1011E800DB431A407B68DA607B68DA683B68DB7946
:1011F80019467B695B0001FA03F31A437B68DA60DE
:101208007B6901337B617B690F2B85D91C37BD4610
:101218005DF8047B704700BF80B483B000AF78608E
:101228000B467B807B687A885A830C37BD465DF80D
:10123800047B704780B483B000AF786013460A46D9
:101248007A807B707B78002B03D07B687A881A833E
:1012580002E07B687A885A830C37BD465DF8047BC8
:10126800704700BF80B483B000AF78600B467B80C6
:101278007B685A697B885A407B685A610C37BD463F
:101288005DF8047B704700BF80B485B000AF78601C
:1012980013460A467A807B700023FB600023BB60FC
:1012A8007A787B8803F007039B0002FA03F3FB605C
:1012B8007B88DB089BB21A467B88DB089BB2194601
:1012C8007B68083153F821107B8803F007039B00E3
:1012D8000F2000FA03F3DB4319407B68083243F818
:1012E80022107B88DB089BB21A467B68083253F8C9
:1012F8002220FB681343BB607B88DB089BB21A463D
:101308007B680832B96843F822101437BD465DF887
:10131800047B704780B489B000AF78600023BB615C
:1013280000237B610023FB6102233B610023FB60F8
:101338000223BB60484B9B6803F00C03BB61BB698D
:10134800042B07D0082B09D0002B3FD17B68434AD8
:101358001A603FE07B68424A1A603BE03E4B5B689C
:1013680003F480039B0DFB603B4B5B6803F03F037A
:10137800BB60FB68002B0DD0394ABB68B2FBF3F2A7
:10138800354B596847F6C0730B409B0903FB02F3C2
:10139800FB610CE0314ABB68B2FBF3F22E4B596893
:1013A80047F6C0730B409B0903FB02F3FB612A4B12
:1013B8005B6803F440331B0C01335B003B61FA6943
:1013C8003B69B2FBF3F27B681A6003E07B68234A4F
:1013D8001A6000BF204B9B6803F0F003BB61BB6938
:1013E8001B09BB611F4ABB6913441B78DBB27B61D5
:1013F8007B681A687B69DA407B685A60164B9B6881
:1014080003F4E053BB61BB699B0ABB61154ABB6926
:1014180013441B78DBB27B617B685A687B69DA40CE
:101428007B689A600C4B9B6803F46043BB61BB69A3
:101438005B0BBB610B4ABB6913441B78DBB27B6156
:101448007B685A687B69DA407B68DA602437BD4676
:101458005DF8047B704700BF003802400024F400A8
:1014680000127A000000002080B483B000AF7860DA
:101478000B46FB70FB78002B06D0094B084A116B12
:101488007A680A431A6306E0054B054A116B7A68C5
:10149800D2430A401A630C37BD465DF8047B704797
:1014A8000038024080B483B000AF78600B46FB7010
:1014B800FB78002B06D0094B084A116C7A680A435E
:1014C8001A6406E0054B054A116C7A68D2430A4053
:1014D8001A640C37BD465DF8047B7047003802403B
:1014E80080B483B000AF78600B46FB70FB78002BAC
:1014F80006D0094B084A516C7A680A435A6406E0D8
:10150800054B054A516C7A68D2430A405A640C3735
:10151800BD465DF8047B70470038024090B484B043
:1015280000AF02460B46FA71BB710023FB60BB7922
:1015380003F003039B000F2202FA03F3FB60154B31
:10154800BA799208D2B21349B8798008C0B2023089
:1015580051F82000F968C9430140023243F82210CB
:101568000C4BBA799208D2B20A49B8798008C0B24D
:10157800023051F82000FC79B97901F003018900A3
:1015880004FA01F10143023243F822101037BD4634
:1015980090BC70470038014080B485B000AF7860D7
:1015A80039600023FB817B681B88FB817A68284BA4
:1015B8009A4213D07A68274B9A420FD07B68B3F1CE
:1015C800804F0BD07A68244B9A4207D07A68234B15
:1015D8009A4203D07A68224B9A4208D1FB8923F0B9
:1015E8007003FB813B685A88FB891343FB817A6847
:1015F8001C4B9A420CD07A681B4B9A4208D0FB8944
:1016080023F44073FB813B681A89FB891343FB81F0
:101618007B68FA891A803B685A687B68DA623B689B
:101628001A887B681A857A68094B9A4203D07A68C7
:10163800084B9A4204D13B689B7A1A467B681A8603
:101648007B6801229A821437BD465DF8047B704797
:101658000000014000040140000400400008004070
:10166800000C0040001000400014004080B483B01B
:1016780000AF78600B46FB70FB78002B08D07B68C6
:101688001B889BB243F001039AB27B681A8007E07B
:101698007B681B889BB223F001039AB27B681A808F
:1016A8000C37BD465DF8047B704700BF80B58AB033
:1016B80000AF7860396000237B6200233B6200231F
:1016C800FB610023BB617B681B8A9BB27B627B6AE0
:1016D80023F440537B623B68DB887A6A13437B625E
:1016E8007B6A9AB27B681A827B689B899BB27B6211
:1016F8007B6A23F4B05323F00C037B623B689A881F
:101708003B681B8913439AB23B685B8913439BB2BE
:101718007A6A13437B627B6A9AB27B689A817B6898
:101728009B8A9BB27B627B6A23F440737B623B6833
:101738009B897A6A13437B627B6A9AB27B689A8236
:1017480007F108031846FFF7E5FD7A68314B9A421E
:1017580003D07A68304B9A4202D17B693B6201E040
:101768003B693B627B689B899BB29BB21BB2002B97
:101778000CDA3A6A13469B0013449A001A443B68F1
:101788001B685B00B2FBF3F3FB610BE03A6A13469C
:101798009B0013449A001A443B681B689B00B2FBE9
:1017A800F3F3FB61FA691D4BA3FB02135B091B01F1
:1017B8007B627B6A1B09642202FB03F3FA69D31A72
:1017C800BB617B689B899BB29BB21BB2002B0DDA75
:1017D800BB69DB0003F13202104BA3FB02135B0968
:1017E80003F007037A6A13437B620CE0BB691B01B1
:1017F80003F13202094BA3FB02135B0903F00F0349
:101808007A6A13437B627B6A9AB27B681A812837AB
:10181800BD4680BD00100140001401401F85EB51FA
:1018280080B483B000AF78600B46FB70FB78002B68
:1018380008D07B689B899BB243F400539AB27B68BB
:101848009A8107E07B689B899BB223F400539AB284
:101858007B689A810C37BD465DF8047B704700BFF2
:1018680080B483B000AF78600B467B807B88C3F37D
:1018780008039AB27B689A800C37BD465DF8047BF2
:10188800704700BF80B487B000AF786013460A463F
:101898007A807B7000233B610023FB600023BB60E0
:1018A80000237B617B687B617B88DBB25B09DBB2F1
:1018B8003B617B8803F01F03FB60FB68012202FA8F
:1018C80003F3BB603B69012B03D17B690C337B615C
:1018D80009E03B69022B03D17B6910337B6102E08D
:1018E8007B6914337B617B78002B06D07B697A692E
:1018F8001168BA680A431A6006E07B697A69116858
:10190800BA68D2430A401A601C37BD465DF8047BAA
:10191800704700BF80B487B000AF78600B467B800B
:101928000023FB6000237B610023BB600023FB7462
:101938007B88DBB25B09DBB2BB607B8803F01F03EB
:101948007B617B69012202FA03F37B61BB68012B8F
:1019580006D17B689B899BB27A6913407B610FE053
:10196800BB68022B06D17B681B8A9BB27A6913403D
:101978007B6105E07B689B8A9BB27A6913407B6137
:101988007B881B0A9BB2FB60FB68012202FA03F307
:10199800FB607B681B889BB2FA681340FB607B691D
:1019A800002B05D0FB68002B02D00123FB7401E05B
:1019B8000023FB74FB7C18461C37BD465DF8047B8E
:1019C800704700BF80B483B000AF78607B6803F1D4
:1019D80008027B685A607B684FF0FF329A607B6828
:1019E80003F108027B68DA607B6803F108027B6810
:1019F8001A617B6800221A600C37BD465DF8047BCB
:101A0800704700BF80B483B000AF78607B68002265
:101A18001A610C37BD465DF8047B704780B485B009
:101A280000AF786039607B685B68FB603B68FA6888
:101A38005A60FB689A683B689A60FB689B683A68DA
:101A48005A60FB683A689A603B687A681A617B68F2
:101A58001B685A1C7B681A601437BD465DF8047B06
:101A6800704700BF80B485B000AF786039603B68CC
:101A78001B68BB60BB68B3F1FF3F03D17B681B6980
:101A8800FB600CE07B680833FB6002E0FB685B6886
:101A9800FB60FB685B681A68BB689A42F6D9FB680A
:101AA8005A683B685A603B685B683A689A603B686A
:101AB800FA689A60FB683A685A603B687A681A6103
:101AC8007B681B685A1C7B681A601437BD465DF832
:101AD800047B704780B485B000AF78607B681B6971
:101AE800FB607B685B687A6892689A607B689B6831
:101AF8007A6852685A60FB685A687B689A4203D1D0
:101B08007B689A68FB685A607B6800221A61FB68E8
:101B18001B685A1EFB681A60FB681B681846143756
:101B2800BD465DF8047B704780B584B000AF78602F
:101B380039607B68FB60FB68002B02D101F05EFF17
:101B4800FEE701F033FFFB681A68FB68DB6BF96896
:101B5800096C01FB03F31A44FB685A60FB68002216
:101B68009A63FB681A68FB689A60FB681A68FB68E6
:101B7800DB6B013BF968096C01FB03F31A44FB6852
:101B8800DA60FB684FF0FF325A64FB684FF0FF32AF
:101B98009A643B68002B0ED1FB681B69002B14D09C
:101BA800FB681033184600F0A3FF0346012B0CD145
:101BB80001F0ECFE09E0FB6810331846FFF702FF5E
:101BC800FB6824331846FFF7FDFE01F0FFFE0123F2
:101BD80018461037BD4680BD80B588B000AFF860A4
:101BE800B9601346FB710023FB61FB68002B2AD008
:101BF800542001F011FDB861BB69002B23D0FB68AC
:101C0800BA6802FB03F301337B61786901F004FDD4
:101C18000246BB691A60BB691B68002B10D0BB6900
:101C2800FA68DA63BB69BA681A64B8690121FFF710
:101C38007BFFBB69FA7983F85020BB69FB6102E03E
:101C4800B86901F07BFDFB69002B02D101F0D6FEDB
:101C5800FEE7FB6918462037BD4680BD80B588B0D1
:101C680000AFF860B9607A603B600023FB61FB68F5
:101C7800BB61BB69002B02D101F0C0FEFEE7BB6867
:101C8800002B03D1BB691B6C002B01D1012300E0A1
:101C98000023002B02D101F0B1FEFEE73B68022BC6
:101CA80003D1BB69DB6B012B01D1012300E00023C9
:101CB800002B02D101F0A2FEFEE701F067F903460E
:101CC800002B02D17B68002B01D1012300E0002307
:101CD800002B02D101F092FEFEE701F067FEBB691E
:101CE8009A6BBB69DB6B9A4202D33B68022B16D115
:101CF800B869B9683A6800F0B9F9BB695B6A002B42
:101D080009D0BB692433184600F0F2FE0346012BC4
:101D180001D101F03BFE01F059FE012359E07B6837
:101D2800002B03D101F052FE002352E0FB69002B87
:101D380006D107F11003184600F036FF0123FB61B6
:101D480001F044FE00F09EFC01F030FEBB695B6CC4
:101D5800B3F1FF3F02D1BB6900225A64BB699B6C97
:101D6800B3F1FF3F02D1BB6900229A6401F02EFE55
:101D780007F110023B1D1046194600F02FFF0346DD
:101D8800002B1ED1B86900F061FA0346002B12D06F
:101D9800BB6903F110027B681046194600F04AFE41
:101DA800B86900F0F1F900F07BFC0346002B0FD175
:101DB80001F0ECFD0CE0B86900F0E6F900F070FC09
:101DC8008BE7B86900F0E0F900F06AFC002300E056
:101DD80083E718462037BD4680BD00BF80B588B070
:101DE80000AFF860B9607A603B60FB68BB61BB69B3
:101DF800002B02D101F002FEFEE7BB68002B03D1E5
:101E0800BB691B6C002B01D1012300E00023002BD0
:101E180002D101F0F3FDFEE73B68022B03D1BB6959
:101E2800DB6B012B01D1012300E00023002B02D141
:101E380001F0E4FDFEE701F04BFE01F0DFFD786103
:101E4800BB699A6BBB69DB6B9A4202D33B68022B76
:101E580024D1B869B9683A6800F008F9BB699B6C85
:101E6800B3F1FF3F12D1BB695B6A002B13D0BB698A
:101E78002433184600F03CFE0346002B0BD07B6849
:101E8800002B08D07B6801221A6004E0BB699B6CB8
:101E98005A1CBB699A640123FB6101E00023FB61C2
:101EA800786901F0B5FDFB6918462037BD4680BD4D
:101EB80080B58AB000AFF860B9607A603B600023F3
:101EC8007B62FB683B623B6A002B02D101F096FD06
:101ED800FEE7BB68002B03D13B6A1B6C002B01D1CA
:101EE800012300E00023002B02D101F087FDFEE76B
:101EF80001F04CF80346002B02D17B68002B01D17E
:101F0800012300E00023002B02D101F077FDFEE75A
:101F180001F04CFD3B6A9B6B002B3BD03B6ADB68B6
:101F2800FB61386AB96800F009F93B68002B1CD1DD
:101F38003B6A9B6B5A1E3B6A9A633B6A1B68002B81
:101F480004D101F013F802463B6A5A603B6A1B69E8
:101F5800002B1BD03B6A1033184600F0C9FD03461E
:101F6800012B13D101F012FD10E03B6AFA69DA6027
:101F78003B6A5B6A002B09D03B6A2433184600F0A1
:101F8800B7FD0346002B01D001F000FD01F01EFD56
:101F9800012366E07B68002B03D101F017FD0023C5
:101FA8005FE07B6A002B06D107F11403184600F0A6
:101FB800FBFD01237B6201F009FD00F063FB01F0EA
:101FC800F5FC3B6A5B6CB3F1FF3F02D13B6A002230
:101FD8005A643B6A9B6CB3F1FF3F02D13B6A002213
:101FE8009A6401F0F3FC07F114023B1D10461946F0
:101FF80000F0F4FD0346002B2BD1386A00F010F9ED
:102008000346002B1FD03B6A1B68002B08D101F048
:10201800CDFC3B6A5B68184600F0D6FF01F0D6FCA1
:102028003B6A03F124027B681046194600F002FD62
:10203800386A00F0A9F800F033FB0346002B0FD1F3
:1020480001F0A4FC0CE0386A00F09EF800F028FBD0
:102058005EE7386A00F098F800F022FB002300E001
:1020680056E718462837BD4680BD00BF80B584B006
:1020780000AFF860B9607A60FB681B6C002B0CD16C
:10208800FB681B68002B51D1FB685B68184600F0A1
:10209800F9FFFB6800225A6048E07B68002B1AD1E0
:1020A800FB689A68FB681B6C1046B9681A4601F011
:1020B80075FDFB689A68FB681B6C1A44FB689A609C
:1020C800FB689A68FB685B689A422FD3FB681A68BA
:1020D800FB689A602AE0FB68DA68FB681B6C1046AC
:1020E800B9681A4601F05AFDFB68DA68FB681B6C90
:1020F8005B421A44FB68DA60FB68DA68FB681B68B5
:102108009A4207D2FB685A68FB681B6C5B421A4408
:10211800FB68DA607B68022B08D1FB689B6B002B9D
:1021280004D0FB689B6B5A1EFB689A63FB689B6B29
:102138005A1CFB689A631037BD4680BD80B582B0D3
:1021480000AF786039607B681B68002B19D07B680A
:10215800DA687B681B6C1A447B68DA607B68DA682B
:102168007B685B689A4203D37B681A687B68DA608D
:102178007B68DA687B681B6C386811461A4601F080
:102188000DFD0837BD4680BD80B582B000AF7860D0
:1021980001F00CFC14E07B685B6A002B0AD07B68BA
:1021A8002433184600F0A4FC0346002B03D000F0AB
:1021B80065FD00E008E07B689B6C5A1E7B689A64AA
:1021C8007B689B6C002BE6DC7B684FF0FF329A64DF
:1021D80001F0FCFB01F0EAFB14E07B681B69002BB3
:1021E8000FD07B681033184600F082FC0346002BA2
:1021F80001D000F043FD7B685B6C5A1E7B685A6413
:1022080000E003E07B685B6C002BE6DC7B684FF04A
:10221800FF325A6401F0DAFB0837BD4680BD00BFC3
:1022280080B584B000AF786001F0C0FB7B689B6B21
:10223800002B02D10123FB6001E00023FB6001F0C9
:10224800C5FBFB6818461037BD4680BD80B584B015
:1022580000AF786001F0AAFB7B689A6B7B68DB6B48
:102268009A4202D10123FB6001E00023FB6001F0E8
:10227800ADFBFB6818461037BD4680BD80B485B0FD
:1022880000AF786039600023FB6014E00E4BFA68F9
:1022980053F83230002B0BD10B4BFA68396843F8EE
:1022A8003210094AFB68DB0013447A685A6005E07B
:1022B800FB680133FB60FB68072BE7D91437BD4681
:1022C8005DF8047B704700BF984E002080B584B04D
:1022D80000AF786039607B68FB6001F067FBFB68E2
:1022E8005B6CB3F1FF3F02D1FB6800225A64FB68C4
:1022F8009B6CB3F1FF3F02D1FB6800229A6401F0A6
:1023080065FBFB689B6B002B05D1FB6824331846E3
:10231800396800F0C5FBF868FFF736FF1037BD468F
:1023280080BD00BF80B58AB002AFF860B9603B607D
:102338001346FB80FB68002B02D101F05FFBFEE730
:10234800BB6A042B02D901F059FBFEE7FB8818464B
:10235800396B00F0A5FDB861BB69002B72D0BB6971
:102368001A6BFB8803F18043013B9B0013447B619C
:102378007B6923F007037B617B6903F00703002B6C
:1023880002D001F03BFBFEE7FB880093B869B9680F
:10239800BA6A7B6B00F08EFC7869F9683A6801F0DC
:1023A8002DFA0246BB691A60FB6A002B02D0FB6A51
:1023B800BA691A6001F0FAFA2E4B1B685A1C2D4BA9
:1023C8001A602D4B1B68002B09D12B4BBA691A6078
:1023D800284B1B68012B0FD100F0B4FC0CE0274BF5
:1023E8001B68002B08D1244B1B68DA6ABB6A9A4227
:1023F80002D8214BBA691A60214B1B685A1C204B22
:102408001A601F4B1A68BB691A64BB69DA6A1D4BEC
:102418001B689A4203D9BB69DA6A1A4B1A60BB690E
:10242800DA6A13469B0013449B00174A1A44BB6997
:10243800043310461946FFF7F1FA0123FB6101F056
:10244800C5FA02E04FF0FF33FB61FB69012B0BD1AA
:102458000A4B1B68002B07D0074B1B68DA6ABB6A5C
:102468009A4201D201F092FAFB6918462037BD461C
:1024780080BD00BF740900209C080020800900204E
:10248800940900207C090020A008002080B584B0B1
:1024980000AF78600023FB607B68002B19D0114BDC
:1024A8001B68002B02D001F0A9FAFEE700F0EAF859
:1024B8000D4B1A687B681344BB600C4B1B680433D4
:1024C8001846FFF707FBB86800F0B4FC00F0E8F81E
:1024D800F860FB68002B01D101F058FA1037BD46AF
:1024E80080BD00BF84090020780900209C080020D6
:1024F80080B586B000AF7860396000237B613B68A7
:10250800042B02D901F07AFAFEE73B68042B01D9C3
:1025180004233B6001F04AFA7B68002B02D13A4B56
:102528001B6800E07B683B613B699B6CFB60FA6859
:102538003B689A4262D03A68FB689A420DD9324B9E
:102548001B683A699A420FD02F4B1B68DA6A3B68BE
:102558009A4209D801237B6106E02B4B1B683A6934
:102568009A4201D101237B613B69DB6ABB603B690D
:102578009A6C3B69DB6A9A4202D13B693A68DA6233
:102588003B693A689A643B699B69002B04DB3B68AA
:10259800C3F105023B699A613B695969BA681346F8
:1025A8009B0013449B00194A1344994201D101230B
:1025B80000E00023002B1CD03B6904331846FFF7CA
:1025C80089FA3B69DA6A124B1B689A4203D93B695C
:1025D800DA6A0F4B1A603B69DA6A13469B001344A8
:1025E8009B000A4A1A443B69043310461946FFF710
:1025F80015FA7B69012B01D101F0C8F901F0E6F960
:102608001837BD4680BD00BF9C080020A0080020E8
:102618007C09002080B586B004AF00230093002316
:102628000193002302930023039312481249802246
:102638000023FFF777FE78607B68012B02D100F05A
:1026480063FD78607B68012B0AD101F0D7F90B4B49
:1026580001221A600A4B00221A6001F02FF905E0E6
:102668007B68002B02D101F0C9F9FEE70837BD46A7
:1026780080BD00BF9D2C0008F0860008800900205E
:102688007809002080B400AF044B1B685A1C034B28
:102698001A60BD465DF8047B704700BF84090020BE
:1026A80080B582B000AF00237B60384B1B68002BDD
:1026B80002D101F0A3F9FEE701F078F9334B1B686A
:1026C8005A1E324B1A60314B1B68002B56D1304BC7
:1026D8001B68002B52D02FE02E4BDB68DB683B6079
:1026E8003B6818331846FFF7F5F93B68043318467A
:1026F800FFF7F0F93B68DA6A274B1B689A4203D95F
:102708003B68DA6A244B1A603B68DA6A13469B0016
:1027180013449B00214A1A443B6804331046194667
:10272800FFF77CF93B68DA6A1D4B1B68DB6A9A4243
:1027380002D31C4B01221A60164B1B68002BCBD10D
:10274800194B1B68002B11D00CE000F041F8034630
:10275800002B02D0134B01221A60134B1B685A1E20
:10276800114B1A60104B1B68002BEED10D4B1B68E8
:10277800012B03D101237B6001F008F901F026F950
:102788007B6818460837BD4680BD00BF8409002015
:1027980074090020340900207C090020A0080020CA
:1027A8009C0800208C0900208809002080B582B090
:1027B80000AF01F0FBF8054B1B687B6001F006F9E0
:1027C8007B6818460837BD4680BD00BF78090020E1
:1027D80080B586B000AF00237B614E4B1B68002B91
:1027E80040F087804C4B1B685A1C4B4B1A604A4B75
:1027F8001B683B613B69002B18D1484B1B681B6861
:10280800002B02D001F0FAF8FEE7444B1B68FB608E
:10281800434B1A68414B1A60414BFA681A60414BA6
:102828001B685A1C3F4B1A6000F07CFB3E4B1B6830
:102838003A699A424ED3394B1B681B68002B01D169
:10284800012300E00023002B04D0374B4FF0FF3268
:102858001A603FE0314B1B68DB68DB68BB60BB6814
:102868005B687B603A697B689A4203D22E4B7A6830
:102878001A602FE0BB6804331846FFF72BF9BB68D2
:102888009B6A002B04D0BB6818331846FFF722F95F
:10289800BB68DA6A254B1B689A4203D9BB68DA6AB7
:1028A800224B1A60BB68DA6A13469B0013449B00EC
:1028B8001F4A1A44BB68043310461946FFF7AEF89E
:1028C800BB68DA6A1B4B1B68DB6A9A4201D3012397
:1028D8007B61B0E7174B1B68DA6A154913469B0002
:1028E80013449B000B441B68012B07D901237B6110
:1028F80004E0114B1B685A1C0F4B1A600F4B1B68E6
:10290800002B01D001237B617B6918461837BD462F
:1029180080BD00BF84090020780900202C09002010
:102928003009002090090020100000207C090020B8
:10293800A00800209C080020880900208C0900209D
:1029480080B582B000AF354B1B68002B03D0344BE9
:1029580001221A605EE0324B00221A60314B1B687C
:102968001A68304B1B681B6B9A4208D82D4B1A68A3
:102978002C4B1B68343310461946FDF773FD294B61
:102988001B681B6B18462849142201F0D3F803462C
:10299800002B09D0234B1A68224B1B68343310468E
:1029A8001946FDF75FFD0CE00BE0204B1B68002B80
:1029B80002D101F023F8FEE71C4B1B685A1E1B4B83
:1029C8001A601A4B1A681A4913469B0013449B0055
:1029D8000B441B68002BE8D0144B1A6813469B0065
:1029E80013449B00124A13447B607B685B685A68F7
:1029F8007B685A607B685A687B6808339A4204D1BE
:102A08007B685B685A687B685A607B685B68DA68D1
:102A1800044B1A600837BD4680BD00BF84090020FA
:102A28008C0900209C080020F88600087C090020FA
:102A3800A008002080B584B000AF786039607B685A
:102A4800002B02D100F0DAFFFEE7124B1B681833A7
:102A580078681946FFF706F80E4B1B6804331846CA
:102A6800FFF738F83B68B3F1FF3F07D1094B1B6804
:102A7800043309481946FEF7D1FF07E0074B1A68E7
:102A88003B681344FB60F86800F0D4F91037BD4682
:102A980080BD00BF9C080020600900207809002044
:102AA80080B584B000AF786039607B68002B02D1B4
:102AB80000F0A4FFFEE70C4B1B6818337868194632
:102AC800FEF7ACFF084B1B6804331846FFF702F803
:102AD800064B1A683B681344FB60F86800F0AAF9D3
:102AE8001037BD4680BD00BF9C0800207809002033
:102AF80080B584B000AF78607B68DB68DB68BB605A
:102B0800BB68002B02D100F079FFFEE7BB681833E1
:102B18001846FEF7DFFF1E4B1B68002B1DD1BB6854
:102B280004331846FEF7D6FFBB68DA6A194B1B68F0
:102B38009A4203D9BB68DA6A164B1A60BB68DA6A2C
:102B480013469B0013449B00134A1A44BB68043382
:102B580010461946FEF762FF05E0BB6818330F48B8
:102B68001946FEF75BFFBB68DA6A0D4B1B68DB6A28
:102B78009A4205D90123FB600A4B01221A6001E041
:102B88000023FB60FB6818461037BD4680BD00BFB8
:102B9800840900207C090020A008002034090020B6
:102BA8009C0800208C09002080B582B000AF7860B6
:102BB8007B68002B02D100F021FFFEE7054B1A6865
:102BC8007B681A60044B1A687B685A600837BD46F0
:102BD80080BD00BF900900207809002080B584B02E
:102BE80000AF786039607B68002B02D100F006FFE7
:102BF800FEE73B68002B02D100F000FFFEE700F083
:102C0800D5FE1C4B1B68BB603B681B68B3F1FF3FDC
:102C180002D10023FB6026E07B681A68164B1B680C
:102C28009A4207D07B685A68BB689A4202D8012347
:102C3800FB6018E07B685B68BA68D21A3B681B685F
:102C48009A420ED23B681A687B685968BB68CB1AEF
:102C58001A443B681A607868FFF7A6FF0023FB60F8
:102C680001E00123FB6000F0B1FEFB681846103755
:102C7800BD4680BD780900209009002080B400AFCF
:102C8800034B01221A60BD465DF8047B704700BF04
:102C98008C09002080B582B000AF786000F090F811
:102CA800034B1B68012B01D900F070FEF6E700BF4B
:102CB800A008002080B586B000AFF860B9607A60DF
:102CC8003B6000237B6112E0BA687B6913441A7881
:102CD800F9687B690B4430331A71BA687B6913440D
:102CE8001B78002B00D105E07B6901337B617B6990
:102CF800092BE9D9FB68002283F83D207B68042B67
:102D080001D904237B60FB687A68DA62FB687A6819
:102D18009A64FB6804331846FEF774FEFB681833A0
:102D28001846FEF76FFEFB68FA681A617B68C3F104
:102D38000502FB689A61FB68FA685A621837BD4653
:102D480080BD00BF80B582B000AF00237B600CE07F
:102D58007A6813469B0013449B00114A1344184693
:102D6800FEF730FE7B6801337B607B68042BEFD96C
:102D78000C48FEF727FE0C48FEF724FE0B48FEF72A
:102D880021FE0B48FEF71EFE0A48FEF71BFE0A4B03
:102D9800044A1A60094B044A1A600837BD4680BDC8
:102DA800A008002004090020180900203409002088
:102DB80048090020600900202C0900203009002063
:102DC80080B582B000AF28E0FFF75CFC164B1B68AB
:102DD800002B14BF00230123DBB27B60FFF760FCEC
:102DE8007B68002B19D100F0E1FD0F4BDB68DB6835
:102DF8003B603B6804331846FEF76CFE0B4B1B68C0
:102E08005A1E0A4B1A600A4B1B685A1E084B1A6056
:102E180000F0DCFD386800F075F8054B1B68002BE6
:102E2800D2D10837BD4680BD48090020740900206A
:102E38005C09002080B582B000AF7860134B1B6836
:102E48007A685A60124B1B687A689A4209D2114B09
:102E58001A680E4B1B68043310461946FEF702FE2B
:102E680010E00D4B1A68094B1B68043310461946CD
:102E7800FEF7F8FD094B1B687A689A4202D2074BA5
:102E88007A681A600837BD4680BD00BF9C080020DC
:102E980078090020300900202C09002010000020AB
:102EA80080B584B000AF03463960FB804C2000F049
:102EB800B3FBF860FB68002B1FD03B68002B06D1E2
:102EC800FB889B00184600F0A7FB034600E03B6820
:102ED800FA681363FB681B6B002B05D1F86800F0D8
:102EE8002DFC0023FB6008E0FB681A6BFB889B0045
:102EF8001046A5211A4600F0EBFEFB68184610376D
:102F0800BD4680BD80B582B000AF78607B681B6B22
:102F1800184600F013FC786800F010FC0837BD462E
:102F280080BD00BF80B483B000AF0E4B1B681B6828
:102F3800002B01D1012300E00023002B04D00A4B11
:102F48004FF0FF321A6008E0064B1B68DB68DB684D
:102F58007B607B685A68044B1A600C37BD465DF885
:102F6800047B70472C0900201000002080B483B037
:102F780000AF054B1B687B607B6818460C37BD4665
:102F88005DF8047B704700BF9C08002080B483B0C4
:102F980000AF0B4B1B68002B02D101237B6008E0BC
:102FA800084B1B68002B02D102237B6001E0002341
:102FB8007B607B6818460C37BD465DF8047B70471C
:102FC800800900208409002080B584B000AF7860B3
:102FD8007B68FB607B68002B4AD0FB68DA6A264B6B
:102FE8001B68DB6A9A4243D2FB689B69002B06DBAD
:102FF800214B1B68DB6AC3F10502FB689A61FB6819
:103008005969FB68DA6A13469B0013449B001B4A04
:103018001344994201D1012300E00023002B22D060
:10302800FB6804331846FEF755FD134B1B68DA6A34
:10303800FB68DA62FB68DA6A114B1B689A4203D9AB
:10304800FB68DA6A0E4B1A60FB68DA6A13469B0063
:1030580013449B00094A1A44FB6804331046194676
:10306800FEF7DCFC04E0044B1B68DA6AFB68DA62F2
:103078001037BD4680BD00BF9C080020A008002076
:103088007C09002080B584B000AF78607B68FB6065
:103098007B68002B30D0FB68DA6AFB689B6C9A422D
:1030A8002AD0FB6804331846FEF714FDFB689A6CB7
:1030B800FB68DA62FB689B69002B05DBFB68DB6A4F
:1030C800C3F10502FB689A61FB68DA6A0C4B1B685E
:1030D8009A4203D9FB68DA6A094B1A60FB68DA6A14
:1030E80013469B0013449B00064A1A44FB680433AA
:1030F80010461946FEF792FC1037BD4680BD00BF4A
:103108007C090020A008002080B586B004AF002309
:103118007B6000F045FA0F4B1B68002B0FD0022391
:1031280000930023019300230293002303930A488A
:103138000A494FF480720023FFF7F4F878607B683F
:10314800002B02D100F05AFCFEE77B6818460837CE
:10315800BD4680BDC8090020653200080C870008FC
:1031680080B588B000AFF860B9607A603B60002332
:10317800FB611D4B1B68002B30D0BB683B617B6833
:103188007B61FB68BB613B68002B1CD1FFF7FEFE2F
:103198000346022B0BD1144B1A6807F11003104693
:1031A8001946BA6A0023FEF759FDF86116E00E4B7E
:1031B8001A6807F110031046194600220023FEF78B
:1031C8004DFDF8610AE0084B1A6807F11003104634
:1031D80019463A680023FEF701FEF861FB691846B4
:1031E8002037BD4680BD00BFC809002080B586B025
:1031F80002AF78603960184B1B68DB68DB68FB60DE
:10320800FB6804331846FEF765FCFB68DB69012B95
:103218001BD1FB689A697B681344F86819463A68B9
:103228007B6800F0A7F80346012B0ED1002300931A
:10323800F86800217A680023FFF792FFB860BB683E
:10324800002B02D100F0DAFBFEE7FB685B6AF86846
:1032580098471037BD4680BDC009002080B584B0AE
:1032680000AF786007F10803184600F03FF8F860EF
:10327800BB68F868194600F003F800F0BDF8F1E7FC
:1032880080B584B000AF78603960FFF7FBF907F1CB
:103298000803184600F04EF8F860BB68002B1ED1F2
:1032A8003B68002B0AD17A68FB689A4206D8FFF778
:1032B800F7F97868F968FFF799FF12E00A4B1A687E
:1032C8007968FB68CB1A10461946FEF7FFFFFFF72F
:1032D800E7F90346002B04D100F058FB01E0FFF7A3
:1032E800DFF91037BD4680BDC809002080B485B01D
:1032F80000AF78600E4B1B681B68002B14BF0023BF
:103308000123DBB21A467B681A607B681B68002BB6
:1033180005D1074B1B68DB681B68FB6001E00023D5
:10332800FB60FB6818461437BD465DF8047B7047A0
:10333800C009002080B584B000AF7860FFF736FA86
:10334800F8600B4B1B68FA689A4205D200F0D0F877
:103358007B6801221A6002E07B6800221A60044B35
:10336800FA681A60FB6818461037BD4680BD00BF72
:10337800CC09002080B586B000AFF860B9607A60EB
:103388003B6000237B61FB68BA685A60FB68FA6897
:103398001A61BA687B689A4212D87A683B68D21A6E
:1033A800FB689B699A4202D301237B611BE0104BA7
:1033B8001A68FB68043310461946FEF753FB12E0FF
:1033C8007A683B689A4206D2BA683B689A4202D346
:1033D80001237B6107E0074B1A68FB68043310463A
:1033E8001946FEF73FFB7B6918461837BD4680BD76
:1033F800C4090020C009002080B58AB002AF64E08B
:10340800BB68B3F1FF3F60D03B69FB61FB695B6957
:10341800002B04D0FB6904331846FEF75BFB3B1D09
:103428001846FFF787FFB861BB68032B4CD801A289
:1034380052F823F04D340008D13400089F340008B6
:10344800C9340008FA68FB699B691A44FB68F86983
:103458001146BA69FFF78EFF0346012B1AD1FB69A3
:103468005B6AF8699847FB69DB69012B12D1FA6836
:10347800FB699B69134400220092F86900211A46EF
:103488000023FFF76DFE78617B69002B02D100F005
:10349800B5FAFEE719E0FA68FB699A61FB699B696E
:1034A800002B02D100F0AAFAFEE7FB699A69BB6912
:1034B8001344F8691946BA69BB69FFF75BFF04E072
:1034C800F86900F03BF900E000BF084B1A6807F103
:1034D80008031046194600220023FEF7E9FC0346BC
:1034E800002B8DD12037BD4680BD00BFC809002004
:1034F80080B588B002AF3DE0274B1B68DB681B68CE
:103508007B61254B1B68DB68DB683B613B690433E7
:103518001846FEF7DFFA3B695B6A386998473B69EA
:10352800DB69012B26D13B699A697B691344FB60EF
:10353800FA687B699A420ED93B69FA685A603B6916
:103548003A691A61144B1A683B69043310461946E4
:10355800FEF788FA0EE000230093386900217A69A3
:103568000023FFF7FDFDB860BB68002B02D100F017
:1035780045FAFEE7084B1B681B68002BBCD1064BBD
:103588001B687B60054B1A68034B1A60034B7A680B
:103598001A601837BD4680BDC0090020C409002044
:1035A80080B500AF00F002FA154B1B68002B24D140
:1035B8001448FEF707FA1448FEF704FA134B114AA9
:1035C8001A60134B104A1A600A200C210022FEF7D9
:1035D80003FB02460A4B1A60094B1B68002B02D1F9
:1035E80000F00CFAFEE7064B1B68002B05D0044BD5
:1035F8001B6818460749FEF741FE00F0E7F980BD51
:10360800C809002098090020AC090020C009002042
:10361800C40900201487000880B588B000AF78601E
:1036280000237B61FFF72EF8404B1B68002B04D169
:1036380000F0BCF83D4B01221A607B68002B0DD0CE
:1036480008237A6813447B607B6803F00703002B28
:1036580004D07B6823F0070308337B607B68002B6A
:1036680057D07A6844F2F7339A4252D8304BBB614C
:103678002F4B1B68FB6104E0FB69BB61FB691B689E
:10368800FB61FB695A687B689A4203D2FB691B6835
:10369800002BF1D1FA69274B9A423AD0BB691A68D4
:1036A800082313447B61FB691A68BB691A60FB69CC
:1036B8005A687B68D21A08235B009A4222D9FA69B1
:1036C8007B681344FB60FB695A687B68D21AFB6805
:1036D8005A60FB697A685A60FB685B68BB60144B88
:1036E8003B6102E03B691B683B613B691B685A68A8
:1036F800BB689A42F6D33B691A68FB681A603B6953
:10370800FA681A600C4B1A68FB695B68D21A0A4B94
:103718001A60FEF7C5FF7B69002B01D1FCF7AAFEF2
:103728007B6918462037BD4680BD00BFE04D0020AC
:10373800D04D0020D84D00201400002080B586B060
:1037480000AF78607B683B617B68002B27D008233B
:103758005B423A6913443B613B69FB60FEF792FFA9
:10376800FB685B68BB600F4B7B6102E07B691B6891
:103778007B617B691B685A68BB689A42F6D37B6990
:103788001A68FB681A607B69FA681A60FB685A68ED
:10379800054B1B681A44044B1A60FEF781FF183763
:1037A800BD4680BDD04D00201400002080B483B0F9
:1037B80000AF0F4B23F007037B600E4B7A681A604B
:1037C8000C4B00225A600C4B44F2F8325A600A4BF8
:1037D80000221A607B683B603B6844F2F8325A600A
:1037E8003B68054A1A600C37BD465DF8047B704794
:1037F800D8090020D04D0020D84D002080B485B0D5
:1038080000AFF860B9607A60FB68043BFB60FB6856
:103818004FF080721A60FB68043BFB60BA68FB6873
:103828001A60FB68043BFB600C4AFB681A60FB6883
:10383800143BFB607A68FB681A60FB68043BFB601A
:10384800FB686FF002021A60FB68203BFB60FB68B4
:1038580018461437BD465DF8047B70476938000880
:1038680080B500AF054B1B68B3F1FF3F02D000F0F5
:10387800C5F8FEE700F0C2F8FEE700BF1800002018
:10388800064B19680868B0E8F04F80F30988BFF361
:103898006F8F4FF0000080F3118870479C0800205C
:1038A80005480068006880F3088862B6BFF34F8F48
:1038B800BFF36F8F00DF00BF08ED00E080B584B074
:1038C80000AF2C4BFB60FB681B78DBB2BB60FB686E
:1038D800FF221A70FB681B78DBB2FB71FB79DBB245
:1038E80003F05003DAB2244B1A70244B07221A60F3
:1038F80009E0224B1B685A1E204B1A60FB79DBB289
:103908005B00DBB2FB71FB79DBB2DBB25BB2002B95
:10391800EFDB1A4B1B681A02184B1A60174B1B680F
:1039280003F4E062154B1A60BB68DAB2FB681A70E0
:10393800134B134A126842F470021A60104B104A73
:10394800126842F070421A6000F0A6F80D4B00228F
:103958001A6000F0B3F80C4B0B4A126842F0404270
:103968001A60FFF79DFFFFF77BFF0023184610370B
:10397800BD4680BD00E400E0E44D0020E84D002095
:1039880020ED00E01800002034EF00E080B400AF24
:10399800054B4FF080521A60BFF34F8FBFF36F8F04
:1039A800BD465DF8047B704704ED00E080B500AFCC
:1039B80000F024F8044B1B685A1C034B1A60BFF331
:1039C8004F8FBFF36F8F80BD1800002080B500AF08
:1039D800094B1B68002B02D100F010F8FEE7064BDC
:1039E8001B685A1E044B1A60034B1B68002B02D13C
:1039F800002000F00DF880BD18000020EFF31180C2
:103A08004FF0500181F3118870470023184600BF1A
:103A180080F31188704700BFEFF30980BFF36F8F01
:103A2800124B1A681EF0100F08BF20ED108A20E90B
:103A3800F04F10604DF8043D4FF0500080F31188AE
:103A4800FEF77EFF4FF0000080F3118808BC19686C
:103A58000868B0E8F04F1EF0100F08BFB0EC108AED
:103A680080F30988BFF36F8F704700BF9C08002060
:103A780080B500AFFFF7C2FFFEF7AAFE0346002B92
:103A880003D0044B4FF080521A600020FFF7C0FFAC
:103A980080BD00BF04ED00E080B400AF044B054AD0
:103AA8001A60054B07221A60BD465DF8047B704713
:103AB80014E000E03F90020010E000E0DFF80C00A6
:103AC800016841F4700101607047000088ED00E072
:103AD80080B582B000AFEFF305837B607B680F2B66
:103AE8000CD90D4A7B6813441B78FB700B4B1B7871
:103AF800FA789A4202D2FFF781FFFEE7084B1B686B
:103B080003F4E062074B1B689A4202D9FFF776FF7D
:103B1800FEE70837BD4680BDF0E300E0E44D002035
:103B28000CED00E0E84D0020014B1868704700BF1D
:103B380048040020032A70B428D940EA01039B07EF
:103B480013D005780C78A54224D1013A002305E06A
:103B580010F8015F11F8014FA5421BD1934203F100
:103B68000103F5D1002070BC70470C460346256858
:103B78001E68AE422146184604F1040403F104030A
:103B880004D1043A032A18462146F0D8002AD8D18D
:103B98001046E8E7281B70BC704700BF844641EA1E
:103BA800000313F003036DD1403A41D351F8043BAD
:103BB80040F8043B51F8043B40F8043B51F8043BFF
:103BC80040F8043B51F8043B40F8043B51F8043BEF
:103BD80040F8043B51F8043B40F8043B51F8043BDF
:103BE80040F8043B51F8043B40F8043B51F8043BCF
:103BF80040F8043B51F8043B40F8043B51F8043BBF
:103C080040F8043B51F8043B40F8043B51F8043BAE
:103C180040F8043B51F8043B40F8043B51F8043B9E
:103C280040F8043B51F8043B40F8043B403ABDD20D
:103C3800303211D351F8043B40F8043B51F8043BAF
:103C480040F8043B51F8043B40F8043B51F8043B6E
:103C580040F8043B103AEDD20C3205D351F8043B3E
:103C680040F8043B043AF9D2043208D0D2071CBF0A
:103C780011F8013B00F8013B01D30B880380604633
:103C8800704700BF082A13D38B078DD010F00303A9
:103C98008AD0C3F10403D21ADB071CBF11F8013B19
:103CA80000F8013B80D331F8023B20F8023B7BE768
:103CB800043AD9D3013A11F8013B00F8013BF9D293
:103CC8000B7803704B7843708B788370604670472D
:103CD800F0B4840743D0541E002A3ED0CDB2034628
:103CE80003E0621E002C38D0144603F8015B9A07E3
:103CF800F7D1032C2AD9CDB245EA05250F2C45EA80
:103D0800054515D9A4F110073F0903F1100606EB84
:103D180007161A46156055609560D5601032B24294
:103D2800F8D104F00F040137032C03EB07130DD966
:103D38001E462246043A032A46F8045BFAD8221F94
:103D480022F003020432134404F003042CB1C9B274
:103D58001C4403F8011BA342FBD1F0BC7047144676
:103D68000346C6E70EB4F0B59CB021AB0F4953F833
:103D7800042B019305466FF00044086802954FF440
:103D880002774FF6FF7602A90695ADF814700494F1
:103D98000794ADF8166000F00BF8029B00221A7029
:103DA8001CB0BDE8F04003B0704700BF48040020D5
:103DB8002DE9F04FC9B0914610930C910D9002F087
:103DC80027FA0068159003F053F80C9C1890A38903
:103DD8001A0603D52369002B01F091809FED967B8D
:103DE8008DED167B002338AC119308942D932C93FA
:103DF8001A9319930E932B94264699F80030002BAA
:103E080000F0F880252B00F0F58009F1010201E0AF
:103E1800252B04D0144601322378002BF8D1C9EBA6
:103E280004057DB12C9B2D9AC6F8009001332A44D5
:103E3800072B75602D922C9300F3C28008360E98DC
:103E480028440E902378002B00F0C280002394F8B9
:103E580001808DF88F301A460F93099304F10109F8
:103E68004FF0FF340A9409F10109A8F12003582BF7
:103E780000F2CC83DFE813F06F02CA03CA037602AC
:103E8800CA03CA03CA03CA03CA03CA0319036903D4
:103E9800CA039D00C000CA037D0284028402840212
:103EA800840284028402840284028402CA03CA034C
:103EB800CA03CA03CA03CA03CA03CA03CA03CA0392
:103EC80095027403CA037403CA03CA03CA03CA0364
:103ED8006D03CA03CA037800CA03CA03CA03CA0324
:103EE800CA035900CA03CA03B402CA03CA03CA03ED
:103EF800CA03CA03CA03CA03CA03CA03CA033C03E0
:103F08004D0374037403740304034D03CA03CA0303
:103F18000D03CA03CA027C002603AA03CA03DE02F1
:103F2800CA035F00CA03CA03E400DDF824C04CF0EA
:103F3800100CCDF824C0099CA20600F15B83099CF3
:103F4800E30600F1E585DDF824C01CF0400F00F021
:103F5800DF85DDF840C0BCF800400CF1040C0025FA
:103F68000123CDF840C092E0099D45F01005099560
:103F7800DDF824C01CF0200340F03183DDF824C0B4
:103F88001CF0100240F0BD85DDF824C01CF0400391
:103F980000F0B785DDF840C0BCF800400CF1040C17
:103FA80013460025CDF840C071E00F9C1093644281
:103FB8000F94099D45F00405099599F8008052E78A
:103FC8000D980C992BAA02F083FF40B938AE36E75A
:103FD8002D9B23B10D980C992BAA02F079FF0C9C0C
:103FE8000E98A38913F0400F18BF4FF0FF3049B067
:103FF800BDE8F08F4C4625E799F80080B8F12A0F04
:1040080009F1010001F01D81A8F13003092B98BFC7
:10401800002101F27C8010F8018B01EB810103EB98
:104028004101A8F13003092BF5D941EAE1710A9160
:1040380081461AE7AFF3008000000000000000008E
:10404800099DA14C1A94AF068DF88F2040F1D081BC
:10405800DDF840C00CF1070323F0070303F108045F
:104068001094D3E90045DDF824C01CF0010F00F0DE
:10407800638454EA050000F05F8430234CF0020C9E
:104088008DF890308DF89180CDF824C002234FF040
:10409800000A8DF88FA00A99002905DBDDF824C0F5
:1040A8002CF0800CCDF824C054EA050040F0C682FC
:1040B8000A99002940F0C282002B40F03984DDF8CB
:1040C80024C01CF0010F00F0338448AF302307F8F8
:1040D800413D089DEC1BDDF828C000256445A8BFBC
:1040E800A446CDF82CC01495BAF1000F02D00B9D50
:1040F80001350B95099B13F00203129302D00B9D17
:1041080002350B95DDF824C01CF0840CCDF84CC0AA
:1041180040F091820F9DDDF82CC0CCEB050BBBF174
:10412800000F40F38882BBF1100F2D992C9ADFF80D
:10413800A0A12CDD1B97304657461025CA460C9E79
:10414800A1460D9C06E0ABF1100BBBF1100F00F17E
:10415800080017DD01321031072A2D912C920760D3
:104168004560F0DD204631462BAA02F0B1FE00285A
:104178007FF435AFABF1100BBBF1100F2D992C9AD2
:1041880038A8E7DC4C46D146BA461B9F06460132A2
:104198000BEB010C072ACDF8B4C02C9286E8000C72
:1041A80000F31B849DF88FA00836BAF1000F0FD0DA
:1041B8002C9B01330CF1010C0DF18F010122072B0F
:1041C800CDF8B4C02C9386E8060000F3998308362E
:1041D800129B73B12C9B01330CF1020C24A902220F
:1041E800072BCDF8B4C02C9386E8060000F394831F
:1041F8000836139D802D00F0CB820A9DC4EB050A7A
:10420800BAF1000F3BDDBAF1100F2C9B2F4D2BDDBF
:104218000A9432464FF0100B2E4661460D9C0C9DB9
:1042280006E0AAF1100ABAF1100F02F1080217DD30
:1042380001331031072B2D912C9382E84008F0DDD3
:10424800204629462BAA02F043FE00287FF4C7AE79
:10425800AAF1100ABAF1100F2D992C9B38AAE7DCA5
:104268000A9C35468C4616460133D444072BCDF8B4
:10427800B4C02C9386E8200400F336830836099DE1
:10428800ED0500F125822C9B37600133A444072BF0
:10429800CDF8B4C074602C9300F310830836099CE1
:1042A800630748D50F9D0B982C1A002C43DD102C62
:1042B8002C9BDFF81CA02ADD574610256246DDF846
:1042C8003080DDF834A00AE0548700082087000811
:1042D80074870008103C102C06F1080615DD013320
:1042E8001032072B2D922C9337607560F2DD504603
:1042F80041462BAA02F0ECFD00287FF470AE103C7A
:10430800102C2D9A2C9B38AEE9DC9446BA46013322
:10431800A444072BCDF8B4C02C93C6F800A0746051
:1043280009DD0D980C992BAA02F0D2FD00287FF424
:1043380056AEDDF8B4C00E9C0B980F9DA842ACBFDA
:10434800241864190E94BCF1000F40F0C3820023B6
:104358002C9338AE51E599F80080002A7FF483AD9C
:10436800202280E5099D45F00105099599F800800E
:1043780079E5099D45F08005099599F8008072E571
:104388000024A8F130030F94214619F8018B01EBA2
:10439800810103EB4101A8F13003092BF5D90F91F5
:1043A80063E5DDF824C08DF88F204CF0100CCDF8B3
:1043B80024C0099CA30640F1B280109DE91D21F09C
:1043C8000701D1E900230831109114461D46002A3F
:1043D80073F10000C0F28B839DF88FA001235AE689
:1043E800099DB74C8DF88F20AF061A943FF530AE73
:1043F800099DED0640F15E84DDF840C0DCF8004020
:104408000CF1040CCDF840C000252CE6DDF824C0E2
:104418008DF88F201CF0200F00F03E84109C21683E
:104428000E9CE5172B46109D224604351095C1E9D0
:104438000023E2E4109C27684FF0000A8DF88FA053
:10444800251D002F00F0F5850A9C002C3846C0F287
:10445800A7855146224602F07BF9002800F01F8606
:104468000A9C1095C01BA042B8BF044624EAE47514
:10447800CDF828A0CDF850A00B959DF88FA033E675
:10448800DDF824C04CF0400CCDF824C099F8008029
:10449800E9E499F80080B8F16C0F4B4600F08D8480
:1044A800099D45F010050995DDE4109C109D2468D0
:1044B8000F94002C05F10403FFF677AD109399F8DB
:1044C8000080D0E4109ADDF824C07E4814681A9061
:1044D8003023151D4FF078084CF0020C8DF8903001
:1044E8001095CDF824C000258DF891800223CEE5E3
:1044F800109A109D12688DF8B82000230124043505
:104508009A460B9410958DF88F300A9314932EAF1A
:10451800F0E5099C8DF88F20A3063FF54EAFDDF836
:1045280024C01CF0100F40F0D282099C670640F1AD
:10453800CE82DDF840C0BCF900400CF1040CE51750
:1045480022462B46CDF840C041E799F800802B223F
:1045580089E4099D45F00805099599F8008082E4E9
:10456800099C8DF88F20250740F18B83109DEB1D4A
:1045780023F0070393ED007B8DED167B03F1080C08
:10458800CDF840C0DDE9160102F038FC0128DDE96C
:10459800160140F05F830022002303F0D5FC0028B9
:1045A80040F06D859DF88FA0DDF824C0464F474B3D
:1045B800002503242CF0800C0B940A95CDF824C018
:1045C800B8F1470FD8BF1F4614958DE5DDF824C014
:1045D8004CF0200CCDF824C099F8008043E4109CDE
:1045E800E31D23F0070303F108051095D3E90045FF
:1045F80000234CE5109DEB1D23F0070303F1080C85
:10460800D3E90045CDF840C0012340E58DF88F205F
:10461800B8F1000F3FF4DCAC00234FF0010C9A46D0
:10462800CDF82CC08DF8B8808DF88F300A9314938C
:1046380064462EAF5EE5DDF8B4C0B6E5012B00F0A8
:10464800EC80022B0DF1DF0318D1DDF868C01946A4
:1046580004F00F00220942EA05720F462B091CF8E4
:104668000010397052EA030014461D4607F1FF3165
:10467800EED1089DCDE91E23EC1B2CE5E00840EAAD
:10468800457004F00702E908303250EA010C1F4671
:104698001A7004460D4603F1FF33EFD1099CCDE9AA
:1046A8001C01E007394640F1C180302A00F0BE8085
:1046B800089D1F463023EC1B01F8013C0BE500BFA9
:1046C80040870008548700083487000830870008AE
:1046D800B8F1650F40F3AD80DDE916010022002333
:1046E800CDF81CC003F026FCDDF81CC0002800F043
:1046F80026812C9BAA4A326001330CF1010C01225D
:10470800072BCDF8B4C02C93726000F3F9820836F9
:10471800259B119CA34203DB099DEC077FF5BFADE8
:104728002C9B189D159C34600133AC44072BCDF8A5
:10473800B4C075602C9300F34A830836119D6C1E33
:10474800002C7FF7ACAD102C2C9B964D40F3978135
:1047580010276246DDF83480DDF830A004E0083622
:10476800103C102C40F38A8101331032072B2D9214
:104778002C9386E8A000F2DD404651462BAA02F0B1
:10478800A7FB00287FF42BAC2D9A2C9B38AEE7E7CB
:104798000F9D0B98C0EB050ABAF1000F7FF72DADFE
:1047A800BAF1100F2C9B7F4D2BDD129432464FF03F
:1047B800100B2E4661460D9C0C9D06E0AAF1100ACE
:1047C800BAF1100F02F1080217DD01331031072B7F
:1047D8002D912C9382E84008F0DD204629462BAA2B
:1047E80002F076FB00287FF4FAABAAF1100ABAF1BE
:1047F800100F2D992C9B38AAE7DC129C35468C4665
:1048080016460133D444072BCDF8B4C02C9386E860
:10481800200400F312820836EFE4002D08BF0A2CAA
:1048280080F0388148AF303407F8414D089DEC1BC3
:1048380051E4119C012C2C9C40F3D58101340CF1DE
:1048480001030122072C37602D932C94726000F32A
:10485800DB810836DDF86080159D356001349844A9
:10486800189DCDF8B480072C2C94756000F3D8817E
:104878000836DDE916010022002303F05BFB119DD9
:10488800002840F0B9806B1E013401379844072C8A
:104898002C94CDF8B4803760736000F3E28008365A
:1048A800DDF864C0199D0134C44427AB072CCDF84A
:1048B800B4C02C9486E828007FF7F0AC0D980C99CA
:1048C8002BAA02F005FB00287FF489ABDDF8B4C001
:1048D80038AEE4E40D980C992BAA02F0F9FA0028F6
:1048E8003FF435ADFFF77BBB0D980C992BAA02F06E
:1048F800EFFA00287FF473ABDDF8B4C038AEBEE43D
:104908000D980C992BAA02F0E3FA00287FF467AB04
:10491800DDF8B4C038AE5BE40D980C992BAA02F010
:10492800D7FA00287FF45BABDDF8B4C038AE60E49A
:104938000A9C38AFFFF7CFBB0223FFF7A8BB259B24
:10494800002B40F3E981119C149DDDF844A0AC4292
:10495800A8BF2C46002CBA440BDD2C9B37600133D2
:10496800A444072BCDF8B4C074602C9300F32883BB
:104978000836149D24EAE4742C1B002C40F3DB80D9
:10498800102C2C9B074D40F3AF810A974FF010086D
:104998002F4662462546DDF834B00C9C09E000BF7E
:1049A80070870008208700080836103D102D40F356
:1049B800978101331032072B2D922C9386E88001C2
:1049C800F2DD584621462BAA02F082FA00287FF42D
:1049D80006AB2D9A2C9B38AEE7E70D980C992BAABD
:1049E80002F076FA00287FF4FAAA9DF88FA0DDF885
:1049F800B4C038AEFFF7D9BB6F1E002F7FF750AF9A
:104A0800102FB44D23DD43464FF0100ADDF83480F3
:104A1800DDF830B004E0103F102F06F1080615DD70
:104A280001341033072C2D932C9486E82004F2DDF2
:104A3800404659462BAA02F04BFA00287FF4CFAA29
:104A4800103F102F2D9B2C9C38AEE9DC9846013482
:104A5800B844072CCDF8B4802C9486E8A0007FF7E2
:104A68001EAF0D980C992BAA02F032FA00287FF499
:104A7800B6AADDF8B4802C9C38AE11E79446013311
:104A8800A444072BCDF8B4C02C93356074607FF72D
:104A980005AC13E70DF1DF0B204629460A22002357
:104AA80003F0A2FA30328BF80020204629460A2269
:104AB800002303F099FA04460D4654EA050C5F46B4
:104AC8000BF1FF3BE8D1089DEC1BFFF704BB109DE1
:104AD800DDF840C02C68E51722462B460CF1040C83
:104AE800002A73F10000CDF840C0BFF675AC4FF056
:104AF8002D0A644265EB45058DF88FA00123FFF769
:104B0800CABA109D2C68043510950025FFF7BFBA66
:104B1800109D2C680435109501230025FFF7B7BABE
:104B28000D980C992BAA02F0D3F900287FF457AA04
:104B3800DDF8B4C038AE149D259C2F44119DAC42BD
:104B480042DB099DE9073FD41198C7EB0A05041B0E
:104B5800AC42B8BF2546002D0BDD2C9B37600133D6
:104B6800AC44072BCDF8B4C075602C9300F3528287
:104B7800083625EAE575641B002C7FF790AB102CEE
:104B88002C9B544D7FF77BAF10276246DDF83480AD
:104B9800DDF830A004E00836103C102C7FF76EAF2B
:104BA80001331032072B2D922C9386E8A000F2DDFA
:104BB800404651462BAA02F08BF900287FF40FAA31
:104BC8002D9A2C9B38AEE7E72C9B159D3560189DD8
:104BD80075600133AC44072BCDF8B4C02C9300F3B7
:104BE800FB810836B0E7099DEA073FF527AE013497
:104BF8000CF101080123072CCDF8B4802C94376000
:104C080073607FF74CAE2CE70D980C992BAA02F035
:104C18005FF900287FF4E3A92D9B2C9C38AE19E698
:104C28000D980C992BAA02F053F900287FF4D7A904
:104C3800DDF8B4802C9C38AE1BE60D980C992BAA95
:104C480002F046F900287FF4CAA9DDF8B4C038AEEE
:104C5800FFF7D3BA02F0D2F8002840F0C480099DCB
:104C68001D4F1E4B9DF88FA00A90032425F0800548
:104C78000B9409951490B8F1470FD8BF1F46FFF75A
:104C880033BA109CE31D23F0070393ED007B083330
:104C98008DED167B109375E4DDF824C01CF0100F21
:104CA80000F05481109C0E9D2368043410941D60FC
:104CB800FFF7A3B8099C640640F14181DDF840C0C4
:104CC800BCF800400CF1040C0025CDF840C0FFF7FB
:104CD800CAB900BF208700083C8700083887000849
:104CE8002C463D460A9F94460133A444072BCDF831
:104CF800B4C02C93356074603FF712AF08361AE7DA
:104D08000D980C992BAA02F0E3F800287FF467A904
:104D1800DDF8B4C038AEFBE42C9AB64931600132F4
:104D28000CF1010C0121072ACDF8B4C02C92716056
:104D380000F3F58008361C462CB9119D1DB9099D54
:104D4800E8077FF5ACAA2C9B1899159D35600133AF
:104D58006144189D2D91072B75602C9300F3DC811D
:104D680006F108026442002C40F30981102CA24D80
:104D780040F34681A34610260C46DDF83480DDF862
:104D880030A006E00832ABF1100BBBF1100F40F376
:104D9800358101331034072B2D942C9382E8600061
:104DA800F0DD404651462BAA02F092F800287FF425
:104DB80016A92D9C2C9B38AAE5E7099C93F801803D
:104DC80044F0200409F101090994FFF74CB80D9843
:104DD8000C992BAA02F07CF800287FF400A9DDF8D2
:104DE800B4C038AEAAE40A9C013428F0200A00F0C6
:104DF800A380BAF1470F04D10A9C002C08BF0124F4
:104E08000A94DDE91623099D002B45F48075129557
:104E1800C0F29C819DED167B8DED207B4FF0000B41
:104E2800B8F1660F00F09B81B8F1460F00F0A98138
:104E3800BAF1450F0ABF0A9C0A9D651C022025A9E4
:104E480026AA29AB8DE821000392049302910D98BC
:104E5800DDE9202300F0C4FAB8F1670F074602D055
:104E6800B8F1470F05D1DDF824C01CF0010F00F0A0
:104E78009C81BAF1460F07EB050400F01C81DDE9BF
:104E880020010022002303F055F8002840F0058196
:104E9800299B9C4206D930215A1C29921970299BBA
:104EA8009C42F9D8DB1BBAF1470F119300F0ED8053
:104EB800B8F1650F40F3F281B8F1660F00F0688130
:104EC800259C1494119C149DAC4200F33281DDF8AA
:104ED80024C01CF0010F40F0AD8125EAE5732C4693
:104EE8004FF06708BBF1000F40F0B280129D0B93A2
:104EF8000995CDF828B09DF88FA0FFF7F5B80D9863
:104F0800402101F089F920602061002800F0BF816C
:104F1800DDF830C04023CCF81430FEF75FBF0D98A1
:104F28000C992BAA01F0D4FF00287FF458A8259CDF
:104F3800DDF8B4C038AEFFE606250A9561E7109D96
:104F48002C68043510950025FFF78DB8DDF824C0CE
:104F58001CF0400F00F08780109C0E9D23680434DD
:104F680010941D80FEF749BF0D980C992BAA01F0EB
:104F7800AFFF00287FF433A82D992C9B38AADDF8C1
:104F880044C0119C176001338C44072BCDF8B4C082
:104F98002C9354603FF792AC02F10806FFF77FB9F3
:104FA800CDF828A001F064FF109520EAE07C0A9D66
:104FB800CDF82CC0044614959DF88FA0FFF794B83F
:104FC8000D980C992BAA01F083FF00287FF407A8FD
:104FD800DDF8B4C038AECCE40D980C992BAA01F0DA
:104FE80077FF00287EF4FBAF259CDDF8B4C038AE0F
:104FF800AAE500BF708700082087000821465C46A4
:1050080001332144072B2D912C9315605460ABDCA0
:105018000832B4E70D980C992BAA01F059FF002823
:105028007EF4DDAF259C1199DDF8B4C00C1B38AEB9
:105038009FE50A9C1497062C28BF062424EAE47CE2
:10504800BA460A971095CDF82CC0974FFFF74CB881
:10505800129D09954FF02D0A00250B938DF88FA00E
:105068000A95FFF744B8DDF840C00E9CDCF8003024
:105078000CF1040CCDF840C01C60FEF7BEBE4FF02A
:105088002D0A8DF88FA0FFF78FBA259BDC1C19DB42
:105098000A9C9C4216DB149314E7234602E724EA91
:1050A800E47CCDF82CC00A9C10950A9014909DF8C9
:1050B8008FA0FFF719B83B78302B00F0AD80259D05
:1050C8002C44DCE6A8F10208013B002B2593BABF6B
:1050D8005B422D222B22092B8DF89C808DF89D2078
:1050E80065DC303330228DF89F308DF89E2028AB58
:1050F800119D119C27AA9A1A012D1992144440F364
:10510800B7800134002524EAE4731495EAE6002404
:1051180081460A94FEF7A9BE0D980C992BAA01F0B6
:10512800D7FE00287EF45BAF259C2D992C9B38AACE
:1051380018E6149C119D002CD4BFC4F1020401246C
:105148002C4424EAE4734FF06708CBE617991698C5
:10515800209001F1004121914FF02D0B60E60A9D4E
:105168000195032025A926AA29AB00900392049350
:1051780002910D98DDE9202300F032F90A9D0746D7
:1051880077E60A9C0194032025A926AA29ABECE717
:10519800259D1495002D0A9C63DDB4BB099DE80785
:1051A80033D4149C24EAE4739CE6299B7AE60DF137
:1051B800AA003E4DDA1785FB0351C2EBA10101EBB2
:1051C80081040246A3EB440303F13000092910705F
:1051D8000B4602F1FF30ECDC01F130030DF1AB04BA
:1051E800D9B2844202F8011C5AD90DF19D00134628
:1051F80001E013F8011BA34200F8011FF9D10DF5D6
:10520800907CC2EB4C03F63B72E70A9D6C1C149D24
:105218002C4424EAE47365E6DDE92001002200233A
:1052280002F088FE00287FF44AAFC5F101052595F4
:105238002C4424E6149D6C1C24EAE4734FF06708A0
:1052480050E6109DDDF840C02D6899F801800A9558
:105258000CF10403002D10938146BEF604AEFEF750
:10526800FFBD7CB9099DE9070CD401231C4639E62A
:10527800DDF824C01CF001037FF443AF149324EA43
:10528800E4732FE60A9DAC1C24EAE4732AE60D9D1C
:105298000C232B604FF0FF30FEF7A9BE259B13E7C8
:1052A8000DF19E0324E700BF6887000867666666FD
:1052B8002DE9F04F03690D699D4283B0834600F3E1
:1052C8008B80013D01F1140400F1140A54F82520E3
:1052D8005AF825300132B3FBF2F8AA009146009241
:1052E8005244A1440192B8F1000F3DD04FF0000E96
:1052F8007046224653468C4652F8046B1968B7B27A
:10530800360C07FB08EE06FB08F606EB1E461FFAEE
:105318008EF7C71BB0B217FA81F7C0EB114000EB4C
:105328002740BFB247EA0047914543F8047B4FEA5C
:1053380020404FEA164EDFD2009A5AF802306146F2
:1053480093B9019A131F9A450CD252F8043C4BB9F1
:10535800A2F1080302E01A68043B1AB99A4505F15C
:10536800FF35F8D3CBF81050584601F05BFC002805
:105378002EDB08F101085346002254F8046B186824
:10538800B1B2521A360C12FA80F1C6EB104202EB97
:10539800214289B241EA0241A14543F8041B4FEA80
:1053A8002242EAD25AF825200AEB850382B91A1F4D
:1053B80092450BD253F8042C42B9083B02E01A6814
:1053C800043B1AB99A4505F1FF35F8D3CBF81050CC
:1053D800404603B0BDE8F08F002003B0BDE8F08F71
:1053E8002DE9F04F016C9BB00446279D92469B46E1
:1053F80049B1436C4B60012202FA03F38B6001F060
:1054080019FA00232364BBF1000FD94633DB0023CC
:105418002B60A54B1A4609EA0303934214D00022D5
:1054280000235046594602F085FD804648B3269E23
:10543800289D01233360002D00F0C9809B48286017
:1054480001381BB0BDE8F08F269D42F20F732B6028
:10545800BAF1000F00F0A4809548289E002EF0D0E5
:10546800C378002B00F0B58000F10803289D2B605D
:105478001BB0BDE8F08F01232BF000492B60CB4611
:10548800C7E719AA18AB8DE80C00204652465B46C0
:1054980001F056FC5FEA19550A9040F08A80189F7F
:1054A800199D6FF482633D449D42C0F292821F337E
:1054B80005F212425B1B09FA03F32AFA02F243EAE5
:1054C800020002F059FA0126013DB846A1F1F8712F
:1054D80016960022774B02F011F96DA3D3E9002349
:1054E80002F0C0FA6CA3D3E9002302F009F90646DA
:1054F80028460F4602F050FA69A3D3E9002302F0C8
:10550800B1FA02460B463046394602F0F9F806462B
:105518000F4602F041FD394607900022304600232D
:1055280002F012FD002840F02982079E162E00F294
:105538002282614B03EBC603D3E9000152465B4666
:1055480002F020FD002800F04982013E079600265F
:105558000E96C5EB0805013D069500F1268200254B
:105568000895079E002EC0F21782069D0D963544B9
:10557800002606950C96249D092D2CD8052DC4BF10
:10558800043D2495249EA6F10203CCBF00250125E5
:10559800032B22D8DFE813F0AD03A002B603A5045D
:1055A800464A434BC9F3130000280CBF104618465F
:1055B80053E7CBF3130343F07F51CDF8588050469F
:1055C800A5F2FF3541F44011DDF8608081E73C48E1
:1055D80037E7C31C4AE7002524950025656429465A
:1055E800204601F001F94FF0FF3901260990259571
:1055F8002064CDF83C900B96199B002BC0F2D2800A
:10560800079E0E2E00F3CE802B4B259903EBC60385
:1056180093ED007B00298DED047BC0F27683DDE9F4
:1056280004235946504602F047FB02F0B5FC0546F4
:1056380002F0B2F9DDE9042302F014FA02460B463F
:105648005046594602F05AF8099A05F13003B9F163
:10565800010F06460F46137002F1010B64D00022B9
:10566800184B02F0FFF90022002306460F4602F00D
:1056780061FC002840F08180DDF82480099D0394B6
:10568800C844DDE904AB05F1020928E0AFF3008066
:1056980061436F63A787D23FB3C8608B288AC63F30
:1056A800FB799F501344D33F0000F07F71870008B7
:1056B800908700080000F83FA0870008848700084A
:1056C800708700080000244002F0CCF90022002373
:1056D80006460F4602F02EFC002840F0CC835246C6
:1056E8005B463046394602F0E7FA02F055FC0546BB
:1056F80002F052F952465B4602F0B4F902460B46F4
:105708003046394601F0FAFF05F1300EC14509F877
:1057180001EC4C4606460F464FF00002A74B09F134
:105728000109D1D1A346039C32463B46304639464F
:1057380001F0E6FF06460F463246DDE904013B4626
:1057480002F002FC40B9DDE9040132463B4602F0B2
:10575800F1FB90B1EB0710D51BF8015C099A05E045
:105768009A4200F02A8413F8015C9B46392D0BF10C
:10577800FF33F5D06A1CD2B21A7020460A9901F09C
:1057880059F8079E269D731C289E00228BF800203E
:105798002B60002E00F01C830998C6F800B01BB0DF
:1057A800BDE8F08F0B9D002D00F00481249E012E92
:1057B80040F3D3820C9E09F1FF37BE42C0F29483B6
:1057C800F71BB9F1000FC0F28884089D4B46089E6C
:1057D8001E440896069E20461E440121069601F0A6
:1057E800CDF8064665B10699002909DD0B46089AE9
:1057F800AB42A8BF2B46D21AC91A0892ED1A0691D5
:105808000C9B002B1BDD0B99002900F06383002FF4
:1058180011DD31463A46204601F058F90646314630
:105828000A9A204601F0B4F80A998046204601F009
:1058380001F8CDF828800C9BDA1B40F08882012102
:10584800204601F09BF80D990029804605DD0146A8
:105858000D9A204601F03AF98046249A012A40F32D
:10586800C98200270D99002940F0A8820120069BD3
:10587800034413F01F0300F0A380C3F12002042A9D
:1058880040F3BD84089ADDF818E0C3F11C031A44FC
:105898009E4408921D44CDF818E0089B002B05DDB6
:1058A8000A991A46204601F05FF90A9006990029DC
:1058B80005DD4146069A204601F056F980460E9AC3
:1058C800002A40F06082B9F1000F40F3AE820B99D4
:1058D800002940F085800B9D0A9FDDF824B006E082
:1058E800394620460A22002300F0AEFF0746384614
:1058F8004146FFF7DDFC30300BF805000135A945BE
:10590800EEDCDDF824B00A978246B9F1010FACBF8E
:10591800CB440BF1010B00250A990122204601F026
:1059280023F941460A9001F07DF9002840F30A83E3
:105938001BF8012C099905E0994200F0958213F8AB
:10594800012C9B46392A0BF1FF33F5D001321A702E
:105958004146204600F06EFF002E3FF40EAF2DB1F9
:10596800B54203D02946204600F064FF3146204660
:1059780000F060FF01E701260E96EAE5079802F0BD
:105988000BF832463B4602F0D5FA00287FF4CDAD3D
:10599800079E013E0796C8E5079E089DAD1B089522
:1059A800754200260C950D96E5E56D420026089592
:1059B8000696D6E50C9F089D0B9E13E70000244031
:1059C8001C230899069A19441A4408911D44069202
:1059D80063E74048401B0AFA00F072E50E90B8E50C
:1059E800002D05DD31462A46204601F0BDF8064661
:1059F800002F40F0EC823746099D09994D440895DF
:105A08000AF001050B95DDF828904D1C0AE000F01E
:105A18001BFF394606460A222046002300F014FFE1
:105A28000746013541464846FFF742FC3146834662
:105A3800484601F0F7F83A4603904146204601F0FF
:105A480015F9C26805F1FF3E03460BF1300ACDF89F
:105A580018E0002A40F08A8119464846029301F06E
:105A6800E1F8029B024619462046029200F0E2FE47
:105A7800029A2AB9249919B90B9B002B00F09F832D
:105A8800039B002BC0F23F8205D1249919B90B9BC7
:105A9800002B00F03882002A00F3AD82DDF820E008
:105AA80005F801AC7545AB4600F0B58249460A22B7
:105AB8000023204600F0C8FEBE42814631462046FB
:105AC8004FF00A024FF00003A1D100F0BDFE0646D8
