:020000040800F2
:1000000000000220890100081D02000825020008E6
:100010002D020008350200083D0200080000000023
:100020000000000000000000000000004502000881
:100030004D02000800000000550200085D020008A3
:100040001502000815020008150200081502000834
:100050001502000815020008150200081502000824
:100060001502000815020008150200081502000814
:100070001502000815020008150200081502000804
:1000800015020008150200081502000815020008F4
:1000900015020008150200081502000815020008E4
:1000A00015020008150200081502000815020008D4
:1000B00015020008150200081502000815020008C4
:1000C00015020008150200081502000815020008B4
:1000D00015020008150200081502000815020008A4
:1000E0001502000815020008150200081502000894
:1000F0001502000815020008150200081502000884
:100100001502000815020008150200081502000873
:100110001502000815020008150200081502000863
:100120001502000815020008150200081502000853
:100130001502000815020008150200081502000843
:100140001502000815020008150200081502000833
:100150001502000815020008150200081502000823
:100160001502000815020008150200081502000813
:100170001502000815020008150200081502000803
:10018000150200081502000880B584B000AF0D4BC1
:10019000BB600D4B7B60BB683B6004E03B681A1D95
:1001A0003A6000221A607A683B689A42F6D800F0FA
:1001B000D7F900F059F8F86000F008FAF86800F094
:1001C00023FA00BF84080020F408002080B584B022
:1001D00000AF0D4BFB600D4BBB600D4B7B60BB68F4
:1001E0003B6007E03B681A1D3A60FA68111DF96030
:1001F00012681A607A683B689A42F3D800F00AFAEB
:100200001037BD4680BD00BFEC5B00080000002039
:100210008408002080B400AFFEE700BF80B400AFC8
:10022000FEE700BF80B400AFFEE700BF80B400AFC0
:10023000FEE700BF80B400AFFEE700BF80B400AFB0
:10024000FEE700BF80B400AFFEE700BF80B400AFA0
:10025000FEE700BF80B400AFFEE700BF80B400AF90
:04026000FEE700BFF6
:04026400CD010008C0
:10026800B0B588B000AF00F0C1F800F003F908207D
:10027800012100F0EFFB4FF470437B6001233B72D8
:100288000023BB7203237B720023FB723B1D3F4894
:10029800194600F061FA0023FB6142F210737B8378
:1002A8004FF080435B6A7B6120E0FA6913461B01CB
:1002B8001A44374BA3FB02135B093B61FB6901330B
:1002C800FB613A69334BA3FB0213DD083A69314BF2
:1002D800A3FB0213DC0823469B0023445B00D41ACB
:1002E8002D482E492A46234601F050F87B8B5A1E8A
:1002F8007A83002BD9D14FF080435A6A7B69D31A8D
:100308007B61254826497A6901F040F82548224949
:1003180000F08CF8244800F04FF842F210737B8309
:100328004FF080435B6A7B6118E0FA6913461B0152
:100338001A441E4BA3FB02139B09184600F0C8FF82
:100348000346FB60FB690133FB61F86800F0B6FE09
:1003580002460B461048164901F018F87B8B5A1EC6
:100368007A83002BE1D14FF080435A6A7B69D31A14
:100378007B6109480A497A6901F008F80948064981
:1003880000F054F80B4800F017F886E7000C02401C
:100398001F85EB51CDCCCCCC840800201C5A00081A
:1003A800345A00080010014040420F00D34D62103B
:1003B800485A000800E1F50580B485B000AF7860C0
:1003C8004FF080435B6AFB604FF080435B6ABB6021
:1003D800BA68FB68D21A7B689A4200D900E0F3E752
:1003E80000BF1437BD465DF8047B704780B584B004
:1003F80000AF0120012100F04BFB5323BB800023F9
:10040800BB816FF00103BB600023BB730023FB803B
:100418003B1D4FF08040194600F076FB4FF08040BE
:10042800012100F0DBFB1037BD4680BD80B582B0EE
:1004380000AF7860396014E000BF7B681B889BB20E
:1004480003F04003002BF8D03B681B78DBB25BB2AB
:100458009BB27868194600F0BBFC3B685A1C3A60AE
:100468001B783B681B78DBB2002BE5D10837BD460B
:1004780080BD00BF80B586B000AF0220012100F02A
:10048800E9FA1020012100F021FB40233B610223FF
:100498003B750123FB750023BB7502237B7507F1B0
:1004A80010031148194600F057F90F480621072292
:1004B80000F0E0F94FF416533B600023BB800023A3
:1004C800FB8000233B810023BB8108237B813B46C3
:1004D8000648194600F0A2FB0448012100F058FC28
:1004E8001837BD4680BD00BF00040240001001401F
:1004F80080B584B000AF7860144B1B68002B02D124
:10050800124B134A1A60114B1B68FB607B6803335C
:1005180023F003037B600D4B1A687B681A440D4B6C
:100528009A4207D900F02CFF03460C221A604FF0BC
:10053800FF3306E0054B1A687B681A44034B1A60C0
:10054800FB6818461037BD4680BD00BFB8080020BC
:10055800F408002000FC012080B582B000AF154AE5
:10056800154BD31A9B103B6000237B6007E0124BAE
:100578007A6853F8223098477B6801337B607A6841
:100588003B689A42F3D30D4A0D4BD31A9B103B603C
:1005980000237B6007E00A4B7A6853F822309847BB
:1005A8007B6801337B607A683B689A42F3D30837EB
:1005B800BD4680BD680200086402000868020008A1
:1005C8006802000880B582B000AF0B4A0B4BD31A03
:1005D8009B103B603B687B6008E07B685A1E074BBA
:1005E80053F8223098477B68013B7B607B68002B7F
:1005F800F3D10837BD4680BD6802000868020008CC
:1006080080B483B000AF7860FEE700BF80B500AF6C
:10061800114B114A126842F001021A600E4B002277
:100628009A600D4A0C4B1B6823F0847323F48033C3
:100638001360094B094A5A60074B074A126822F4AB
:1006480080221A60044B0022DA6000F00BF8044B99
:100658004FF000629A6080BD0038024010300024DC
:1006680000ED00E080B483B000AF00237B6000237E
:100678003B60354B344A126842F480321A60324B80
:100688001B6803F400333B607B6801337B603B6885
:10069800002B03D17B68B3F5A04FF0D12A4B1B6820
:1006A80003F40033002B02D001233B6001E0002358
:1006B8003B603B68012B42D1234B234A126C42F02A
:1006C80080521A64214B214A126842F440421A604F
:1006D8001D4B1D4A92689A601B4B1B4A926842F454
:1006E80000429A60184B184A926842F4A0529A60E5
:1006F800154B174A5A60144B134A126842F080721D
:100708001A6000BF104B1B6803F00073002BF9D070
:10071800104B40F205721A600B4B0B4A926822F09C
:1007280003029A60084B084A926842F002029A60F3
:1007380000BF054B9B6803F00C03082BF9D10C375D
:10074800BD465DF8047B70470038024000700040E9
:1007580008544007003C024080B487B000AF78607E
:10076800396000237B6100233B610023FB60002389
:100778007B6176E07B69012202FA03F33B613B6807
:100788001A683B691340FB60FA683B699A4265D175
:100798007B681A687B695B00032101FA03F3DB437A
:1007A8001A407B681A607B681A683B681B7919468F
:1007B8007B695B0001FA03F31A437B681A603B68A4
:1007C8001B79012B03D03B681B79022B2ED17B6848
:1007D8009A687B695B00032101FA03F3DB431A4043
:1007E8007B689A607B689A683B685B7919467B6985
:1007F8005B0001FA03F31A437B689A607B685A68C6
:100808007B699BB2012101FA03F3DB431A407B6841
:100818005A607B685A683B689B7919467B699BB22A
:1008280001FA03F39BB21A437B685A607B68DA6863
:100838007B699BB25B00032101FA03F3DB431A4097
:100848007B68DA607B68DA683B68DB7919467B6924
:100858005B0001FA03F31A437B68DA607B690133B2
:100868007B617B690F2B85D91C37BD465DF8047BFE
:10087800704700BF80B485B000AF786013460A4661
:100888007A807B700023FB600023BB607A787B88CA
:1008980003F007039B0002FA03F3FB607B88DB0885
:1008A8009BB21A467B88DB089BB219467B680831E5
:1008B80053F821107B8803F007039B000F2000FAF0
:1008C80003F3DB4319407B68083243F822107B8826
:1008D800DB089BB21A467B68083253F82220FB6873
:1008E8001343BB607B88DB089BB21A467B680832DF
:1008F800B96843F822101437BD465DF8047B704789
:1009080080B489B000AF78600023BB6100237B61AD
:100918000023FB6102233B610023FB600223BB60D1
:10092800484B9B6803F00C03BB61BB69042B07D0E1
:10093800082B09D0002B3FD17B68434A1A603FE05F
:100948007B68424A1A603BE03E4B5B6803F48003D5
:100958009B0DFB603B4B5B6803F03F03BB60FB6890
:10096800002B0DD0394ABB68B2FBF3F2354B5968FE
:1009780047F6C0730B409B0903FB02F3FB610CE0D5
:10098800314ABB68B2FBF3F22E4B596847F6C07385
:100998000B409B0903FB02F3FB612A4B5B6803F4E2
:1009A80040331B0C01335B003B61FA693B69B2FBC6
:1009B800F3F27B681A6003E07B68234A1A6000BF81
:1009C800204B9B6803F0F003BB61BB691B09BB614B
:1009D8001F4ABB6913441B78DBB27B617B681A68CA
:1009E8007B69DA407B685A60164B9B6803F4E053D6
:1009F800BB61BB699B0ABB61154ABB6913441B7881
:100A0800DBB27B617B685A687B69DA407B689A60F5
:100A18000C4B9B6803F46043BB61BB695B0BBB6118
:100A28000B4ABB6913441B78DBB27B617B685A684D
:100A38007B69DA407B68DA602437BD465DF8047B61
:100A4800704700BF003802400024F40000127A000A
:100A58000000002080B483B000AF78600B46FB70C4
:100A6800FB78002B06D0094B084A116B7A680A43B9
:100A78001A6306E0054B054A116B7A68D2430A40AF
:100A88001A630C37BD465DF8047B70470038024096
:100A980080B483B000AF78600B46FB70FB78002B06
:100AA80006D0094B084A116C7A680A431A6406E0B2
:100AB800054B054A116C7A68D2430A401A640C3710
:100AC800BD465DF8047B70470038024080B483B0AF
:100AD80000AF78600B46FB70FB78002B06D0094B03
:100AE800084A516C7A680A435A6406E0054B054A7D
:100AF800516C7A68D2430A405A640C37BD465DF897
:100B0800047B70470038024080B485B000AF78603D
:100B180039600023FB817B681B88FB817A68284B3E
:100B28009A4213D07A68274B9A420FD07B68B3F168
:100B3800804F0BD07A68244B9A4207D07A68234BAF
:100B48009A4203D07A68224B9A4208D1FB8923F053
:100B58007003FB813B685A88FB891343FB817A68E1
:100B68001C4B9A420CD07A681B4B9A4208D0FB89DE
:100B780023F44073FB813B681A89FB891343FB818B
:100B88007B68FA891A803B685A687B68DA623B6836
:100B98001A887B681A857A68094B9A4203D07A6862
:100BA800084B9A4204D13B689B7A1A467B681A869E
:100BB8007B6801229A821437BD465DF8047B704732
:100BC800000001400004014000040040000800400B
:100BD800000C0040001000400014004080B483B0B6
:100BE80000AF78600B46FB70FB78002B08D07B6861
:100BF8001B889BB243F001039AB27B681A8007E016
:100C08007B681B889BB223F001039AB27B681A8029
:100C18000C37BD465DF8047B704700BF80B58AB0CD
:100C280000AF7860396000237B6200233B620023B9
:100C3800FB610023BB617B681B8A9BB27B627B6A7A
:100C480023F440537B623B68DB887A6A13437B62F8
:100C58007B6A9AB27B681A827B689B899BB27B62AB
:100C68007B6A23F4B05323F00C037B623B689A88B9
:100C78003B681B8913439AB23B685B8913439BB259
:100C88007A6A13437B627B6A9AB27B689A817B6833
:100C98009B8A9BB27B627B6A23F440737B623B68CE
:100CA8009B897A6A13437B627B6A9AB27B689A82D1
:100CB80007F108031846FFF723FE7A68314B9A427A
:100CC80003D07A68304B9A4202D17B693B6201E0DB
:100CD8003B693B627B689B899BB29BB21BB2002B32
:100CE8000CDA3A6A13469B0013449A001A443B688C
:100CF8001B685B00B2FBF3F3FB610BE03A6A134637
:100D08009B0013449A001A443B681B689B00B2FB83
:100D1800F3F3FB61FA691D4BA3FB02135B091B018B
:100D28007B627B6A1B09642202FB03F3FA69D31A0C
:100D3800BB617B689B899BB29BB21BB2002B0DDA0F
:100D4800BB69DB0003F13202104BA3FB02135B0902
:100D580003F007037A6A13437B620CE0BB691B014B
:100D680003F13202094BA3FB02135B0903F00F03E3
:100D78007A6A13437B627B6A9AB27B681A81283746
:100D8800BD4680BD00100140001401401F85EB5195
:100D980080B483B000AF78600B46FB70FB78002B03
:100DA80008D07B689B899BB243F400539AB27B6856
:100DB8009A8107E07B689B899BB223F400539AB21F
:100DC8007B689A810C37BD465DF8047B704700BF8D
:100DD80080B483B000AF78600B467B807B88C3F318
:100DE80008039AB27B689A800C37BD465DF8047B8D
:100DF800704700BF81F0004102E000BF83F000436C
:100E080030B54FEA41044FEA430594EA050F08BF9D
:100E180090EA020F1FBF54EA000C55EA020C7FEA61
:100E2800645C7FEA655C00F0E2804FEA5454D4EBDE
:100E38005555B8BF6D420CDD2C4480EA020281EAA8
:100E4800030382EA000083EA010180EA020281EAE0
:100E58000303362D88BF30BD11F0004F4FEA013132
:100E68004FF4801C4CEA113102D0404261EB410141
:100E780013F0004F4FEA03334CEA133302D05242C7
:100E880063EB430394EA050F00F0A780A4F1010483
:100E9800D5F1200E0DDB02FA0EFC22FA05F28018BD
:100EA80041F1000103FA0EF2801843FA05F35941A3
:100EB8000EE0A5F120050EF1200E012A03FA0EFC22
:100EC80028BF4CF0020C43FA05F3C01851EBE3714C
:100ED80001F0004507D54FF0000EDCF1000C7EEB69
:100EE80000006EEB0101B1F5801F1BD3B1F5001FA7
:100EF8000CD349085FEA30004FEA3C0C04F10104C6
:100F08004FEA445212F5800F80F09A80BCF1004FEE
:100F180008BF5FEA500C50F1000041EB045141EA70
:100F2800050130BD5FEA4C0C404141EB010111F471
:100F3800801FA4F10104E9D191F0000F04BF01461C
:100F48000020B1FA81F308BF2033A3F10B03B3F1FA
:100F580020020CDA0C3208DD02F1140CC2F10C028A
:100F680001FA0CF021FA02F10CE002F11402D8BFE8
:100F7800C2F1200C01FA02F120FA0CFCDCBF41EAB4
:100F88000C019040E41AA2BF01EB0451294330BD83
:100F98006FEA04041F3C1CDA0C340EDC04F1140460
:100FA800C4F1200220FA04F001FA02F340EA030037
:100FB80021FA04F345EA030130BDC4F10C04C4F17D
:100FC800200220FA02F001FA04F340EA030029465D
:100FD80030BD21FA04F0294630BD94F0000F83F4A7
:100FE800801306BF81F480110134013D4EE77FEA8A
:100FF800645C18BF7FEA655C29D094EA050F08BFD6
:1010080090EA020F05D054EA000C04BF19461046B6
:1010180030BD91EA030F1EBF0021002030BD5FEAFA
:10102800545C05D14000494128BF41F0004130BD22
:1010380014F580043CBF01F5801130BD01F0004576
:1010480045F0FE4141F470014FF0000030BD7FEAE9
:10105800645C1ABF194610467FEA655C1CBF0B46E4
:10106800024650EA013406BF52EA033591EA030FFB
:1010780041F4002130BD00BF90F0000F04BF0021F3
:10108800704730B54FF4806404F132044FF0000526
:101098004FF0000150E700BF90F0000F04BF00219F
:1010A800704730B54FF4806404F1320410F0004505
:1010B80048BF40424FF000013EE700BF42004FEA00
:1010C800E2014FEA31014FEA02701FBF12F07F437D
:1010D80093F07F4F81F06051704792F0000F14BF7A
:1010E80093F07F4F704730B54FF4607401F00045BE
:1010F80021F0004120E700BF50EA010208BF704715
:1011080030B54FF000050AE050EA010208BF704709
:1011180030B511F0004502D5404261EB41014FF472
:10112800806404F132045FEA915C3FF4DCAE4FF076
:1011380003025FEADC0C18BF03325FEADC0C18BF5D
:10114800033202EBDC02C2F1200300FA03FC20FAAE
:1011580002F001FA03FE40EA0E0021FA02F11444FB
:10116800C1E600BF80F0004002E000BF81F000410E
:1011780042001FBF5FEA410392EA030F7FEA226C35
:101188007FEA236C6AD04FEA1262D2EB1363C1BFC5
:10119800D218414048404140B8BF5B42192B88BF34
:1011A800704710F0004F40F4000020F07F4018BF57
:1011B800404211F0004F41F4000121F07F4118BF77
:1011C800494292EA030F3FD0A2F1010241FA03FC1F
:1011D80010EB0C00C3F1200301FA03F100F0004307
:1011E80002D5494260EB4000B0F5000F13D3B0F1CF
:1011F800807F06D340084FEA310102F10102FE2A3E
:1012080051D2B1F1004F40EBC25008BF20F00100AD
:1012180040EA03007047490040EB000010F4000F5B
:10122800A2F10102EDD1B0FA80FCACF1080CB2EBEE
:101238000C0200FA0CF0AABF00EBC250524218434D
:10124800BCBFD0401843704792F0000F81F40001F2
:1012580006BF80F400000132013BB5E74FEA4103C5
:101268007FEA226C18BF7FEA236C21D092EA030F31
:1012780004D092F0000F08BF0846704790EA010FAB
:101288001CBF0020704712F07F4F04D1400028BFD8
:1012980040F00040704712F100723CBF00F50000BA
:1012A800704700F0004343F0FE4040F400007047F0
:1012B8007FEA226216BF08467FEA2363014642029C
:1012C80006BF5FEA412390EA010F40F480007047AF
:1012D8004FF0000304E000BF10F0004348BF404255
:1012E8005FEA000C08BF704743F0964301464FF091
:1012F80000001CE050EA010208BF70474FF00003ED
:101308000AE000BF50EA010208BF704711F000432D
:1013180002D5404261EB41015FEA010C02BF8446FD
:101328000146002043F0B64308BFA3F18053A3F55C
:101338000003BCFA8CF2083AA3EBC25310DB01FAA3
:1013480002FC634400FA02FCC2F12002BCF1004F27
:1013580020FA02F243EB020008BF20F001007047B8
:1013680002F1200201FA02FCC2F1200250EA4C000C
:1013780021FA02F243EB020008BF20EADC70704752
:10138800014B1868704700BF380400200EB4F0B550
:101398009CB021AB0F4953F8042B019305466FF01D
:1013A8000044086802954FF402774FF6FF7602A9C9
:1013B8000695ADF8147004940794ADF8166000F023
:1013C8000BF8029B00221A701CB0BDE8F04003B075
:1013D800704700BF380400202DE9F04FC9B091468E
:1013E80010930C910D9002F027FA0068159003F005
:1013F800EDF80C9C1890A3891A0603D52369002BD5
:1014080001F08D8038ACA44608942B940025002464
:10141800CDE91645002311932D932C931A93199314
:101428000E93664699F80030002B00F0F880252BC3
:1014380000F0F58009F1010201E0252B04D01446E3
:1014480001322378002BF8D1C9EB04057DB12C9B20
:101458002D9AC6F8009001332A44072B75602D9207
:101468002C9300F3C28008360E9828440E902378F7
:10147800002B00F0C280002394F801808DF88F3093
:101488001A460F93099304F101094FF0FF340A94A7
:1014980009F10109A8F12003582B00F2C783DFE8FE
:1014A80013F06A02C503C5037102C503C503C5036A
:1014B800C503C503C50314036403C5039D00C00029
:1014C800C50378027F027F027F027F027F027F02CC
:1014D8007F027F027F02C503C503C503C503C50399
:1014E800C503C503C503C503C50390026F03C50340
:1014F8006F03C503C503C503C5036803C503C50357
:101508007800C503C503C503C503C5035900C50352
:10151800C503AF02C503C503C503C503C503C5039A
:10152800C503C503C503C503370348036F036F032A
:101538006F03FF024803C503C5030803C503C502BB
:101548007C002103A503C503D902C5035F00C503B9
:10155800C503DE00DDF824C04CF0100CCDF824C023
:10156800099CA20600F15683099CE30600F1E08578
:10157800DDF824C01CF0400F00F0DA85DDF840C02B
:10158800BCF800400CF1040C00250123CDF840C044
:101598008CE0099D45F010050995DDF824C01CF084
:1015A800200340F02C83DDF824C01CF0100240F02A
:1015B800B885DDF824C01CF0400300F0B285DDF8E2
:1015C80040C0BCF800400CF1040C13460025CDF8CF
:1015D80040C06BE00F9C109364420F94099D45F046
:1015E8000405099599F8008052E70D980C992BAAE3
:1015F80003F01CF840B938AE36E72D9B23B10D989F
:101608000C992BAA03F012F80C9C0E98A38913F0DE
:10161800400F18BF4FF0FF3049B0BDE8F08F4C467F
:1016280025E799F80080B8F12A0F09F1010001F0C7
:101638001881A8F13003092B98BF002101F27780A7
:1016480010F8018B01EB810103EB4101A8F1300394
:10165800092BF5D941EAE1710A9181461AE7099DFA
:10166800A14C1A94AF068DF88F2040F1D181DDF896
:1016780040C00CF1070323F0070303F1080410949A
:10168800D3E90045DDF824C01CF0010F00F06484A4
:1016980054EA050000F0608430234CF0020C8DF809
:1016A80090308DF89180CDF824C002234FF0000AC5
:1016B8008DF88FA00A99002905DBDDF824C02CF0ED
:1016C800800CCDF824C054EA050040F0C7820A997E
:1016D800002940F0C382002B40F03A84DDF824C092
:1016E8001CF0010F00F0348448AF302307F8413D67
:1016F800089DEC1BDDF828C000256445A8BFA4465A
:10170800CDF82CC01495BAF1000F02D00B9D01350D
:101718000B95099B13F00203129302D00B9D02351F
:101728000B95DDF824C01CF0840CCDF84CC040F0BB
:1017380092820F9DDDF82CC0CCEB050BBBF1000F9E
:1017480040F38982BBF1100F2D992C9ADFF8A0A1E4
:101758002CDD1B97304657461025CA460C9EA146DD
:101768000D9C06E0ABF1100BBBF1100F00F1080067
:1017780017DD01321031072A2D912C920760456040
:10178800F0DD204631462BAA02F050FF00287FF4F6
:101798003BAFABF1100BBBF1100F2D992C9A38A869
:1017A800E7DC4C46D146BA461B9F064601320BEB96
:1017B800010C072ACDF8B4C02C9286E8000C00F37F
:1017C8001C849DF88FA00836BAF1000F0FD02C9B0F
:1017D80001330CF1010C0DF18F010122072BCDF81B
:1017E800B4C02C9386E8060000F39A830836129B4F
:1017F80073B12C9B01330CF1020C24A90222072B94
:10180800CDF8B4C02C9386E8060000F3958308361B
:10181800139D802D00F0CC820A9DC4EB050ABAF115
:10182800000F3BDDBAF1100F2C9B304D2BDD0A94D5
:1018380032464FF0100B2E4661460D9C0C9D06E07B
:10184800AAF1100ABAF1100F02F1080217DD0133EC
:101858001031072B2D912C9382E84008F0DD2046AB
:1018680029462BAA02F0E2FE00287FF4CDAEAAF1A9
:10187800100ABAF1100F2D992C9B38AAE7DC0A9CA4
:1018880035468C4616460133D444072BCDF8B4C0F0
:101898002C9386E8200400F337830836099DED056C
:1018A80000F126822C9B37600133A444072BCDF826
:1018B800B4C074602C9300F311830836099C630745
:1018C80049D50F9D0B982C1A002C44DD102C2C9B0D
:1018D800DFF81CA02BDD574610256246DDF8308066
:1018E800DDF834A00BE000BF985A0008645A0008DD
:1018F800B85A0008103C102C06F1080615DD013313
:101908001032072B2D922C9337607560F2DD50460C
:1019180041462BAA02F08AFE00287FF475AE103CDF
:10192800102C2D9A2C9B38AEE9DC9446BA4601332C
:10193800A444072BCDF8B4C02C93C6F800A074605B
:1019480009DD0D980C992BAA02F070FE00287FF48F
:101958005BAEDDF8B4C00E9C0B980F9DA842ACBFDF
:10196800241864190E94BCF1000F40F0C3820023C0
:101978002C9338AE56E599F80080002A7FF488AD9C
:10198800202285E5099D45F00105099599F8008013
:101998007EE5099D45F08005099599F8008077E571
:1019A8000024A8F130030F94214619F8018B01EBAC
:1019B800810103EB4101A8F13003092BF5D90F91FF
:1019C80068E5DDF824C08DF88F204CF0100CCDF8B8
:1019D80024C0099CA30640F1B280109DE91D21F0A6
:1019E8000701D1E900230831109114461D46002A49
:1019F80073F10000C0F28B839DF88FA0012359E694
:101A0800099DB74C8DF88F20AF061A943FF52FAE7D
:101A1800099DED0640F15D84DDF840C0DCF800402A
:101A28000CF1040CCDF840C000252BE6DDF824C0ED
:101A38008DF88F201CF0200F00F03D84109C216849
:101A48000E9CE5172B46109D224604351095C1E9DA
:101A58000023E7E4109C27684FF0000A8DF88FA058
:101A6800251D002F00F0F5850A9C002C3846C0F291
:101A7800A7855146224602F07FF9002800F01F860C
:101A88000A9C1095C01BA042B8BF044624EAE4751E
:101A9800CDF828A0CDF850A00B959DF88FA032E680
:101AA800DDF824C04CF0400CCDF824C099F8008033
:101AB800EEE499F80080B8F16C0F4B4600F08B8487
:101AC800099D45F010050995E2E4109C109D2468D5
:101AD8000F94002C05F10403FFF67CAD109399F8E0
:101AE8000080D5E4109ADDF824C07E4814681A9066
:101AF8003023151D4FF078084CF0020C8DF890300B
:101B08001095CDF824C000258DF891800223CDE5ED
:101B1800109A109D12688DF8B8200023012404350E
:101B28009A460B9410958DF88F300A9314932EAF24
:101B3800EFE5099C8DF88F20A3063FF54EAFDDF841
:101B480024C01CF0100F40F0D282099C670640F1B7
:101B5800CE82DDF840C0BCF900400CF1040CE5175A
:101B680022462B46CDF840C041E799F800802B2249
:101B78008EE4099D45F00805099599F8008087E4E9
:101B8800109D099C8DF88F20EB1D250723F0070376
:101B980040F18A83D3E90045CDE9164503F1080CE5
:101BA800CDF840C0DDE9160102F0D6FC0128DDE9D8
:101BB800160140F05F830022002303F005FC002893
:101BC80040F06D859DF88FA003250B95099D464F24
:101BD800464B25F080050024099500250A94B8F1A4
:101BE800470FD8BF1F46032414958CE5DDF824C0A1
:101BF8004CF0200CCDF824C099F8008048E4109CE3
:101C0800E31D23F0070303F108051095D3E9004508
:101C180000234BE5109DEB1D23F0070303F1080C8F
:101C2800D3E90045CDF840C001233FE58DF88F206A
:101C3800B8F1000F3FF4E1AC00234FF0010C9A46D5
:101C4800CDF82CC08DF8B8808DF88F300A93149396
:101C580064462EAF5DE5DDF8B4C0B5E5012B00F0B4
:101C6800EC80022B0DF1DF0318D1DDF868C01946AE
:101C780004F00F00220942EA05720F462B091CF8EE
:101C88000010397052EA030014461D4607F1FF316F
:101C9800EED1089DCDE91E23EC1B2BE5E00840EAB8
:101CA800457004F00702E908303250EA010C1F467B
:101CB8001A7004460D4603F1FF33EFD1099CCDE9B4
:101CC8001C01E007394640F1C180302A00F0BE808F
:101CD800089D1F463023EC1B01F8013C0AE500BFB4
:101CE800845A0008985A0008785A0008745A00085C
:101CF800B8F1650F40F3AD80DDE91601002200233D
:101D0800CDF81CC003F056FBDDF81CC0002800F01D
:101D180026812C9BAA4A326001330CF1010C012266
:101D2800072BCDF8B4C02C93726000F3F782083605
:101D3800259B119CA34203DB099DEC077FF5BEADF3
:101D48002C9B189D159C34600133AC44072BCDF8AF
:101D5800B4C075602C9300F348830836119D6C1E3F
:101D6800002C7FF7ABAD102C2C9B964D40F3978140
:101D780010276246DDF83480DDF830A004E008362C
:101D8800103C102C40F38A8101331032072B2D921E
:101D98002C9386E8A000F2DD404651462BAA02F0BB
:101DA80045FC00287FF430AC2D9A2C9B38AEE7E731
:101DB8000F9D0B98C0EB050ABAF1000F7FF72CAD09
:101DC800BAF1100F2C9B7F4D2BDD129432464FF049
:101DD800100B2E4661460D9C0C9D06E0AAF1100AD8
:101DE800BAF1100F02F1080217DD01331031072B89
:101DF8002D912C9382E84008F0DD204629462BAA35
:101E080002F014FC00287FF4FFABAAF1100ABAF123
:101E1800100F2D992C9B38AAE7DC129C35468C466E
:101E280016460133D444072BCDF8B4C02C9386E86A
:101E3800200400F312820836EEE4002D08BF0A2CB5
:101E480080F0388148AF303407F8414D089DEC1BCD
:101E580050E4119C012C2C9C40F3D58101340CF1E9
:101E680001030122072C37602D932C94726000F334
:101E7800DB810836DDF86080159D356001349844B3
:101E8800189DCDF8B480072C2C94756000F3D88188
:101E98000836DDE916010022002303F08BFA119DB4
:101EA800002840F0B9806B1E013401379844072C94
:101EB8002C94CDF8B4803760736000F3E280083664
:101EC800DDF864C0199D0134C44427AB072CCDF854
:101ED800B4C02C9486E828007FF7EFAC0D980C99D5
:101EE8002BAA02F0A3FB00287FF48EABDDF8B4C068
:101EF80038AEE3E40D980C992BAA02F097FB002862
:101F08003FF435ADFFF780BB0D980C992BAA02F072
:101F18008DFB00287FF478ABDDF8B4C038AEBDE4A3
:101F28000D980C992BAA02F081FB00287FF46CAB6A
:101F3800DDF8B4C038AE5AE40D980C992BAA02F01B
:101F480075FB00287FF460ABDDF8B4C038AE5FE401
:101F58000A9C38AFFFF7CEBB0223FFF7A7BB259B30
:101F6800002B40F3E781119C149DDDF844A0AC429E
:101F7800A8BF2C46002CBA440BDD2C9B37600133DC
:101F8800A444072BCDF8B4C074602C9300F32883C5
:101F98000836149D24EAE4742C1B002C40F3DB80E3
:101FA800102C2C9B074D40F3AD810A974FF0100879
:101FB8002F4662462546DDF834B00C9C09E000BF88
:101FC800B45A0008645A00080836103D102D40F332
:101FD800958101331032072B2D922C9386E88001CE
:101FE800F2DD584621462BAA02F020FB00287FF498
:101FF8000BAB2D9A2C9B38AEE7E70D980C992BAAC2
:1020080002F014FB00287FF4FFAA9DF88FA0DDF8EA
:10201800B4C038AEFFF7D8BB6F1E002F7FF750AFA4
:10202800102FB34D23DD43464FF0100ADDF83480FE
:10203800DDF830B004E0103F102F06F1080615DD7A
:1020480001341033072C2D932C9486E82004F2DDFC
:10205800404659462BAA02F0E9FA00287FF4D4AA90
:10206800103F102F2D9B2C9C38AEE9DC984601348C
:10207800B844072CCDF8B4802C9486E8A0007FF7EC
:102088001EAF0D980C992BAA02F0D0FA00287FF405
:10209800BBAADDF8B4802C9C38AE11E79446013316
:1020A800A444072BCDF8B4C02C93356074607FF737
:1020B80004AC13E70DF1DF0B204629460A22002362
:1020C80003F0D2F930328BF80020204629460A2244
:1020D800002303F0C9F904460D4654EA050C5F468F
:1020E8000BF1FF3BE8D1089DEC1BFFF703BB109DEC
:1020F800DDF840C02C68E51722462B460CF1040C8D
:10210800002A73F10000CDF840C0BFF675AC4FF05F
:102118002D0A644265EB45058DF88FA00123FFF772
:10212800C9BA109D2C68043510950025FFF7BEBA72
:10213800109D2C680435109501230025FFF7B6BAC9
:102148000D980C992BAA02F071FA00287FF45CAA6A
:10215800DDF8B4C038AE149D259C2F44119DAC42C7
:1021680042DB099DE9073FD41198C7EB0A05041B18
:10217800AC42B8BF2546002D0BDD2C9B37600133E0
:10218800AC44072BCDF8B4C075602C9300F3528291
:10219800083625EAE575641B002C7FF78FAB102CF9
:1021A8002C9B534D7FF77BAF10276246DDF83480B8
:1021B800DDF830A004E00836103C102C7FF76EAF35
:1021C80001331032072B2D922C9386E8A000F2DD04
:1021D800404651462BAA02F029FA00287FF414AA97
:1021E8002D9A2C9B38AEE7E72C9B159D3560189DE2
:1021F80075600133AC44072BCDF8B4C02C9300F3C1
:10220800FB810836B0E7099DEA073FF527AE0134A0
:102218000CF101080123072CCDF8B4802C94376009
:1022280073607FF74CAE2CE70D980C992BAA02F03F
:10223800FDF900287FF4E8A92D9B2C9C38AE19E6FF
:102248000D980C992BAA02F0F1F900287FF4DCA96B
:10225800DDF8B4802C9C38AE1BE60D980C992BAA9F
:1022680002F0E4F900287FF4CFA9DDF8B4C038AE55
:10227800FFF7D2BA02F070F9002840F0C280099C3A
:102288001C4F1D4B9DF88FA00A904FF0030C24F0B3
:1022980080040994CDF82CC01490B8F1470FD8BF2A
:1022A8001F466446FFF72FBAD3E900450833CDE946
:1022B8001645109376E4DDF824C01CF0100F00F0EA
:1022C8005581109C0E9D2368043410941D60FFF7FF
:1022D800A9B8099C640640F14281DDF840C0BCF809
:1022E80000400CF1040C0025CDF840C0FFF7CAB936
:1022F800645A0008805A00087C5A00082C463D465B
:102308000A9F94460133A444072BCDF8B4C02C93FC
:10231800356074603FF714AF08361CE70D980C99C8
:102328002BAA02F083F900287FF46EA9DDF8B4C067
:1023380038AEFDE42C9AB749316001320CF1010C3A
:102348000121072ACDF8B4C02C92716000F3F78000
:1023580008361C462CB9119D1DB9099DE8077FF563
:10236800ADAA2C9B1899159D356001336144189DC1
:102378002D91072B75602C9300F3DE8106F108027E
:102388006442002C40F30B81102CA34D40F348818C
:10239800A34610260C46DDF83480DDF830A006E0B0
:1023A8000832ABF1100BBBF1100F40F3378101334A
:1023B8001034072B2D942C9382E86000F0DD404602
:1023C80051462BAA02F032F900287FF41DA92D9C52
:1023D8002C9B38AAE5E7099C93F8018044F0200477
:1023E80009F101090994FFF753B80D980C992BAA24
:1023F80002F01CF900287FF407A9DDF8B4C038AE54
:10240800ACE40A9D013528F0200A00F0A580BAF155
:10241800470F04D10A9D002D08BF01250A95DDE963
:102428001623DDF824C0002B4CF4807CCDF848C07E
:10243800C0F29C81DDE91645CDE920454FF0000B3F
:10244800B8F1660F00F09B81B8F1460F00F0A98142
:10245800BAF1450F0ABF0A9C0A9D651C022025A9EE
:1024680026AA29AB8DE821000392049302910D98C6
:10247800DDE9202300F0C4FAB8F1670F074602D05F
:10248800B8F1470F05D1DDF824C01CF0010F00F0AA
:102498009C81BAF1460F07EB050400F01C81DDE9C9
:1024A80020010022002302F085FF002840F005816A
:1024B800299B9C4206D930215A1C29921970299BC4
:1024C8009C42F9D8DB1BBAF1470F119300F0ED805D
:1024D800B8F1650F40F3F281B8F1660F00F068813A
:1024E800259C1494119C149DAC4200F33281DDF8B4
:1024F80024C01CF0010F40F0AD8125EAE5732C469D
:102508004FF06708BBF1000F40F0B280129D0B93AB
:102518000995CDF828B09DF88FA0FFF7F4B80D986D
:10252800402101F08DF920602061002800F0BF8172
:10253800DDF830C04023CCF81430FEF763BF0D98A7
:102548000C992BAA02F072F800287FF45DA8259C4C
:10255800DDF8B4C038AEFDE606240A945FE7109DA6
:102568002C68043510950025FFF78CB8DDF824C0D9
:102578001CF0400F00F08780109C0E9D23680434E7
:1025880010941D80FEF74EBF0D980C992BAA02F0EF
:102598004DF800287FF438A82D992C9B38AADDF82F
:1025A80044C0119C176001338C44072BCDF8B4C08C
:1025B8002C9354603FF792AC02F10806FFF77EB9FE
:1025C800CDF828A002F002F8109520EAE07C0A9DD8
:1025D800CDF82CC0044614959DF88FA0FFF793B84A
:1025E8000D980C992BAA02F021F800287FF40CA86A
:1025F800DDF8B4C038AECCE40D980C992BAA02F0E3
:1026080015F800287FF400A8259CDDF8B4C038AE82
:10261800AAE500BFB45A0008645A000821465C467F
:1026280001332144072B2D912C9315605460ABDCAA
:102638000832B4E70D980C992BAA01F0F7FF00288F
:102648007EF4E2AF259C1199DDF8B4C00C1B38AEBE
:102658009FE50A9C1497062C28BF062424EAE47CEC
:10266800BA460A971095CDF82CC0974FFFF74BB88C
:10267800129D09954FF02D0A00250B938DF88FA018
:102688000A95FFF743B8DDF840C00E9CDCF800302F
:102698000CF1040CCDF840C01C60FEF7C3BE4FF02F
:1026A8002D0A8DF88FA0FFF78FBA259BDC1C19DB4C
:1026B8000A9C9C4216DB149314E7234602E724EA9B
:1026C800E47CCDF82CC00A9C10950A9014909DF8D3
:1026D8008FA0FFF718B83B78302B00F0AD80259D10
:1026E8002C44DCE6A8F10208013B002B2593BABF75
:1026F8005B422D222B22092B8DF89C808DF89D2082
:1027080065DC303330228DF89F308DF89E2028AB61
:10271800119D119C27AA9A1A012D1992144440F36D
:10272800B7800134002524EAE4731495EAE600240E
:1027380081460A94FEF7AEBE0D980C992BAA01F0BB
:1027480075FF00287EF460AF259C2D992C9B38AA34
:1027580016E6149C119D002CD4BFC4F10204012478
:102768002C4424EAE4734FF06708CBE617991698CF
:10277800209001F1004121914FF02D0B60E60A9D58
:102788000195032025A926AA29AB0090039204935A
:1027980002910D98DDE9202300F032F90A9D0746E1
:1027A80077E60A9C0194032025A926AA29ABECE721
:1027B800259D1495002D0A9C63DDB4BB099DE8078F
:1027C80033D4149C24EAE4739CE6299B7AE60DF141
:1027D800AA003E4DDA1785FB0351C2EBA10101EBBC
:1027E80081040246A3EB440303F130000929107069
:1027F8000B4602F1FF30ECDC01F130030DF1AB04C4
:10280800D9B2844202F8011C5AD90DF19D00134631
:1028180001E013F8011BA34200F8011FF9D10DF5DF
:10282800907CC2EB4C03F63B72E70A9D6C1C149D2E
:102838002C4424EAE47365E6DDE920010022002344
:1028480002F0B8FD00287FF44AAFC5F101052595CF
:102858002C4424E6149D6C1C24EAE4734FF06708AA
:1028680050E6109DDDF840C02D6899F801800A9562
:102878000CF10403002D10938146BEF609AEFEF755
:1028880004BE7CB9099DE9070CD401231C4639E62E
:10289800DDF824C01CF001037FF443AF149324EA4D
:1028A800E4732FE60A9DAC1C24EAE4732AE60D9D26
:1028B8000C232B604FF0FF30FEF7AEBE259B13E7CD
:1028C8000DF19E0324E700BFAC5A000867666666F0
:1028D8002DE9F04F03690D699D4283B0834600F3EB
:1028E8008B80013D01F1140400F1140A54F82520ED
:1028F8005AF825300132B3FBF2F8AA00914600924B
:102908005244A1440192B8F1000F3DD04FF0000E9F
:102918007046224653468C4652F8046B1968B7B283
:10292800360C07FB08EE06FB08F606EB1E461FFAF8
:102938008EF7C71BB0B217FA81F7C0EB114000EB56
:102948002740BFB247EA0047914543F8047B4FEA66
:1029580020404FEA164EDFD2009A5AF802306146FC
:1029680093B9019A131F9A450CD252F8043C4BB9FB
:10297800A2F1080302E01A68043B1AB99A4505F166
:10298800FF35F8D3CBF81050584601F0F9FC002871
:102998002EDB08F101085346002254F8046B18682E
:1029A800B1B2521A360C12FA80F1C6EB104202EBA1
:1029B800214289B241EA0241A14543F8041B4FEA8A
:1029C8002242EAD25AF825200AEB850382B91A1F57
:1029D80092450BD253F8042C42B9083B02E01A681E
:1029E800043B1AB99A4505F1FF35F8D3CBF81050D6
:1029F800404603B0BDE8F08F002003B0BDE8F08F7B
:102A08002DE9F04F016C9BB00446279D92469B46EA
:102A180049B1436C4B60012202FA03F38B6001F069
:102A2800B7FA00232364BBF1000FD94633DB002338
:102A38002B60A54B1A4609EA0303934214D050466B
:102A480059460022002302F0B5FC804648B3269E72
:102A5800289D01233360002D00F0C9809B48286021
:102A680001381BB0BDE8F08F269D42F20F732B6032
:102A7800BAF1000F00F0A4809548289E002EF0D0EF
:102A8800C378002B00F0B58000F10803289D2B6067
:102A98001BB0BDE8F08F01232BF000492B60CB461B
:102AA800C7E719AA18AB8DE80C00204652465B46CA
:102AB80001F0F4FC5FEA19550A9040F08A80189FEB
:102AC800199D6FF482633D449D42C0F294821F3386
:102AD80005F212425B1B09FA03F32AFA02F243EAEF
:102AE8000200FEF7C9FA0126013DB846A1F1F871C6
:102AF80016960022774BFEF781F96DA3D3E90023E0
:102B080002F0F0F96CA3D3E90023FEF779F9064641
:102B180028460F46FEF7C0FA69A3D3E9002302F05E
:102B2800E1F902460B4630463946FEF769F9064692
:102B38000F4602F071FC3946079000223046002308
:102B480002F042FC002840F02882079E162E00F270
:102B58002182614B03EBC603D3E9000152465B4671
:102B680002F050FC002800F04B82013E0796002638
:102B78000E96C5EB0805013D069500F12582002556
:102B88000895079E002EC0F21682069D0D963544C4
:102B9800002606950C96249D092D2CD8052DC4BF1A
:102BA800043D2495249EA6F10203CCBF00250125EF
:102BB800032B22D8DFE813F0B7039E02C0039A0460
:102BC800464A434BC9F3130000280CBF1046184669
:102BD80053E7CBF3130343F07F51CDF858805046A9
:102BE800A5F2FF3541F44011DDF8608081E73C48EB
:102BF80037E7C31C4AE70025249500256564294664
:102C0800204601F09FF94FF0FF39012609902595DC
:102C18002064CDF83C900B96199B002BC0F2D28013
:102C2800079E0E2E00F3CE802B4B03EBC603D3E991
:102C38000001CDE9040125990029C0F28083DDE96E
:102C480004235946504602F077FA02F0E5FB0546A0
:102C5800FEF722FADDE9042302F044F902460B46A6
:102C680050465946FEF7CAF8099A05F13003B9F1FA
:102C7800010F06460F46137002F1010B64D00022C3
:102C8800184B02F02FF90022002306460F4602F0E7
:102C980091FB002840F08180DDF82480099D039491
:102CA800C844DDE904AB05F1020928E0AFF3008070
:102CB80061436F63A787D23FB3C8608B288AC63F3A
:102CC800FB799F501344D33F0000F07FB55A0008AA
:102CD800D45A00080000F83FE85A0008C85A00080B
:102CE800B45A00080000244002F0FCF80022002337
:102CF80006460F4602F05EFB002840F0C1835246AC
:102D08005B463046394602F017FA02F085FB054665
:102D1800FEF7C2F952465B4602F0E4F802460B465B
:102D280030463946FEF76AF805F1300EC14509F814
:102D380001EC4C4606460F464FF00002A74B09F13E
:102D48000109D1D1A346039C32463B463046394659
:102D5800FEF756F806460F463246DDE904013B46C3
:102D680002F032FB40B9DDE9040132463B4602F08D
:102D780021FB90B1EB0710D51BF8015C099A05E01F
:102D88009A4200F0288413F8015C9B46392D0BF118
:102D9800FF33F5D06A1CD2B21A7020460A9901F0A6
:102DA800F7F8079E269D731C289E00228BF80020AA
:102DB8002B60002E00F025830998C6F800B01BB0E0
:102DC800BDE8F08F0B9D002D00F00381249E012E9D
:102DD80040F3DC820C9E09F1FF37BE42C0F28983C2
:102DE800F71BB9F1000FC0F28684089D4B46089E78
:102DF8001E440896069E20461E440121069601F0B0
:102E08006BF9064665B10698002809DD034608995E
:102E1800AB42A8BF2B46C91AC01A0891ED1A0690F2
:102E28000C9A002A1DDD0B9B002B00F05883002F05
:102E380011DD31463A46204601F0F6F9064631469C
:102E48000A9A204601F052F90A998046204601F074
:102E58009FF8CDF82880DDF830E0BEEB070240F09F
:102E68008F822046012101F037F980460D9800280D
:102E780005DD414620460D9A01F0D6F98046249991
:102E8800012940F3C18200270D98002840F0AF8245
:102E98000120069B034413F01F0300F0A180C3F137
:102EA8002002042A40F3B5840899069AC3F11C034A
:102EB80019441A4408911D4406920899002905DD11
:102EC8000A99089A204601F0FDF90A90069A002A04
:102ED80004DD4146204601F0F5F980460E9B002BA3
:102EE80040F06A82B9F1000F40F3A6820B980028DF
:102EF80040F088800B9D0A9FDDF824B006E0394633
:102F080020460A22002301F04DF80746384641467C
:102F1800FFF7DEFC30300BF805000135A945EEDC83
:102F2800DDF824B00A978246B9F1010FACBFCB4453
:102F38000BF1010B00250A990122204601F0C2F984
:102F480041460A9001F01CFA002840F309831BF857
:102F5800012C099905E0994200F08B8213F8012CA5
:102F68009B46392A0BF1FF33F5D001321A704146DE
:102F7800204601F00DF8002E3FF40FAF2DB1B542F9
:102F880003D02946204601F003F83146204600F0D8
:102F9800FFFF02E701260E96EBE50798FEF77CF89F
:102FA80032463B4602F006FA00287FF4CEAD079E73
:102FB800013E0796C9E5079E089DAD1B0895754219
:102FC80000260C950D96E6E56D42002608950696B6
:102FD800D7E50C9F089D0B9E14E700BF0000244016
:102FE8001C23DDF820E006989E441844CDF820E024
:102FF8001D44069061E7A748401B0AFA00F070E5F7
:103008000E90B6E5002D05DD31462A46204601F032
:1030180059F90646002F40F0E8823746099D09987D
:103028004D4408950AF001050B95DDF82890451CDC
:103038000AE000F0B7FF394606460A222046002378
:1030480000F0B0FF0746013541464846FFF740FC0F
:1030580031468346484601F093F9414603903A4683
:10306800204601F0B1F9C268691E03460BF1300A27
:103078000691002A40F0938119464846029301F0D0
:103088007FF9029B024619462046029200F080FF13
:10309800029A2AB9249B1BB90B98002800F0918347
:1030A800039B002BC0F2348205D1249818B90B99E0
:1030B800002900F02D82002A00F3AB82DDF820E021
:1030C80005F801AC7545AB4600F0B38249460A22C3
:1030D8000023204600F066FFBE4281463146204666
:1030E8004FF00A024FF00003A3D100F05BFF064641
:1030F8000746A8E700260B96079EDDF894E0B6443D
:103108000EF10109B9F1000FCDF83CE04E4640F34D
:1031180050810021172E61640AD9012204235B0023
:1031280003F11400B042114602F10102F7D96164BB
:10313800204600F007FF0E2E099020643FF66CAD84
:10314800002D3FF469AD079D002DCDE912AB40F38A
:103158001B82514B05F00F0203EBC2032D11D3E97B
:103168000067EB0640F1CD814C4B50465946D3E9F8
:10317800082301F0E1FFCDE9100105F00F054FF03C
:1031880003088DB1DFF814A130463946EE0705D59E
:10319800DAE9002308F1010801F0A4FE6D100AF134
:1031A800080AF3D106460F46DDE9100132463B46D0
:1031B80001F0C2FF82468B460E9D45B150465946E6
:1031C8000022374B02F000F9002840F0A98240465F
:1031D800FDF762FF52465B4601F084FE0022314B48
:1031E800FDF70EFE0646A1F15077B9F1000F00F089
:1031F8005A81079D1795C8460B9D002D00F0228225
:10320800254B294903EBC80353E90223002001F0A9
:1032180093FF32463B46FDF7F1FDCDE910015946D3
:10322800504602F0F9F80546FDF736FF02460B4610
:1032380050465946FDF7E2FD3035099ECDE90401B7
:10324800EDB23570DDE91001DDE9042306F1010B6B
:1032580002F0D8F8002840F0A982DDE90423002014
:103268000F49FDF7CBFD02460B46DDE9100102F0E0
:10327800C9F8002840F0A082B8F1010F40F380811E
:10328800B044CDF85090A246C146DDE90467DDE9B7
:10329800104519E0EEFBFFFFE85A0008B05B000894
:1032A8000000F03F00001C400000E03F0020A8495B
:1032B800FDF7A4FD22462B4602F086F8002840F0D0
:1032C8007982CB4500F05981204629460022A14B3E
:1032D80001F008FE00229F4B04460D463046394651
:1032E80001F000FE0F46064602F096F88046FDF70C
:1032F800D3FE02460B4630463946FDF77FFD08F1FE
:1033080030085FFA88F822462B460BF8018B0646F0
:103318000F4602F059F832463B460028C6D0179EA1
:103328000796544639E500260B96259800283CDD7B
:1033380006460F908146ECE601260B96F5E7B9F1B3
:10334800000F3FF77CAC40F0C6800022824BDDE9DD
:10335800040101F0C7FD52465B4602F049F8C84631
:103368004E4600287CD0259DDDF824B0ED43079516
:103378004146204600F00CFE002E7FF406AE0CE518
:103388000A99204600F050FF0A906AE5169D002D24
:1033980000F0B78103F233430C9F089D27E50146EF
:1033A800204600F0F5FD01227AE6012625960F96C3
:1033B800B14600216164BBE60A98414600F0E0FF8F
:1033C8000028BFF68FADDDF81CE00A990EF1FF3E2C
:1033D80020460A220023CDF81CE000F0E3FD0A9005
:1033E8000B98002840F00782DDF83C907AE5D8F881
:1033F800103008EB8303186900F020FEC0F12000AC
:1034080047E50998FFF72DBBBAF1000F7FF43BADF4
:10341800CBF31303002B40F07B812BF000473F0DCB
:103428003F05002F3FF430AD089A069B0132013367
:1034380008920693012727E5249902297FF756ADBC
:10344800B9F1000F8FD141464B460522204600F0C6
:10345800A9FD804641460A9800F092FF002882DDC7
:10346800079D01350795099D31232B7005F1010B47
:103478007EE7079809993123013007900B7076E5AC
:10348800A346039C89E44046FDF706FE02460B4628
:103498005046594601F026FD0022304BFDF7B0FC9E
:1034A8000646A1F150775046594600222A4BFDF7AF
:1034B800A5FC32463B4682468B4601F0A3FF002816
:1034C80040F0BC80324607F100435046594601F0AF
:1034D8007BFF002854D04FF00008464643E70A997E
:1034E8000C9A204600F0A0FE0A90BAE401260B963A
:1034F80002E60C9D0D9E0C977B1B1E440D96002723
:103508006FE4DDE912014FF00208CDE9100138E659
:10351800002ACDF82890D94611DD0A9901222046C3
:1035280000F0D0FE41460A9000F02AFF002840F340
:103538005B81BAF1390F00F01A8109F1310A069B53
:10354800354683F800A003F1010B3E460FE500BFA6
:103558000000F03F000024400000144000001C4020
:1035680003D11AF0010F7FF4F2AC5B469B46013B96
:103578001BF8012C302AF9D0F9E4DDF850905446B4
:10358800DDE912ABFFF748BB079E7542002D00F03E
:10359800C280A34B05F00F0203EBC203D3E900235B
:1035A800DDE9120101F09EFC2D1182468B4600F0E8
:1035B8002D819C4E4FF00208EA0705D5D6E9002375
:1035C80008F1010801F08EFC6D1006F10806F3D130
:1035D80082468B46F0E5079E099D30222A70013607
:1035E800312207961A70FFF7D8BB7168204600F0A1
:1035F800A9FC33699A1C0546920006F10C010C30AF
:1036080000F002FC20462946012200F05BFE074636
:1036180004E5BAF1390FCDF8289000F0A880069D8E
:103628000AF101032B703546069E06F1010B3E4652
:103638009DE43546CDF828903E467CE44FF00008DE
:1036480046460DE7764908F1FF3501EBC5013246DC
:103658003B46D1E90001109501F044FCCDE9140185
:103668005946504601F0D8FE0546FDF715FD0246BD
:103678000B4650465946FDF7C1FBDDF824E03035CE
:10368800B8F1010F06460F468EF800500EF1010BF7
:103698001ED0099D6B1E03EB080A0022624B01F045
:1036A80021FC0F46064601F0B7FE8046FDF7F4FC04
:1036B80008F1300802460B4630463946FDF79EFBB6
:1036C80005F8018F5545E8D1109D06460F46AB44D5
:1036D8000022564BDDE91401FDF792FB32463B46CA
:1036E80001F072FE00284DD0179E07961BF8015C6A
:1036F800099AFFF74BBB089E0023C9EB0605FFF7A5
:1037080076BB189B0C9F089DC3F13603FFF76FBB70
:103718005746FFF7B9BBDDE912AB4FF002084BE59E
:10372800B9F1000F3FF4AFAE0F9E002E7FF728AF20
:1037380000223D4B5046594601F0D4FB824608F121
:1037480001008B46FDF7A8FC02460B465046594639
:1037580001F0C8FB0022364BFDF752FB079DDDF850
:103768003C80013D0646A1F15077179544E5354662
:10377800069B069E09993922327003F1010B3E46D9
:10378800FFF7EFBBDDE9142300202849FDF736FBDE
:1037980032463B4601F036FE00283FF4F1AE5B4668
:1037A8009B46013B1BF8012C302AF9D0179D079541
:1037B800FFF7F3BA45465446179E0796099AFFF74E
:1037C800E5BABAF1390FCDF82890D0D0039B354629
:1037D800002B069EC8BF0BF1310A86F800A006F13F
:1037E800010B3E46FFF7C3BB7FF4A9AE1AF0010FE9
:1037F8003FF4A5AE9DE6314620460A220023DDF8B7
:103808003C9000F0CFFB0646FFF76CBB4FF0020878
:10381800D2E43FF452ABC3F13C03FFF7E2BB00BF75
:10382800E85A0008B05B0008000024400000E03FB0
:1038380000001C40AFF30080004870473C040020A3
:103848002DE9F04F01F10B05162D83B0064627D957
:1038580035F0070527D4A94225D8304600F06EFB7D
:10386800B5F5FC7F26D2C14F4FEAD50C07EBCC0348
:10387800DC689C4200F0D2816368E268A16823F0AA
:103888000303234430465D68CA6045F00105916032
:103898005D6000F055FB0834204603B0BDE8F08FAA
:1038A8001025A942D9D900240C232046336003B03F
:1038B800BDE8F08F5FEA552C00F08A80BCF1040F58
:1038C80000F260814FEA951C0CF1380C4FEA4C016C
:1038D800A64F07EB8101CC68A14205D10CE0002B73
:1038E8007ADAE468A14207D0626822F00302531B27
:1038F8000F2BF4DD0CF1FF3C0CF1010C9B4B3C69E8
:1039080003F1080E744500F07E81616821F003011F
:103918004A1B0F2A00F36481002AC3F814E0C3F895
:1039280010E06ADAB1F5007F80F03A81C90803EB4C
:10393800C1004FEAA1085A688168A1604FF00109E7
:1039480009FA08F848EA0202E0605A608460CC602C
:103958004FEAAC030120984090425BD8024206D15E
:103968002CF0030C400002420CF1040CFAD007EBD7
:10397800CC084446E146E3689C4207D145E1002A69
:1039880080F25681DB689C4200F03F81596821F043
:1039980003014A1B0F2AF2DD1C46D3F80CC054F869
:1039A800088F591945F0010942F00105C3F8049040
:1039B8003046C8F80CC0CCF8088079613961C1F884
:1039C8000CE0C1F808E04D608A5000F0B9FA63E7EE
:1039D8007E214FF03F0C7BE72244E3685068A168E2
:1039E80040F00105CB6030469960556000F0A8FAB8
:1039F8000834204603B0BDE8F08F214430464B68B8
:103A080043F001034B6000F09BFA0834204603B0F2
:103A1800BDE8F08FBC68636823F00309A94504D3A7
:103A2800C5EB09030F2B00F39180514B514A1968DC
:103A38001368013305EB010A04EB090B00F06181FF
:103A48000AF5805A0AF10F0A2AF47F6A2AF00F0A47
:103A580030465146019200F0A7FDB0F1FF3F804685
:103A6800019A00F00081834500F2FA80DFF810C166
:103A7800DCF80030C3455344CCF8003000F04A81EC
:103A880012683C4901321BBFCBEB080B5B44C1F801
:103A98000080CCF8003018F0070300F01381C3F160
:103AA8000802C3F5805390440833C244CAF30B0A92
:103AB800CAEB030A51463046CDF804C000F074FD45
:103AC800431CDDF804C000F03581C8EB0002524405
:103AD80042F00102DCF80030C7F808805344BC42C9
:103AE800C8F80420CCF80030DFF894A015D0B9F15C
:103AF8000F0F40F2EA806168A9F10C0222F0070278
:103B080001F0010EA118052042EA0E0E0F2AC4F892
:103B180004E04860886000F21181174ABC681168A7
:103B28008B4288BF1360154A11688B4288BF1360A7
:103B3800626822F003029542C5EB020301D80F2BFD
:103B480004DC304600F0FCF90024A5E6621943F0D5
:103B5800010345F0010565603046BA60536000F026
:103B6800EFF90834204603B0BDE8F08F7404002054
:103B7800C408002080080020C0080020BC080020DD
:103B8800C8080020BCF1140F61D9BCF1540F00F231
:103B98008F804FEA153C0CF16E0C4FEA4C0197E60A
:103BA8004B0A042B58D9142B00F2AE8003F15B02A8
:103BB800500007EB8000DFF8BC818368834200F087
:103BC8008A805A6822F00302914202D29B68984286
:103BD800F7D1D9687A68E160A3608C60DC60B7E6E9
:103BE800611942F0010745F00105656030465961E9
:103BF8001961C1F80CE0C1F808E04F608A50083438
:103C080000F09EF948E65A68A2E609F1010919F0A0
:103C1800030F04F108047FF4AEAE2DE004F10803AD
:103C28006469A34208BF0CF1020C3FF467AE23E6B7
:103C380019441C464868DB6854F8082F40F0010511
:103C48004D603046D3609A6000F07AF924E60CF1B2
:103C58005B0C4FEA4C013BE68A0938325000A8E772
:103C6800BC423FF403AFBC68626822F0030262E71B
:103C7800D8F8008098457BD11CF0030FA8F1080301
:103C88000CF1FF3CF4D17B6823EA00037B60400021
:103C980098423FF6BFAE00283FF4BCAE0342CC4684
:103CA8007FF465AE400003420CF1040CFAD05EE6E6
:103CB800BCF5AA7F1AD84FEAD53C0CF1770C4FEA2D
:103CC8004C0105E64FF48053EFE60123C8F80430B1
:103CD800444600222FE791100120D8F8042000FA6A
:103CE80001F10A43C8F80420194674E740F2545316
:103CF8009C451BD84FEA954C0CF17C0C4FEA4C01C3
:103D0800E6E50AF1100AA3E6542B1FD80A0B6E3217
:103D180050004EE7CBF30B0100297FF4B1AE0AEB5C
:103D28000901BA6841F001015160F6E6FC214FF043
:103D38007E0CCDE501224FF0000ACBE604F1080124
:103D4800304600F071FDDAF80030E6E6B3F5AA7FF8
:103D580003D8CA0B773250002BE740F254529342F3
:103D680003D88A0C7C32500023E7FC207E2220E70F
:103D78007B688CE774040020830770B4C9B23FD015
:103D8800541E2AB303788B4223D0431C04E0FCB1B1
:103D980004788C421DD0144613F0030F184604F122
:103DA800FF3203F10103F2D1032C14D8651E4CB382
:103DB80003788B420DD0421C002302E004788C4229
:103DC80007D0AB42104603F1010302F10102F5D11D
:103DD800002070BC704741EA0126034646EA0646C1
:103DE8001846043302687240A2F1013525EA02023E
:103DF80012F0803FDAD1043C032C1846F0D8D5E7FE
:103E08001446D1E72046E4E7844641EA000313F06C
:103E180003036DD1403A41D351F8043B40F8043BC9
:103E280051F8043B40F8043B51F8043B40F8043B8C
:103E380051F8043B40F8043B51F8043B40F8043B7C
:103E480051F8043B40F8043B51F8043B40F8043B6C
:103E580051F8043B40F8043B51F8043B40F8043B5C
:103E680051F8043B40F8043B51F8043B40F8043B4C
:103E780051F8043B40F8043B51F8043B40F8043B3C
:103E880051F8043B40F8043B51F8043B40F8043B2C
:103E980051F8043B40F8043B403ABDD2303211D3CC
:103EA80051F8043B40F8043B51F8043B40F8043B0C
:103EB80051F8043B40F8043B51F8043B40F8043BFC
:103EC800103AEDD20C3205D351F8043B40F8043BCC
:103ED800043AF9D2043208D0D2071CBF11F8013BCA
:103EE80000F8013B01D30B8803806046704700BF90
:103EF800082A13D38B078DD010F003038AD0C3F19F
:103F08000403D21ADB071CBF11F8013B00F8013B80
:103F180080D331F8023B20F8023B7BE7043AD9D33F
:103F2800013A11F8013B00F8013BF9D20B78037014
:103F38004B7843708B78837060467047704700BF3A
:103F4800704700BFC26C70B505460C464AB152F8BE
:103F5800240080B1016842F8241000220261C26086
:103F680070BD2122042100F0E1FBE864024600282C
:103F7800EDD1002070BD012101FA04F6721D28461A
:103F8800920000F0D3FB0028F3D044608660E4E799
:103F980031B1C36C4A6853F82200086043F8221014
:103FA800704700BF2DE9F047D1F8108082B08946EC
:103FB800824601F1140500242F68BEB23F0C02FBB3
:103FC800063602FB07F303EB16430134B6B206EBE1
:103FD8000346A04545F8046B4FEA1343ECDC53B1A4
:103FE800D9F8082090450ADA09EB880108F101029E
:103FF8004B61C9F81020484602B0BDE8F087D9F8EF
:104008000410019301315046FFF79CFFD9F81020A6
:10401800023209F10C01044692000C30FFF7F4FE5D
:10402800DAF84C20D9F80410019B52F82100C9F89D
:10403800000042F82190A146D6E700BF030C1B04FC
:10404800B3B90004102310F07F4F04BF00020833F7
:1040580010F0704F04BF0001043310F0404F04BF4C
:1040680080000233002807DB420003D42020704779
:104078000023E8E7581C704718467047036813F098
:10408800070207D0D90720D49A0720D49B080360D9
:104098000220704799B209B91B0C102213F0FF0FC8
:1040A80004BF1B0A0832190704BF1B090432990709
:1040B80004BF9B080232D90704D45B0801D1202031
:1040C80070470132036010467047002070475B0854
:1040D80003600120704700BF10B50C460121FFF7AF
:1040E80031FF01224461026110BD00BF2DE9F04F8C
:1040F8000D69D2F810904D4585B00C46924604DA09
:104108002A4654464D468A469146A368616805EB9F
:1041180009079F42C8BF0131FFF714FF00F11406D9
:1041280006EB87084645019005D23346002043F840
:10413800040B9845FBD80AF1140C0CEB89091434CC
:10414800CC45009404EB85055BD2CDF80880039735
:10415800C8465CF8043B9CB224B3009A33464FF03F
:10416800000900E00B4652F8047B19681FFA87FB28
:104178001FFA81FA380C090C04FB0BA7B94404FB9D
:10418800001000EB194019461FFA89F949EA00475F
:1041980095424FEA104941F8047BE3D8C3F80490EC
:1041A8005CF8043C5FEA134924D0D6F800A0009BD1
:1041B800504631464FF0000B00E011461A88000CBB
:1041C80009FB020083441FFA8AFA0A464AEA0B40AE
:1041D80042F8040B53F8047B48684FEA174A84B244
:1041E80009FB0A4A0AEB1B4A9D424FEA1A4BE4D8DC
:1041F800C1F804A0E04506F10406AAD8DDF8088055
:10420800039F002F0ADD58F8043CA8F104081BB1ED
:1042180004E058F8043D0BB9013FFAD1019B184658
:104228001F6105B0BDE8F08F12F003032DE9F041DE
:10423800144607460E462CD1A4101CD0BD6C002D88
:1042480030D04FF0000804E0641014D02868A8B1FA
:104258000546E307F8D5384631462A46FFF746FFB4
:10426800AEB17268FB6C641053F82210316043F8E9
:1042780022600646EAD13046BDE8F0813846294634
:104288002A46FFF733FF2860C0F80080E0E70646BB
:10429800DAE75D1E0A4A002352F82520FFF782FE5E
:1042A8000646C9E701213846FFF74CFE40F2712166
:1042B80001220023416102610546B8640360C0E73A
:1042C800D85B00082DE9F84F93460A698B684FEAD6
:1042D8006B1A0AEB020909F101069E420F46804655
:1042E800496804DD5B009E4201F10101FADC4046A9
:1042F800FFF728FEBAF1000F00F1140409DD0023CE
:104308001A4625460133534545F8042BFAD104EBE8
:1043180083043A6907F114031BF01F0B03EB820CAB
:1043280021D0CBF1200A002200E02C46196825464E
:1043380001FA0BF10A4345F8042B53F8042B6345A3
:1043480022FA0AF2F1D362600AB109F10206D8F83A
:104358004C307A68013E53F822100661396043F800
:104368002270BDE8F88F53F8042B44F8042B9C45C1
:10437800EDD953F8042B44F8042B9C45F3D8E6E711
:1043880002690B69D21A10B415D19B00143014318C
:104398001944034401E0984211D253F8042D51F80E
:1043A800044DA242F7D0944294BF01204FF0FF3051
:1043B8005DF8044B704710465DF8044B70470020C9
:1043C8005DF8044B704700BF2DE9F0470D460446E1
:1043D800114628461646FFF7D3FF071E55D04EDB79
:1043E8004FF0000869682046FFF7ACFD2F69326975
:1043F800C0F80C801435143600F1140305EB870C53
:1044080006EB8208002156F8042B55F8044B1FFAD6
:1044180082F911FA84FA110CC1EB1441C9EB0A02B2
:1044280001EB224192B242EA0142B04543F8042B23
:104438004FEA21412C46E6D8AC45984615D954F8A0
:10444800046B11FA86F1360C06EB214689B241EA73
:104458000642A44543F8042B4FEA2641EFD8EB4324
:10446800634423F0030304334344043B22B953F861
:10447800042D013F002AFAD00761BDE8F0872B46DA
:104488004FF0010835461E46ACE720463946FFF78F
:1044980059FD012347610361BDE8F0872DE9F04329
:1044A80083B001211D46C3F30A5614460A9FFFF73D
:1044B80049FDC5F3130380460EB143F480130193FD
:1044C80024B302A840F8084D6846FFF7D7FD002836
:1044D80035D19DE80C00C8F81420002B0CBF01242E
:1044E8000224C8F81830C8F81040DEB908EB840375
:1044F800A0F2324038601869FFF7A0FD0B9BC0EBB3
:1045080044101860404603B0BDE8F08301A8FFF7E7
:10451800B5FD0124019BC8F814302030C8F81040BC
:10452800002EE3D0A6F2334909EB00033B600B9B56
:10453800C0F135001860404603B0BDE8F0839DE83F
:104548000C00C0F1200103FA01F10A43C3400193B2
:10455800C8F81420C1E700BF31F0004310B408D0F8
:104568000F4AA3F5801494420AD804205DF8044B3E
:10457800704700280CBF022003205DF8044B7047E9
:10458800B3F5801F01D20320F7E7064A934201D012
:104598000020F2E7D0F1010038BF0020EDE700BFAE
:1045A800FFFFDF7F0000F07F38B5074C002305468A
:1045B80008462360FBF79CFF431C00D038BD2368E6
:1045C800002BFBD02B6038BDF008002020F0030141
:1045D80010F00300C0F1000051F8043B00F1040C96
:1045E8004FEACC0C6FF000021CBF22FA0CF2134306
:1045F8004FF0010C4CEA0C2C4CEA0C4CA3EB0C02CF
:1046080022EA030212EACC1204BF51F8043B043038
:10461800F4D013F0FF0F1FBF013013F47F4F0130A8
:1046280013F47F0F18BF0130704700BF2DE9F04F1A
:104638009468166883B0924680460D46002C6FD069
:104648004FF0000B08688B685C46002C43D09C42F6
:104658001F4645D3AB8913F4906F44D06F6929691D
:1046680007EB470707EBD777C1EB0009621C7F1000
:104678004A44974234BF17463A465B0535D511463A
:104688004046FFF7DDF8002839D0296901904A46ED
:10469800FFF7BAFBAA89019B22F4906242F08002DC
:1046A800AA81C9EB070203EB09006F612B6128603F
:1046B800AA602746A1464A46594600F083F9DAF827
:1046C8000820AB682868DB1B4844141BAB602860D3
:1046D800CAF8084024B3D6F800B074680836B4E7BE
:1046E8002746A146E7E7B946E5E7404600F014FA51
:1046F80003460028D5D14046296900F095F8AA89D3
:104708000C23C8F8003042F0400200234FF0FF307D
:10471800AA81CAF80830CAF8043003B0BDE8F08F9F
:104728002046CAF8044003B0BDE8F08F10B502FB7C
:1047380001F1FFF785F8044668B150F8042C22F01F
:104748000302043A242A18D8132A06D8034600225A
:104758001A605A609A60204610BD00231B2A036025
:1047680043600FD9242A8360C36005BF0361436196
:1047780000F1100300F11803E9E7002100F082F9C5
:10478800204610BD00F10803E1E700BFF8B5234D4E
:104798000F460446FFF7D2FBAB685E6826F00306B7
:1047A800F11B01F6EF7121F47F6121F00F01A1F5F2
:1047B8008057B7F5805F07DB20460021FFF7F4FE3E
:1047C800AB683344984204D02046FFF7B9FB002079
:1047D800F8BD20467942FFF7E7FE01300DD0104BB7
:1047E800AA681968F61B46F001062046C91B5660E0
:1047F8001960FFF7A5FB0120F8BD20460021FFF74F
:10480800D3FEAB68C21A0F2ADEDD064D04492D68B7
:1048180042F00102401B5A600860D5E7740400208A
:10482800C8080020800800202DE9F0410D46064602
:10483800002955D0FFF782FB55F8041CDFF874C136
:1048480021F00103A5F10804E218DCF80800576814
:10485800904227F0030769D011F00101576032D068
:104868000021D0194068C00706D43B44906800294D
:104878004ED0D268C260906043F001026260E3509B
:10488800E1B9B3F5007F2DD35A0A042A6AD89809EA
:10489800383041000CEB810C4649DCF808206245B1
:1048A80066D0516821F003018B4202D29268944588
:1048B800F7D1D368E360A2609C60D4603046BDE85D
:1048C800F041FFF73DBB55F8085C641B0CF1080884
:1048D800A06840452B4443D0E568C560A860C0E7A0
:1048E800BDE8F081DB080CEBC3020125DCF804000D
:1048F8009168A1609B1005FA03F31843E260CCF8B5
:10490800040094603046CC60BDE8F041FFF718BB66
:10491800294DA842ADD143F00102CCF81440CCF89F
:104928001040E060A0606260E350C7E71F44CB0717
:1049380007D455F8083CE41A1F44A268E368D3601A
:104948009A601E4B1B6847F001029F426260CCF8D8
:104958000840B3D31A4B30461968FFF717FFADE785
:1049680001217EE7142A0CD802F15B00410091E78F
:104978004B688010012505FA00F003434B6013468D
:1049880098E7542A03D8180B6E30410082E7B2F535
:10499800AA7F03D8D80B773041007BE740F2545107
:1049A8008A4203D8980C7C30410073E7FC217E20B2
:1049B80070E700BF740400207C0400207C080020FD
:1049C800C40800208842F0B410D98C18A0420DD237
:1049D8008518531E42B121462A4611F8014D02F8A6
:1049E800014D013B5C1CF8D1F0BC70470F2A3FD940
:1049F80040EA01039B073FD1A2F110073F0900EBF2
:104A0800071610360C46034625681D6065685D600C
:104A1800A5689D60E568DD601033B34204F11004B9
:104A2800F2D17B1C02F00F0C1B01BCF1030F1944DF
:104A3800034423D90E461D466446043C56F8047BBD
:104A480045F8047B032CF8D8ACF1040424F00304E3
:104A5800043402F0030223442144002AC4D01A4437
:104A680011F8014B03F8014B9342F9D1F0BC7047A0
:104A78000346002AF3D1B7E70346F0E76246002A67
:104A8800EDD1B1E7F0B4840743D0541E002A3ED0DC
:104A9800CDB2034603E0621E002C38D0144603F85A
:104AA800015B9A07F7D1032C2AD9CDB245EA05252F
:104AB8000F2C45EA054515D9A4F110073F0903F164
:104AC800100606EB07161A46156055609560D56006
:104AD8001032B242F8D104F00F040137032C03EB73
:104AE80007130DD91E462246043A032A46F8045BEA
:104AF800FAD8221F22F003020432134404F00304FC
:104B08002CB1C9B21C4403F8011BA342FBD1F0BC71
:104B1800704714460346C6E72DE9F04F0C4683B0AC
:104B280090468146002900F0E280FFF707FA08F175
:104B38000B0654F8043C162E23F00305A4F10807CD
:104B48004BD810210E46B0454CD88D4278DADFF8A4
:104B580090B3DBF808E07819864500F0CE8042680B
:104B680022F0010C8444DCF804C01CF0010F7AD058
:104B780000221046DB0700F1928054F8083CC3EB92
:104B8800070ADAF8043023F003032B4488B370458E
:104B980000F0ED8002EB030E8E452ADBC3688268C5
:104BA8005746D3609A6057F8081FDAF80C30CB6084
:104BB8002A1F242A996000F22681132A40F2B38022
:104BC8002368CAF808306368CAF80C301B2A00F258
:104BD800308108340AF11003A6E026F00706002EFB
:104BE8003146B0DA0C230020C9F8003003B0BDE824
:104BF800F08F8B4253DB5746DAF80C1057F8080F42
:104C08002A1F242AC160886000F20981132A40F211
:104C180004812168CAF808106168CAF80C101B2AB8
:104C280000F21C8108340AF11002216811606168E1
:104C38005160A16891601D46DAF804303C46574639
:104C4800AA1B0F2A03F0010319D82B433D447B60AC
:104C58006B6843F001036B604846FFF771F9204623
:104C680003B0BDE8F08F22F0030202EB050C8C457F
:104C780080DBC26881686546CA609160E0E7B9195F
:104C880042F001001E430A447E604860536843F0C6
:104C98000103083153604846FFF7C6FDDCE741468B
:104CA8004846FEF7CDFD8046D0B154F8043C23F0C9
:104CB80001023A44A0F10801914200F09E802A1FA7
:104CC800242A50D8132A23D803462246116819608B
:104CD8005168596092689A6021464846FFF7A4FDDA
:104CE8004846FFF72DF9404603B0BDE8F08F11465E
:104CF80003B0BDE8F04FFEF7A3BDDEF8042022F0B4
:104D08000302501906F1100C604519DA704631E7B4
:104D180023680360636843601B2A63D800F10803B3
:104D280004F10802D2E73B4622681A6062685A60BA
:104D3800A2689A603C467546DAF8043057467FE721
:104D48003744831B43F00103CBF808707B6054F8A9
:104D5800043C03F001031E43484644F8046CFFF783
:104D6800EFF820467CE72146FFF72CFEB4E702EB7C
:104D7800030C06F110029445FFF63BAF5746DAF8EC
:104D88000C3057F8081F2A1F242ACB60996000F2BC
:104D98008780132A78D92368CAF808306368CAF864
:104DA8000C301B2A00F2858008340AF110032268AF
:104DB8001A6062685A60A2689A600AEB0603C6EB3A
:104DC8000C0242F00102CBF808305A60DAF80430DD
:104DD80003F001031E434846CAF80460FFF7B0F821
:104DE80038463DE7A3688360E368C360242A2CD073
:104DF80000F1100304F1100268E750F8042C22F0C7
:104E0800030215441CE72146384675463C46FFF721
:104E1800D9FD5746DAF8043012E73A4605E7214645
:104E280038461D463C46FFF7CDFD5746DAF80430B4
:104E380006E7A368CAF81030E368CAF81430242AD1
:104E480018D010340AF118036EE723690361636907
:104E5800436104F1180200F1180337E7A168CAF8A2
:104E68001010E168CAF81410242A0FD010340AF17F
:104E78001802DAE62369CAF818306369CAF81C30E0
:104E880018340AF120034FE73B4690E72269CAF835
:104E980018206269CAF81C2018340AF12002C4E6F6
:104EA80021463846CDF804C0FFF78CFDDDF804C074
:104EB80083E7A368CAF81030E368CAF81430242AD4
:104EC80003D010340AF1180371E72369CAF81830BF
:104ED8006369CAF81C3018340AF1200367E700BF79
:104EE8007404002070B54FF0FF0C4CF4E06C1CEA21
:104EF80011541DBF1CEA135594EA0C0F95EA0C0FC8
:104F080000F0DEF82C4481EA030621EA4C5123EA3A
:104F18004C5350EA013518BF52EA033541F4801169
:104F280043F4801338D0A0FB02CE4FF00005E1FB1C
:104F380002E506F00042E0FB03E54FF00006E1FB66
:104F480003569CF0000F18BF4EF0010EA4F1FF04A9
:104F5800B6F5007F64F5407404D25FEA4E0E6D41E9
:104F680046EB060642EAC62141EA55514FEAC520FA
:104F780040EA5E504FEACE2EB4F1FD0C88BFBCF576
:104F8800E06F1ED8BEF1004F08BF5FEA500E50F127
:104F9800000041EB045170BD06F0004646EA0101ED
:104FA80040EA020081EA0301B4EB5C04C2BFD4EB1F
:104FB8000C0541EA045170BD41F480114FF0000E18
:104FC800013C00F3AB8014F1360FDEBF002001F086
:104FD800004170BDC4F10004203C35DA0C341BDC00
:104FE80004F11404C4F1200500FA05F320FA04F0D2
:104FF80001FA05F240EA020001F0004221F0004106
:1050080010EBD37021FA04F642EB06015EEA430E78
:1050180008BF20EAD37070BDC4F10C04C4F12005A8
:1050280000FA04F320FA05F001FA04F240EA02005B
:1050380001F0004110EBD37041F100015EEA430E2C
:1050480008BF20EAD37070BDC4F1200500FA05F24C
:105058004EEA020E20FA04F301FA05F243EA0203CB
:1050680021FA04F001F0004121FA04F220EA0200DA
:1050780000EBD3705EEA430E08BF20EAD37070BD20
:1050880094F0000F0FD101F00046400041EB010100
:1050980011F4801F08BF013CF7D041EA060195F0E2
:1050A800000F18BF704703F00046520043EB03039C
:1050B80013F4801F08BF013DF7D043EA0603704789
:1050C80094EA0C0F0CEA135518BF95EA0C0F0CD094
:1050D80050EA410618BF52EA4306D1D181EA0301DA
:1050E80001F000414FF0000070BD50EA410606BFD4
:1050F8001046194652EA430619D094EA0C0F02D119
:1051080050EA013613D195EA0C0F05D152EA03365D
:105118001CBF104619460AD181EA030101F000417B
:1051280041F0FE4141F470014FF0000070BD41F0C4
:10513800FE4141F4780170BD70B54FF0FF0C4CF49E
:10514800E06C1CEA11541DBF1CEA135594EA0C0FBD
:1051580095EA0C0F00F0A7F8A4EB050481EA030E0A
:1051680052EA03354FEA013100F088804FEA0333F1
:105178004FF0805545EA131343EA12634FEA0222BF
:1051880045EA111545EA10654FEA00260EF0004180
:105198009D4208BF964244F1FD0404F5407402D2D2
:1051A8005B084FEA3202B61A65EB03055B084FEA63
:1051B80032024FF480104FF4002CB6EB020E75EB60
:1051C800030E22BFB61A754640EA0C005B084FEA88
:1051D8003202B6EB020E75EB030E22BFB61A754605
:1051E80040EA5C005B084FEA3202B6EB020E75EB50
:1051F800030E22BFB61A754640EA9C005B084FEAC8
:105208003202B6EB020E75EB030E22BFB61A7546D4
:1052180040EADC0055EA060E18D04FEA051545EAC3
:1052280016754FEA06164FEAC30343EA52734FEA6C
:10523800C2025FEA1C1CC0D111F4801F0BD141EAE5
:1052480000014FF000004FF0004CB6E711F4801F4A
:1052580004BF01430020B4F1FD0C88BFBCF5E06F2A
:105268003FF6AFAEB5EB030C04BFB6EB020C5FEA3A
:10527800500C50F1000041EB045170BD0EF0004E8F
:105288004EEA113114EB5C04C2BFD4EB0C0541EAC1
:10529800045170BD41F480114FF0000E013C90E6BE
:1052A80045EA060E8DE60CEA135594EA0C0F08BF82
:1052B80095EA0C0F3FF43BAF94EA0C0F0AD150EA81
:1052C80001347FF434AF95EA0C0F7FF425AF104614
:1052D80019462CE795EA0C0F06D152EA03353FF43C
:1052E800FDAE1046194622E750EA410618BF52EAB9
:1052F80043067FF4C5AE50EA41047FF40DAF52EA8D
:1053080043057FF4EBAE12E74FF0FF3C06E000BF29
:105318004FF0010C02E000BF4FF0010C4DF804CD36
:105328004FEA410C7FEA6C5C4FEA430C18BF7FEAF6
:105338006C5C1BD001B050EA410C0CBF52EA430C24
:1053480091EA030F02BF90EA020F0020704710F1A4
:10535800000F91EA030F58BF994208BF90422CBF33
:10536800D8176FEAE37040F0010070474FEA410C2C
:105378007FEA6C5C02D150EA013C07D14FEA430C4A
:105388007FEA6C5CD6D152EA033CD3D05DF8040BBB
:10539800704700BF8446104662468C4619466346ED
:1053A80000E000BF01B5FFF7B7FF002848BF10F1C4
:1053B800000F01BD4DF808EDFFF7F4FF0CBF012009
:1053C80000205DF808FB00BF4DF808EDFFF7EAFF85
:1053D80034BF012000205DF808FB00BF4DF808ED40
:1053E800FFF7E0FF94BF012000205DF808FB00BF35
:1053F8004DF808EDFFF7CEFF94BF012000205DF8BF
:1054080008FB00BF4DF808EDFFF7C4FF34BF0120CB
:1054180000205DF808FB00BF4FEA410212F50012B8
:1054280015D211D56FF47873B3EB625212D94FEAE3
:10543800C12343F0004343EA505311F0004F23FACD
:1054480002F018BF404270474FF00000704750EA22
:10545800013005D111F0004008BF6FF000407047DF
:105468004FF00000704700BF4BB942B9002908BF90
:10547800002802D04FF0FF31084600F03BB882B058
:10548800EC462DE9005000F01DF8DDF804E002B00C
:105498000CBC70472DE97043069E14461D46804695
:1054A800894600F029F804FB01F300FB0533A4FB4F
:1054B80000451D44B8EB040469EB0505C6E9004541
:1054C800BDE870832DE97043069E144680468946E0
:1054D8001D4600F05DF900FB05F504FB0153A0FB38
:1054E80004451D44B8EB040469EB0505C6E900450D
:1054F800BDE87083704700BF00292DE9F00FC0F2A6
:105508009F800024002BC0F29680154606460F4661
:10551800002B3ED18A4257D9B2FA82F34BB1C3F17C
:10552800200201FA03F720FA02F29D40174300FA1D
:1055380003F6290CB7FBF1F2330C01FB127CA8B27D
:1055480043EA0C4700FB02F3BB4209D97F1902F179
:10555800FF3C80F00181BB4240F2FE80023A2F44BA
:10556800FF1AB7FBF1F3B6B201FB137146EA01412A
:1055780000FB03F0884208D9491903F1FF3780F08E
:10558800ED80884240F2EA80023B43EA024200236F
:1055980003E08B420AD900231A461046194614B173
:1055A800404261EB4101BDE8F00F7047B3FA83F860
:1055B800B8F1000F40F084808B4202D3824200F29F
:1055C800DE8000230122E8E712B90123B3FBF2F5DC
:1055D800B5FA85F2002A39D17F1B280C1FFA85FC01
:1055E8000123B7FBF0F1320C00FB117742EA0747C1
:1055F8000CFB01F2BA4207D97F1901F1FF3802D238
:10560800BA4200F2C1804146BF1AB7FBF0F2B6B207
:1056180000FB127046EA00400CFB02FC844507D9E7
:10562800401902F1FF3702D2844500F2AB803A46B6
:1056380042EA0142B1E7E443524263EB430364E7C1
:10564800404261EB41014FF0FF345BE79540C2F106
:10565800200327FA03F1280C26FA03F39740B1FB3D
:10566800F0F81F433B0C00FB18111FFA85FC43EAB6
:1056780001410CFB08F38B4206FA02F608D94919D6
:1056880008F1FF3279D28B4277D9A8F10208294470
:10569800C91AB1FBF0F3BFB200FB131147EA014787
:1056A8000CFB03F2BA4207D97F1903F1FF3160D22C
:1056B800BA425ED9023B2F44BF1A43EA084390E737
:1056C800C8F1200203FA08FC25FA02F343EA0C0C9D
:1056D8004FEA1C4921FA02F301FA08F720FA02F20C
:1056E800B3FBF9F1174309FB11333A0C1FFA8CFB92
:1056F80042EA03430BFB01FA9A4505FA08F008D978
:1057080013EB0C0301F1FF3235D29A4533D9023934
:105718006344CAEB0303B3FBF9F209FB1233BFB2CC
:1057280047EA03470BFB02F9B94508D917EB0C0701
:1057380002F1FF331BD2B94519D9023A674442EA4C
:105748000145A5FB0001C9EB07078F424FF0000395
:105758000AD305D02A4620E7624601E73B4614E70C
:1057680006FA08F68642F5D26A1E002315E71A469D
:10577800E5E70B46A0E71146CBE7904688E74346A6
:1057880042460AE7023A53E702392F443CE700BF92
:105798002DE9F00F144605460E46002B43D18A42E8
:1057A80053D9B2FA82F757B1C7F1200620FA06F6A4
:1057B80001FA07F302FA07F41E4300FA07F5210C71
:1057C800B6FBF1F22B0C01FB1267A0B243EA0746C5
:1057D80000FB02F3B34209D9361902F1FF3780F012
:1057E800F680B34240F2F380023A2644F61AB6FB3A
:1057F800F1F3ADB201FB136145EA014100FB03F08F
:10580800884208D9091903F1FF3680F0E2808842FE
:1058180040F2DF80023B43EA024200231046194669
:10582800BDE8F00F70478B424AD8B3FA83F6002ED2
:105838004DD18B4202D3824200F2D680002301224E
:1058480010461946BDE8F00F704712B90124B4FBA1
:10585800F2F4B4FA84F2002A7CD1091B260CA7B210
:105868000123B1FBF6F02A0C06FB101142EA0141B4
:1058780007FB00F28A4207D9091900F1FF3C02D25E
:105888008A4200F2C3806046891AB1FBF6F2ADB2D3
:1058980006FB121145EA014507FB02F7AF4208D99A
:1058A8002C1902F1FF3180F09680A74240F29380D4
:1058B800023A42EA004210461946BDE8F00F704726
:1058C80000231A4610461946BDE8F00F7047C6F186
:1058D800200522FA05F4B3401C434FEA144821FA84
:1058E80005F301FA06F720FA05F5B3FBF8FC2F4398
:1058F80008FB1C333D0C1FFA84FA45EA03430AFBF4
:105908000CF9994502FA06FB04D91B190CF1FF3270
:105918006DD39446C9EB0303B3FBF8F508FB1533C5
:10592800BFB247EA03470AFB05F8B84504D93F194F
:1059380005F1FF3361D31D4645EA0C4CACFB0B2344
:10594800C8EB07079F424FF0000549D345D0624690
:105958002B4663E79440C2F1200321FA03FC260C8E
:1059680020FA03F301FA02F5BCFBF6F843EA050155
:105978000B0C06FB18CCA7B243EA0C4C07FB08F348
:10598800634500FA02F509D91CEB040C08F1FF3253
:105998003AD2634538D9A8F10208A444C3EB0C0CE9
:1059A800BCFBF6F389B206FB13CC41EA0C4107FBBA
:1059B80003F28A4207D9091903F1FF3022D28A4239
:1059C80020D9023B2144891A43EA084349E73A4669
:1059D8000CE733461FE70A466BE7B0409042B6D261
:1059E8000CF1FF32002319E73346324616E7994592
:1059F8008FD9ACF1020C23448CE7B8459BD9023D02
:105A0800274499E70346DEE79046C7E70238214472
:105A18003AE700BF696E7420726573756C74203D37
:105A28002025642E2564200D0A00000054696D6548
:105A3800203A20257520755365630D0A0000000083
:105A4800666C6F617420726573756C74203D2025D7
:105A58002E3266200D0A000043000000303030303E
:105A6800303030303030303030303030494E460011
:105A7800696E66004E414E006E616E003031323301
:105A88003435363738394142434445460000000032
:105A9800303132333435363738396162636465669C
:105AA80000000000286E756C6C29000030000000B2
:105AB80020202020202020202020202020202020DE
:105AC800496E66696E697479000000004E614E0087
